:040000000C946A02F0
:040078000C94FD36B1
:14008C000000003F0000C03F0000104233C4313C0000044226
:1400A0000000044233332741000020418FC2854033332343F5
:1400B40000000000000040C1000040419A998D4166E6F64231
:1400C8000000803D00000000222A2B2C3A3B3C3D3E3F5B5DA1
:1400DC007C7F000900000A0000000000003230313330322EAC
:1400F000786C73000000003230313230312E786C73000000FA
:1401040000444556303030303031090909090909090909098D
:140118000D0AD0F2BAC509C8D5C6DA09CAB1B7D609CEC2B6D5
:14012C00C809B7E7CBD909B7E7C0E4D6B8CAFD09B5C8BCDBEF
:14014000D6C6C0E4CEC2B6C809CFE0B5B1CEC2B6C809B6B3BF
:14015400C9CBCEA3BAA6D0D409B0B2BEB2D7F7D2B509D6D0AF
:14016800B5C8C7BFB6C8D7F7D2B509B8DFC7BFB6C8D7F7D269
:14017C00B50A0000300930093009300066056E0577058505F1
:140190008F059805A205AC0566056E05770585058F059805BD
:1401A400A205AC05000000000D0A0000000066777269746547
:1401B80000666F70656E00646D6E740064696E697400CDEA99
:1401CC00B3C9D7D4BCEC00202000BCD3C8C8BFAAB9D8007087
:1401E0006F77657220D6B8CABEB5C600B7E4C3F9C6F700B7D2
:1401F400E7CBD9C2F6B3E5A3BA00C4DAB2BFCEC2B6C800CDD5
:14020800E2B2BFCEC2B6C82000D7D4BCECB3CCD0F20040008D
:14021C00000000955800000000FF5100000000FF5100000041
:1402300000FFB8DFC7BFB6C8D7F7D2B5A3BA0000D6D0B5C84B
:14024400C7BFB6C8D7F7D2B5A3BA0000B5CDC7BFB6C8D7F79C
:14025800D2B5A3BA0000BCD3C7BFC0CDB6AFBCE0B6BDA3BB3A
:14026C000000D4F6BCD3D2FBCBAE3B0000B1A3B3D6B8C9D472
:14028000EFBDFBC2E3C2B6A1A30000B4F7C3E6D5D6A1A3001F
:1402940000BDFBD3CDB2CAA1A30000CBF5B6CCD7F7D2B5CADD
:1402A800B1BCE4A1A300D0DDCFA2D7A2D2E2B1A3C5AFA1A356
:1402BC000000BCF5C9D9B7C7B1D8D0EBD7F7D2B5A3BB000066
:1402D000C0CDB6AFCAB1BCE43C33306D696EA1A30000C8A17D
:1402E400CFFBB7C7B1D8D0EBB5C4D7F7D2B50000C0CDB6AFBA
:1402F800CAB1BCE43C31356D696EA3BB0000C8A1CFFBBBA7FE
:14030C00CDE2D7F7D2B5A1A3003039D4C23139C8D531383AEC
:1403200030303A303000A1FC00A1FD00BBB7BEB3C0E4C7BF87
:14033400B6C8BCECB2E2D2C700BBB6D3ADCAB9D3C300B0B4F4
:14034800CBB3D0F200D7EEBAF3D2BBB4CE0020202020202020
:14035C0020202020D2D1B1A3B4E6002020202000202020207C
:1403700020202020B7C5C6FAD0DEB8C40020202020202020B3
:1403840020202020202020202000B1A3B4E600CAB1BCE4C973
:14039800E8D6C33A202020202020200032303132C4EA3132E0
:1403AC00D4C23331C8D50000BDFBD3CDB2CAA1A3202020200E
:1403C000202020200000B4F7C3E6D5D6A3BBBDFBD3CDB2CA78
:1403D400A1A300B6B3C9CBCEA3BAA6D0D4D0A1A1A30020206A
:1403E800B6B3C9CBCEA3BAA6D0D4BADCB4F3002020B6B3C9E0
:1403FC00CBCEA3BAA6D0D4BDCFB4F3002020B6B3C9CBCEA3CC
:14041000BAA6D0D4D0A100B6B3C9CBCEA3BAA6D0D43A00CFE8
:14042400E0B5B1CEC2B6C83A2000B5C8BCDBCEC2B6C83A209A
:1404380000B7E7C0E4D6B8CAFD3A2000B7E7CBD9286D2F7346
:14044C00293A2000CEC2B6C82028A1E6293A00D5FDD4DABC9D
:14046000ECB2E2002E2E00CDCBB3F62020202000CAD6B6AFE6
:1404740000D7D4B6AF00B2CBB5A52F20BCECB2E2002020B30F
:14048800F5CABCBBAF002020B2E9D1AF2020CAFDBEDDB4AB1F
:14049C00CAE4002020BCECB2E22020CAB1D6D3B5F7D5FB0042
:1404B000F904F904F904F904202020202020202020202020C4
:1404C4002020202000200000200C0A1C22460006CFEFD0E155
:1404D800CDBFDEBFCE51D0400AEA08830024E4E0F5E017E085
:1404EC00EB3EF10711F00192FBCF0083E0EDF0E0A0E0B1E04C
:1405000014E000E00BBFE43DF10721F0C89531960D92F9CF94
:140514000E945D24FFCFAA924A93A02EAA2011F001E00CC083
:140528000E94722B402F023011F402E005C0442311F001E0EA
:14053C0001C000274991A9900895002311F001E001C0002726
:1405500008950E94A9406901E02E22974E85AA24EE2011F48A
:14056400442311F404E010C0413049F4D982C8820A851B85E1
:140578002C853D850E94582CA02EAA2011F4002701C001E070
:14058C0022960C9493400E94AB405901E02E2297CC84EE2024
:1405A00011F4CC2011F404E009C0B982A882088519852A8565
:1405B4003B850E94D22B002722960C948C400E94623F00271F
:1405C8002496089505ED1FEB21E434E708950E94D4404E818A
:1405DC005F815801690106C0F601D50101906F010D925D01D7
:1405F0001A01415050402220A9F7332099F70C94DB400E9499
:14060400B2404C815D81580103C0F50121935F011A01415073
:1406180050402220C1F73320B1F70C94B7400E94A94048855A
:14062C00598568017901AA24BB241A0141505040222011F4C9
:14064000332079F0F70121907F013324F60141906F015524B9
:14065400421853085201AA2011F4BB2051F385010C949340A3
:1406680002C00F5F1F4FF80120803324222021F0332422160E
:14067C003306A9F7F8010081112708953A932A930E94B24024
:14069000A8012997FA01BA9620803180428053802D823E824D
:1406A4004F8258862D843E844F8458886D807E808F80988457
:1406B800621473048404950409F47EC0FA012480222009F407
:1406CC0055C081E08C8313012401288239824A825B829A01B3
:1406E000225D3F4F01810E94C902002311F001E068C0222497
:1406F400FA012482228C338C448C558C7E966080718082804C
:140708009380620C731C841C951C2D803E804F80588426142C
:14071C0037044804590450F5FA01A38024C0FA017A962080F3
:140730003180428053806D807E808F809884620C731C841CBC
:14074400951C6D827E828F82988681E08C832D803E804F8028
:140758005884288239824A825B829A01225D3F4FFA0101817E
:14076C000E94C902AA9481E08A15C8F22D843E844F845888EE
:1407800088942220320442045204D1F081E08C83288239829F
:140794004A825B829A01225D3F4FFA0101810E94A902002313
:1407A80011F001E00AC02D843E844F845888FA0122A633A6CF
:1407BC0044A655A6002729960E94B740229608950E94BC40D2
:1407D000B801259780E090E0A0E0B0E0A883B9839C018B0130
:1407E40051DF402F002309F0C0C0FB018081833009F0ACC0B1
:1407F8002580222009F4A8C0BA9680E08083818382838383DF
:14080C0080E092E099838883222733278B01025D1F4FF1DE14
:1408200085E5FB01E45DFD4F8083EC52F2408AEAE35DFD4F5E
:140834008083ED52F24082E586A787A781E680AB81E481AB57
:1408480082E7EE5EFD4F8083E251F240ED5EFD4F8083E35165
:14085C00F24081E4EC5EFD4F8083E451F24081E6EB5EFD4FF5
:140870008083E551F2402684378440885188EA5EFD4F2082CD
:14088400E651F24026843784232C3324E95EFD4F2082E7517F
:14089800F2402684378440885188120144245524E85EFD4F8E
:1408AC002082E851F24088E190E006851785208931898A93AB
:1408C0000E944241FB01E75EFD4F0083E951F2402284338426
:1408D40044845584E65EFD4F2082EA51F24022843384232C24
:1408E8003324E55EFD4F2082EB51F240228433844484558408
:1408FC00120144245524E45EFD4F2082EC51F24088E190E07C
:1409100002851385248535858A930E944241FB01E35EFD4F86
:140924000083ED51F24081E08C8322883388448855882882A4
:1409380039824A825B829F01225D3F4F01810E94C902222465
:14094C00FB012582222433243982288222273327FB010181D1
:1409600011270E94E1020030010709F041E0042F25960C94E6
:14097400C1403A932A930E94C640580142E050E060E070E001
:140988002E803F8048845984241A350A460A570A2E823F82A6
:14099C004886598642E050E060E070E0F50176962080318065
:1409B00042805380241A350A460A570A6E807F80888499845A
:1409C400621473048404950428F000E010E020E030E01DC03C
:1409D800F501329620803324442455240E811F8128853985DB
:1409EC005A924A923A922A920E94534018012901F50166A033
:140A000077A080A491A4260C371C481C591C810192010E945D
:140A1400CD40229608953A932A930E94A7406801229742E015
:140A280050E060E070E02C843D844E845F8424163506460613
:140A3C00570678F0F601769620803180428053806C847D8407
:140A50008E849F84621473048404950428F001E010E020E066
:140A640030E024C1F601A080BB24C5018130E0E09E0759F06E
:140A78008230E0E09E0709F46FC08330E0E09E0709F4A6C0AC
:140A8C000DC1AC84BD84150136942794A20CB31C29E030E0E6
:140AA00085010E943B41180144245524F601668C778C80A098
:140AB40091A0620C731C841C951C8882998293018F01E0DDA9
:140AC800002309F0EDC0C6018E96F501F170E80FF91FE080A0
:140ADC00FF24C50101965C0129E030E08C010E943B4118014C
:140AF00044245524F601668C778C80A091A0620C731C841C37
:140B0400951C8882998293018F01BCDD002309F0C9C0C601DE
:140B18008E96F501F170E80FF91F20803324322C2224E2289A
:140B2C00F3282C843D844E845F84E22DE17051F05701B69431
:140B4000A794B694A794B694A794B694A79403C0C7019F703D
:140B54005C018501960122273327A8C088E090E00C851D85FD
:140B68002E853F858A930E944241F601268C378C40A051A083
:140B7C00200E311E421E531E4882598291018F017DDDA02E28
:140B9000002309F089C04FEF51E060E070E02C843D844E84AA
:140BA4005F84220C331C441C551C242235224622572251013C
:140BB800C6018E96A80EB91EF5012080332401811127102FCB
:140BCC00002702291329222733276CC087E090E00C851D85AE
:140BE0002E853F858A930E944241F601268C378C40A051A00B
:140BF400200E311E421E531E4882598291018F0141DDE02EAC
:140C0800002309F04DC082E090E00C851D852E853F858A9316
:140C1C000E942941180129014FEF51E060E070E024223522D9
:140C3000462257225101C6018E96A80EB91E88E190E0F50136
:140C440003811127222733278A930E94294118012901F501DB
:140C580062807724882499244301662477242628372848281C
:140C6C00592861807724762C662488249924262837284828C5
:140C80005928608077248824992426283728482859284FEF1F
:140C94005FEF6FEF7FE024223522462257228101920104C0EA
:140CA8000FEF1FEF2FEF3FEF22960E949C40229608950E94B3
:140CBC00623F0E94A740239742E050E060E070E02F843888EB
:140CD00049885A88241635064606570680F0ED85FE857696CE
:140CE40020803180428053806F84788889889A886214730403
:140CF8008404950418F082E08A8394C1ED85FE85A080BB2407
:140D0C00C5018130E0E09E0759F08230E0E09E0709F4B0C02A
:140D20008330E0E09E0709F4E7C07AC1CF84D8881601369434
:140D34002794C20CD31C29E030E086010E943B4118014424F4
:140D48005524ED85FE85668C778C80A091A0620C731C841C46
:140D5C00951C8882998293018F0190DC0A83002E002309F046
:140D700059C18D859E858E96F601F1707F01E80EF91E2F8464
:140D8400388849885A88EF93E22DE170EF91B1F02B883C886E
:140D98004D885E883324220C331C220C331C220C331C220C90
:140DAC00331CF701808199278F7090705C01A228B32806C064
:140DC0002B883C884D885E88A22CBB24F701A082C6010196C8
:140DD4006C0181E0ED85FE85848329E030E086010E943B4183
:140DE800180144245524ED85FE85668C778C80A091A0620C54
:140DFC00731C841C951C8882998293018F013EDC0A83002EE5
:140E1000002309F007C18D859E858E96F601F1707F01E80EC3
:140E2400F91E2F84388849885A88EF93E22DE170EF9161F0CA
:140E380084E090E00B891C892D893E898A930E944241C02EEC
:140E4C00DD2415C088E090E00B891C892D893E898A930E946F
:140E60004241802F99278F709070F701E081FF27E07FF0704F
:140E74006F01C82AD92AF701C082D2C088E090E00F8518892C
:140E880029893A898A930E944241ED85FE85268C378C40A055
:140E9C0051A0200E311E421E531E4882598291018F01ECDB75
:140EB000C02ECA820C2C002309F0B4C04FEF51E060E070E02D
:140EC4002F84388849885A88220C331C441C551C2422352209
:140ED8004622572271018D859E858E96E80EF91E2B883C88D6
:140EEC00F7012082232C3324218296C087E090E00F851889AD
:140F000029893A898A930E944241ED85FE85268C378C40A0DC
:140F140051A0200E311E421E531E4882598291018F01B0DB38
:140F2800C02ECA820C2C002309F078C082E090E00F851889E8
:140F3C0029893A898A930E942941180129014FEF51E060E011
:140F500070E0242235224622572271018D859E858E96E80EFE
:140F6400F91E88E190E0F70103811127222733278A930E9473
:140F7800294118012901F7016280772488249924430166240C
:140F8C007724262837284828592861807724762C66248824C4
:140FA0009924262837284828592860807724882499242628B0
:140FB40037284828592840E050E060E070EF242235224622E5
:140FC80057226B887C888D889E8862287328842895286B8AE7
:140FDC007C8A8D8A9E8A2B883C884D885E882082232C332442
:140FF000319620822B883C884D885E88120144245524F70166
:141004003296208288E190E00B891C892D893E898A930E9420
:141018004241F701038302C082E08A8381E0ED85FE85848335
:14102C000A8123960E949C40249608953A932A930E94E24049
:1410400068012A9742E050E060E070E02A883B884C885D8862
:14105400241635064606570678F0F6017696208031804280EC
:1410680053806A887B888C889D88621473048404950418F05D
:14107C0082E0A82E88C0AA2476C02A883B884C885D884882E4
:14109000598291018601C1DC0E831F83288739872E803F80AC
:1410A400488459848894222032044204520409F46EC041E013
:1410B80050E060E070E02E803F80488459842416350646068D
:1410CC00570619F482E0A82E5EC04FEF5FEF6FEF7FEF2E804A
:1410E0003F8048845984241635064606570619F4AA24A39464
:1410F4004EC080E08A838B838C838D832A883B884C885D8812
:141108004882598291018601D4DDA02E002309F03CC04FEF40
:14111C005FEF6FEF7FEFF60126843784408851882416350633
:1411300046065706B1F0CF010E9641E050E060E070E0FC010F
:141144002080318042805380240E351E461E571E20823182FE
:141158004282538281E0F60185832E803F80488459842A8AC0
:14116C003B8A4C8A5D8AF601769620803180428053806A8812
:141180007B888C889D88621473048404950408F47ACF0A2D95
:141194002A960E94EB40229608953A932A930E94A7406801E9
:1411A800669728A039A04AA05BA08894222032044204520480
:1411BC0059F5F6013A9620803180428053802E863F86488AD9
:1411D000598A2E843F844888598888942220320442045204D2
:1411E40081F0F601769620803180428053806E847F84888898
:1411F8009988621473048404950408F440C081E08E8780E0E2
:14120C008F87888B898B39C028A039A04AA05BA0488259826D
:1412200091018601FADB0A871B872C873D8742E050E060E090
:1412340070E02A843B844C845D84241635064606570628F4FE
:1412480001E010E020E030E019C1F6017696208031804280C1
:14125C0053806A847B848C849D84621473048404950418F473
:141270008301940107C128A039A04AA05BA02E863F86488AB8
:14128400598A2E843F84488859882E823F824886598641E00E
:1412980050E060E070E02E803F8048845984240E351E461E83
:1412AC00571E2E823F8248865986F601769620803180428085
:1412C00053806E807F80888499846214730484049504C0F073
:1412D40082E08E8380E08F83888789872E843F8448885988DC
:1412E8006E807F8088849984261437044804590428F400E0C2
:1412FC0010E020E030E0C0C02E803F804884598448825982A3
:141310009101860182DB0A871B872C873D872A843B844C846C
:141324005D848894222032044204520409F42EC04FEF5FEF2D
:141338006FEF7FEF2A843B844C845D84241635064606570699
:14134C0049F041E050E060E070E0241635064606570629F438
:141360000A851B852C853D858DC02E843F84488859886E8076
:141374007F8088849984621473048404950409F088CF00E0FF
:1413880010E020E030E07AC08FEF8A838B838C838FE08D83F0
:14139C002E803F8048845984488259829101860186DCA02E39
:1413B0000023E1F428A039A04AA05BA08894222032044204D1
:1413C400520491F02E803F80488459842A823B824C825D8212
:1413D80028A039A04AA05BA0488259829101860168DCA02EAB
:1413EC00AA2009F02EC02E803F8048845984F60122863386CE
:14140000448655864FEF5FEF6FEF7FEF2684378440885188D5
:14141400241635064606570679F1CF010E967C0141E050E0FA
:1414280060E070E0FC012080318042805380241A350A460A70
:14143C00570A208231824282538281E0F601858317C08A2D5F
:14145000813031F48FEF8A8B8B8B8C8B8D8B06C081E08A8B9E
:1414640080E08B8B8C8B8D8B2A883B884C885D882E823F8230
:14147800488659860E811F812885398566960E949C402296E7
:14148C0008953A932A930E94AD4068012897F601B096808130
:1414A000918104965C0189E090E00C851D852E853F858A938F
:1414B4000E944241F601AF93BF93A081B181FD01BF91AF9193
:1414C800329620803324442455245A924A923A922A920E947E
:1414DC00AD3F0C831D832E833F83F501219031904190519054
:1414F0005F01288239824A825B82288039804A805B80889458
:14150400222032044204520429F400E010E020E030E02FC0D3
:14151800288039804A805B806C807D808E809F8062147304B6
:14152C008404950408F414C0288039804A805B806C807D80CB
:141540008E809F8062187308840895086C827D828E829F822E
:14155400C50104965C01C5CFF50120803180428053800C81C9
:141568001D812E813F81020D131D241D351D28960E94874069
:14157C00229608950E94A740690158012697F501D582C4826A
:14159000369620803180428053802A823B824C825D8241E05E
:1415A40050E060E070E02A803B804C805D80241635064606A4
:1415B800570689F0F501A081B18156962D903D904D905C90C1
:1415CC006A807B808C809D80621473048404950410F002E00D
:1415E000D6C02A803B804C805D808894222032044204520423
:1415F40079F4F501A081B1818C91833049F492962D903D906E
:141608004D905C902A823B824C825D822A803B804C805D80E1
:14161C008894222032044204520409F02BC0F501228633864F
:1416300044865586A081B18118962D903C90C214D30410F0CA
:1416440002E0A3C016013694279436942794369427943694DD
:14165800279444245524F501A081B18192966D907D908D904A
:14166C009C90620C731C841C951C66867786808A918A76C0AC
:14168000F501AF93BF93A081B181FD01BF91AF91228080E1E8
:14169400829D700140C02A803B804C805D804882598291016D
:1416A800F50100811181B5D90A831B832C833D834FEF5FEF71
:1416BC006FEF7FEF2A803B804C805D80241635064606570622
:1416D00011F401E05CC042E050E060E070E02A803B804C80F1
:1416E4005D80241635064606570688F0F501A081B18156964A
:1416F8002D903D904D905C906A807B808C809D806214730490
:14170C008404950410F002E03CC0CE18DF08CE14DF0408F040
:14172000BCCF2A803B804C805D80F501228633864486558620
:14173400488259829101008111811BD91601369427943694FD
:14174800279436942794369427944424552438014901620CF6
:14175C00731C841C951CF50166867786808A918A96012F705F
:14177000307000E210E00E9443401801F501808191818E9688
:14178400280E391E338A228A002726960C949C400E94623FB9
:141798000E94A74059012697E889F9898481958101966C018B
:1417AC008030890759F03E9620803180428053808894222088
:1417C00032044204520411F404E08DC1C6018F709070803096
:1417D400890709F070C1888999890E9641E050E060E070E08F
:1417E800FC012080318042805380240E351E461E571E20820A
:1417FC00318242825382E889F9893A962080318042805380E4
:141810008894222032044204520469F4E889F989A081B181F1
:1418240018962D903C90C214D30408F444C104E058C1E8895D
:14183800F989AF93BF93A081B181FD01BF91AF9182819927E2
:14184C000197160136942794369427943694279436942794C5
:1418600028223922222009F028C1332009F025C1E889F98986
:14187400228433844484558448825982910100811181C9D877
:141888000A831B832C833D8341E050E060E070E02A803B806C
:14189C004C805D80421553056405750510F002E01CC14FEF00
:1418B0005FEF6FEF7FEF2A803B804C805D802416350646063B
:1418C400570611F401E00DC1E889F989A081B18156962D9010
:1418D8003D904D905C906A807B808C809D80621473048404E3
:1418EC00950408F4CDC0AA2021F4BB2011F404E0F4C0E889FE
:14190000F98922843384448455844882598291010081118109
:1419140044DC0A831B832C833D832A803B804C805D808894DB
:14192800222032044204520411F407E0D8C041E050E060E082
:14193C0070E02A803B804C805D80241635064606570611F416
:1419500002E0C9C04FEF5FEF6FEF7FEF2A803B804C805D80B2
:14196400241635064606570611F401E0BAC040E050E060E061
:1419780070E0688379839A01E889F989008111810E9444039A
:14198C00002311F001E0A9C080E092E099838883222733273D
:1419A000E889F98900811181025D1F4F0E9401032A803B8055
:1419B4004C805D80488259829101E889F989A080B180850175
:1419C8000E94BB04F50102A713A724A735A7AA2435C081E086
:1419DC00E889F989AF93BF93A081B181FD01BF91AF91848388
:1419F00040E050E060E070E0688379839A01E889F98900810D
:141A040011810E944403E02E002311F001E069C0E889F98924
:141A1800808191818A967C0141E050E060E070E0FC0120808C
:141A2C00318042805380240E351E461E571E208231824282E9
:141A40005382A394E889F989AF93BF93A081B181FD01BF915E
:141A5400AF912280A21408F4BECFE889F989808191818A9637
:141A68007C012A2C332444245524FC0160807180828093807C
:141A7C00621873088408950860827182828293822A803B80E5
:141A90004C805D80E889F989228633864486558648825982FB
:141AA4009101008111810E94BB04E889F98906871787208B5F
:141AB800318BE889F989D582C48296012F70307000E210E026
:141ACC000E9443401801E889F989808191818E96280E391E11
:141AE000338A228A002726960E949C40249608950E94E2400D
:141AF400B8012297222733278B0140DD402F002309F036C09F
:141B0800FB012684378440885188488259829101008111817D
:141B1C000E944403402F002309F025C0FB01A288B388F50105
:141B3000C080CC2011F444E01CC0F501238423FC0FC08BE07A
:141B440090E099838883FB012489358985010E9413035801F8
:141B58000030010709F409C0222733278B0116DEA02E4A2D13
:141B6C00442309F4CBCF042F22960C94EB400E94E240B80134
:141B8000229744E02BC0FB01268437844088518848825982E2
:141B94009101008111810E944403402F002309F028C0FB0140
:141BA800A288B388F501C080CC2011F444E01FC08C2D853E1E
:141BBC0039F08E3229F0F501238423FC01C015C0222733271E
:141BD0008B01E0DD402F002309F00DC0FB013E96208031803F
:141BE400428053808894222032044204520409F0C8CF442331
:141BF80039F0FB013E9680E08083818382838383042F229683
:141C0C000C94EB400E94E240A8012297222733278A01B0DC19
:141C2000A02E002309F5FA012684378440885188488259821B
:141C34009101008111810E944403A02E002309F011C0FA0158
:141C4800A289B3896C91653E11F0662309F408C021E030E021
:141C5C008A019ADDC02EAC2CAA20F9F2AA2009F030C0FA0149
:141C70002684378440885188488259829101008111810E946E
:141C84004403C02EAC2C002301F5FA01C288D38880E290E0B4
:141C9800998388832227332786010E9401038BE090E099834A
:141CAC008883FA012489358986010E94EB0281E0FA01AF93FF
:141CC000BF93A081B181FD01BF91AF9184830A2D22960C9447
:141CD400EB403A932A930E94A740A8012997EB89FC892080BC
:141CE80031803B822A8205C08A819B8101969B838A83EA81B5
:141CFC00FB8120803324822D8F32A1F38C3591F3FA01248871
:141D100035883F822E828BE090E09983888320E230E08101FB
:141D24000E94010300240886222433243D822C82B10188E02F
:141D380090E06C01AB016F5F7F4FFA010A801B80E00DF11D57
:141D4C00408180E2841720F44F3211F04C3509F487C04E32EA
:141D600029F00C801D800C141D04A0F0C6018830E0E09E0778
:141D740011F44E3211F006E0AFC088E090E09D838C838BE00E
:141D88006C010884000C000C0886D4CF403818F08885836095
:141D9C008887413808F439C08EEF841708F435C05B016F5F83
:141DB0007F4FF5010A801B80E00DF11DA0808A2D803418F0A8
:141DC4008EE78A1530F48A2D803850F08EEF8A1538F0C60119
:141DD80001970C801D800816190610F006E07AC0EC80FD80F0
:141DEC00C70101969D838C83F7010E801F80E00DF11D408372
:141E00007C0101969D838C83F7010E801F80E00DF11DA08249
:141E140093CF242F332700E011E00E94340358010030010770
:141E280011F006E057C0413438F08AE5841720F08885826002
:141E3C00888709C0413638F08AE7841720F088858160888702
:141E50004052AC80BD80C50101969D838C83F5010E801F80D4
:141E6400E00DF11D408368CF1B010A801B80200C311CEB8947
:141E7800FC893182208280E2841718F064E070E002C0662794
:141E8C007727462F0C801D80002021F4112011F406E01EC0D7
:141EA000EE81FF818081853E11F485E08083C6018830E0E0CF
:141EB4009E0721F40884000C000C088688858370813009F480
:141EC800406188858C70843009F44860EE81FF814387002723
:141EDC0029960E949C40229608950E94A740B9015801AB0118
:141EF000475F5F4FF5013E962080318042805380889422207C
:141F040032044204520409F48AC0F501A288B388CC24DD2464
:141F180014C0F601EA0DFB1DE0808E2D803209F411C08E2D85
:141F2C00853011F485EEE82E00C0FA01E192AF01C601019622
:141F40006C01C6018830E0E09E0738F3F50180858032E1F093
:141F54008EE2FA018193AF0188E090E06C010FC0F601EA0D48
:141F6800FB1DE0808E2D803209F40CC000C0FA01E192AF01D9
:141F7C00C60101966C01C6018B30E0E09E0760F3F5012384AF
:141F9000FB01208688E190E0F501078D1127222733278A9340
:141FA4000E94294118012901F501668C7724882499244301AA
:141FB800662477242628372848285928658C7724762C66249A
:141FCC00882499242628372848285928648C77248824992406
:141FE0002628372848285928FB012082318242825382F5016F
:141FF400208C3324418C5524542C442442285328FB015582F0
:142008004482F5012688332447885524542C442442285328EE
:14201C00FB01578246822224FA0120820C949C403A932A932A
:142030000E94C640B801EE81FF8120803324822D8F3211F0E4
:142044008C3529F48E819F8101969F838E83FB01369680E089
:142058008083818382838383EE81FF81808199278032E0E040
:14206C009E0758F4222733278B0184DA402F22243324FB01DA
:14208000338A228A52C09E012A5F3F4F8B0123DEA02E4A2D49
:14209400002309F048C08B0129DDA02E4A2DFB01AF93BF93AD
:1420A800A489B589FD01BF91AF91A384002349F0043009F07B
:1420BC0036C001C0E2CFA2FC32C045E030C0A2FE01C02DC0B5
:1420D000FB01A288B388F501238424FC02C045E024C0F5011D
:1420E400228C3324438C5524542C4424422853281201442453
:1420F80055246488772485889924982C8824862897283401F8
:14210C00882499244301662477246228732884289528FB0163
:142120006682778280869186AECF042F0E94CD4022960895F9
:142134003A932A930E94C6405801259781E08C832B843C8471
:142148004D845E84288239824A825B829501225D3F4FF50129
:14215C0001810E94A902002311F003E0A8C0F501E45DFD4FAE
:142170002080EC52F2403324E35DFD4F80819927982F882731
:14218400822993298535EAEA9E0711F002E093C088E190E09E
:14219800F501E959FF4F00811127222733278A930E94294128
:1421AC0018012901F501EA59FF4F6080E656F04077248824C2
:1421C00099244301662477242628372848285928EB59FF4FB5
:1421D4006080E556F0407724762C66248824992426283728CF
:1421E80048285928EC59FF4F608077248824992426283728CE
:1421FC00482859284FEF5FEF6FEF70E0242235224622572226
:1422100046E451E464E570E0241635064606570611F4002778
:142224004AC088E190E0F501ED57FF4F0081112722273327DF
:142238008A930E94294118012901F501EE57FF4F6080E25883
:14224C00F040772488249924430166247724262837284828C4
:142260005928EF57FF4F6080E158F0407724762C6624882499
:1422740099242628372848285928E058FF4F6080772488244E
:14228800992426283728482859284FEF5FEF6FEF70E0242267
:14229C0035224622572246E451E464E570E02416350646063D
:1422B000570611F4002701C001E025960E94CD402296089530
:1422C4003A932A930E94A7406801A797F601A080B180F5010E
:1422D80080819927C0977C0189E090E08E159F0550F08181FB
:1422EC008A3339F4CF0102965C01F601B182A08202C0EE240F
:14230000FF24C7018130E0E09E0710F00BE0CFC486E095E06F
:14231400F701EE0FFF1FE80FF91F208031803EA22DA2E9A901
:14232800FAA9318220820101222021F4332011F40CE0B9C48F
:14233C00EDA1FEA12080222079F001810E94A302A02E00FD81
:1423500009C00BA8002021F002FF02C00AE0A7C40027A5C424
:142364002224EDA1FEA12082E18201810E948D02E02EAE2C52
:1423780000FF02C003E097C40BA8002021F0A2FE02C00AE022
:14238C0090C480E0898B8A8B8B8B8C8B40E050E060E070E053
:1423A000688379839A010DA11EA1C4DEA02ECA2C00C08C2D5B
:1423B400813009F04CC0AA2409F0AA9400E11A2D01035001DD
:1423C8008DA19EA184519E4FA80EB91EF5012480222009F46C
:1423DC003AC088E190E003851127222733278A930E9429418E
:1423F00018012901F50162847724882499244301662477244D
:14240400262837284828592861847724762C66248824992411
:14241800262837284828592838966080772488249924262812
:14242C00372848285928298A3A8A4B8A5C8A29883A884B88D4
:142440005C884882598291010DA11EA173DEA02ECA2C8C2D32
:14245400833011F401E029C4CC2011F00DE025C4EDA1FEA1FE
:1424680021AC332482AD9927982F8827822993298030E2E0FE
:14247C009E0711F00DE015C4EDA1FEA1EC5BFF4F2080E45446
:14249000F0403324EB5BFF4F40805524542C44244228532817
:1424A4001201442455242D823E824F8258862D803E804F80D8
:1424B80058848894222032044204520409F03CC088E190E036
:1424CC00EDA1FEA1EB5AFF4F00811127222733278A930E9421
:1424E000294118012901EDA1FEA1EC5AFF4F6080E455F04031
:1424F4007724882499244301662477242628372848285928C9
:14250800ED5AFF4F6080E355F0407724762C662488249924B2
:14251C002628372848285928EE5AFF4F608077248824992493
:1425300026283728482859282D823E824F8258862D803E8070
:142544004F805884EDA1FEA1228E338E448E558EA6ACEA2C1D
:14255800A3828E2D813021F0823011F00DE0A3C32E2C332416
:14256C00442455240D811E812F8138855A924A923A922A9290
:142580000E9453400D831E832F833887EDA1FEA1A3ACEA2CDE
:14259400A282AA2029F08E2D81502E2C282211F00DE083C3C8
:1425A800EDA1FEA127AC3324E05CFF4F4080E054F0405524A1
:1425BC00542C44244228532851864086808591858F70907087
:1425D0008030890711F00DE06AC3EDA1FEA1EF5BFF4F208037
:1425E400E154F0403324EE5BFF4F40805524542C4424422805
:1425F80053281201442455242D863E864F86588A2D843E84BF
:14260C004F8458888894222032044204520409F03CC088E179
:1426200090E0EDA1FEA1EF5AFF4F00811127222733278A93F9
:142634000E94294118012901EDA1FEA1E05BFF4F6080E05578
:14264800F040772488249924430166247724262837284828C4
:14265C005928E15BFF4F6080EF54F0407724762C6624882499
:1426700099242628372848285928E25BFF4F60807724882449
:14268400992426283728482859282D863E864F86588AEDA12B
:14269800FEA124AC3324E5ACFF24FE2CEE24E228F328EE2045
:1426AC0021F4FF2011F40DE0FCC22D803E804F8058843701E8
:1426C00088249924620C731C841C951CEDA1FEA138962080B4
:1426D4003180369427943694279436942794369427944424C5
:1426E8005524620C731C841C951C6D8A7E8A8F8A988E2D8824
:1426FC003E884F88588C6D847E848F849888621473048404AE
:14271000950410F40DE0CBC22D883E884F88588C0D851E8533
:142724002F8538890219130924093509EDA1FEA132962080F5
:142738003324442455245A924A923A922A920E94AD3F0987E7
:14274C001A872B873C8729843A844B845C84889422203204B5
:142760004204520411F40DE0A2C2CC24C39446EF5FE060E078
:1427740070E029843A844B845C84241635064606570610F0C9
:1427880082E0C82E46EF5FEF60E070E029843A844B845C84B8
:14279C00241635064606570610F083E0C82E42E050E060E020
:1427B00070E029843A844B845C84240E351E461E571EEDA1BF
:1427C400FEA1769620823182428253822D883E884F88588C32
:1427D80069887A888B889C88620C731C841C951CEDA1FEA148
:1427EC00B696608271828282938217014424552469887A88B3
:142800008B889C88620C731C841C951CEDA1FEA1668E778E19
:1428140080A291A28C2D833009F055C020843184222011F441
:14282800332011F00DE03FC288E190E0EDA1FEA1E35AFF4FC9
:14283C0000811127222733278A930E94294118012901EDA132
:14285000FEA1E45AFF4F6080EC55F0407724882499244301B0
:14286400662477242628372848285928E55AFF4F6080EB55F0
:14287800F0407724762C66248824992426283728482859284E
:14288C00E65AFF4F6080EA55F04077248824992426283728AA
:1428A0004828592822A233A244A255A282E090E0769600815E
:1428B4001181228133818A930E942941098F1A8F2B8F3C8F38
:1428C8006AC0EDA1FEA120843184222021F4332011F40DE0B0
:1428DC00E8C12D803E804F805884EDA1FEA1668C778C80A0E7
:1428F00091A0620C731C841C951C62A273A284A295A28C2D26
:14290400823071F476962080318042805380220C331C441CD9
:14291800551C2D8E3E8E4F8E58A235C0EDA1FEA1769620800E
:14292C0031804280538029A23AA24BA25CA241E050E060E02E
:1429400070E029A03AA04BA05CA0242235224622572269A022
:142954007AA08BA09CA043E050E060E070E09A928A927A92B7
:142968006A928A019B010E9453403801490196948794779430
:14297C006794620C731C841C951C6D8E7E8E8F8E98A22D8CE7
:142990003E8C4F8C58A0298E3A8E4B8E5C8E4FEF51E060E0A5
:1429A40070E0098D1A8D2B8D3C8D040F151F261F371F89E0C6
:1429B80090E08A930E944241EDA1FEA1228C338C448C558C0E
:1429CC00201631064206530610F40DE06AC1EDA1FEA13E96CC
:1429E0008FEF8083818382838383EDA1FEA13A9680E08083F3
:1429F4008183828383838C2D833009F03CC12224EDA1FEA1EB
:142A08002582E25AFF4F2080EE55F0403324E15AFF4F4080D6
:142A1C005524542C44244228532812014424552469887A8879
:142A30008B889C88620C731C841C951CEDA1FEA1628A738AF7
:142A4400848A958A81E08C832288338844885588288239826E
:142A58004A825B829F01225D3F4F01810E94A902E02E002314
:142A6C0009F005C1EDA1FEA1E45DFD4F2080EC52F240332476
:142A8000E35DFD4F8081ED52F2409927982F882782299329A7
:142A94008535AAEA9A0709F0EEC088E190E001A91127222794
:142AA80033278A930E94294118012901EDA1FEA160A8772484
:142ABC0088249924430166247724262837284828592867A48B
:142AD0007724762C662488249924262837284828592866A41A
:142AE400772488249924262837284828592842E552E561E697
:142AF80071E4241635064606570609F0BAC088E190E0EB5EC2
:142B0C00FD4F00811127222733278A930E94294118012901A1
:142B2000EDA1FEA1EC5EFD4F6080E451F24077248824992493
:142B34004301662477242628372848285928ED5EFD4F60800F
:142B4800E351F2407724762C662488249924262837284828C6
:142B5C005928EE5EFD4F6080E251F2407724882499242628B5
:142B700037284828592842E752E761E471E624163506460642
:142B8400570609F078C088E190E0E35EFD4F00811127222747
:142B980033278A930E94294118012901EDA1FEA1E45EFD4FA8
:142BAC006080EC51F24077248824992443016624772426280B
:142BC000372848285928E55EFD4F6080EB51F2407724762C97
:142BD4006624882499242628372848285928E65EFD4F6080EC
:142BE800EA51F2407724882499242628372848285928228622
:142BFC0033864486558688E190E0E75EFD4F008111272227FB
:142C100033278A930E94294118012901EDA1FEA1E85EFD4F2B
:142C24006080E851F240772488249924430166247724262896
:142C3800372848285928E95EFD4F6080E751F2407724762C1E
:142C4C006624882499242628372848285928EA5EFD4F60806F
:142C6000E651F24077248824992426283728482859282686A9
:142C74003786408A518AEDA1FEA1C082809104059091050536
:142C880001966C01D0920505C0920405D782C682BA9680E01C
:142C9C0080838183828383832224EDA1FEA124820027A79695
:142CB0000E949C40229608950E94B2405901A80140304507EA
:142CC40049F0FA012080222029F0268037802A143B0411F0F2
:142CD80009E009C0FA0101810E94A30200FF02C003E001C00D
:142CEC0000270C94B740AA92BA92013010F00BE022C086E02A
:142D000095E0E02FFF27EE0FFF1FE80FF91FA080B180AA20D0
:142D140011F4BB2019F02224F50120822030230719F022241B
:142D2800F901208286E095E0E02FFF27EE0FFF1FE80FF91FC1
:142D3C00318320830027B990A99008950E94623F0E94A7401A
:142D5000AC9722243324EEA9FFA9318220828AAD8F718AAF8B
:142D640099278E7F88839E012E5F3F4F8E01085C1F4FA6DAE8
:142D7800A02ECE0148969F8B8E8B002339F428AD39AD8E01EF
:142D8C000E5F1F4F4DD9A02EEC88FD88AA2031F4EE2021F459
:142DA000FF2011F486E0A82E8AAD8C7109F4C0C0AA2081F0D3
:142DB4008A2D843039F48E010E5F1F4F0E94080EC02EAC2C8B
:142DC8008AAD88608AAFEC88FD880CC0F7018385817119F0DF
:142DDC0087E0A82E05C00AAC02FE02C088E0A82EAA2009F068
:142DF000B1C00AAC03FEAEC00E94E6020CA31DA32EA33FA38D
:142E04002CA03DA04EA05FA0F7012686232C33243F96208263
:142E18002CA03DA04EA05FA0120144245524F701709620827C
:142E2C0088E190E00CA11DA12EA13FA18A930E944241F70165
:142E4000018B22242386248E258E268E278E228C3324438C61
:142E54005524542C44244228532812014424552464887724A9
:142E6800759680809924982C88248628972834018824992413
:142E7C00430166247724622873288428952868A679A68AA6EE
:142E90009BA62224F701228E238E248A258A81E0EA81FB81A9
:142EA4003496808328A439A44AA45BA48894222032044204DD
:142EB800520409F44BC0EA81FB8122A433A444A455A42CA275
:142ECC003DA24EA25FA228A439A44AA45BA448825982910155
:142EE0000A811B810E941C08C02EAC2C002391F541E050E031
:142EF40060E070E028A439A44AA45BA4241A350A460A570A76
:142F0800EA81FB8122863386448655862CA03DA04EA05FA032
:142F1C004882598291010A811B810E944403C02EAC2C12C0C2
:142F3000AA2081F4F701238424FE03C084E0A82E09C00AAC11
:142F440001FE06C0F701238420FE02C087E0A82EAA20A1F499
:142F58000AAC03FE03C0802D80628AAFEA81FB8122A433A49F
:142F6C0044A455A4EEA9FFA9228E338E448E558EF78EE68E12
:142F8000AA2009F077C0EEA9FFA90AAC0482F701228C3324CB
:142F9400438C5524542C442442285328120144245524648834
:142FA800772485889924982C88248628972834018824992435
:142FBC004301662477246228732884289528EEA9FFA96686DF
:142FD0007786808A918A88E190E0F701078D1127222733278B
:142FE4008A930E94294118012901F701668C7724882499247F
:142FF8004301662477242628372848285928658C7724762C90
:14300C006624882499242628372848285928648C77248824E8
:1430200099242628372848285928EEA9FFA9228633864486D7
:143034005586369680E08083818382838383EEA9FFA9769624
:1430480080E0808381838283838322243324EEA9FFA931A253
:14305C0020A22A803B8031822082F10126803780EEA9FFA956
:14307000338222820A2DAC960E949C40249608950E94623F62
:143084000E94A74059016197750180E092E0998388832227A5
:14309800332785010E943E3F22243324E9A1FAA1318220820E
:1430AC00EB8DFC8D2281338100811181FFDDA02E002309F0DF
:1430C00045C2EB8DFC8D248027FE02C002E03EC2EB8DFC8D86
:1430D400248020FC02C007E037C2EB8DFC8D26803780408464
:1430E80051843A96608071808280938062187308840895082B
:1430FC006D867E868F86988A2D843E844F8458886F8C78A059
:1431100088249924261437044804590408F00DC238A22F8EC6
:143124000AC24FEF51E060E070E0EB8DFC8D369620803180AE
:14313800428053802422352246225722889422203204420496
:14314C00520409F080C189E090E0EB8DFC8D06811781208541
:1431600031858A930E94424118012901EB8DFC8DAF93BF938B
:14317400A081B181FD01BF91AF918281992701973C01882422
:1431880077FC8094992487FC90942620372048205920C22CDC
:14319C00222009F078C0EB8DFC8D36962080318042805380F9
:1431B0008894222032044204520461F4EB8DFC8D3E96208011
:1431C40031804280538029863A864B865C8628C0EB8DFC8DA6
:1431D80020A031A0222011F4332079F0268037804084518459
:1431EC004882598291018F010E94470A09871A872B873C876F
:1432000011C0EB8DFC8D2288338844885588488259829101A3
:14321400008111810E940D0509871A872B873C8742E050E0E7
:1432280060E070E029843A844B845C842416350646065706CA
:14323C0048F48B8D9C8D0496FC0180818068808302E07EC15D
:143250004FEF5FEF6FEF7FEF29843A844B845C842416350683
:143264004606570651F48B8D9C8D04965C01FC01808180684A
:14327800808301E067C129843A844B845C84EB8DFC8D228A6F
:14328C00338A448A558AEB8DFC8D22883388448855884882EB
:1432A00059829101008111810E94BB040D831E832F83388797
:1432B4002D803E804F8058848894222032044204520451F47B
:1432C8008B8D9C8D04965C01FC0180818068808302E038C1F6
:1432DC002C2C3324442455246D807E808F809884620C731C3B
:1432F000841C951C6D827E828F82988629E030E00F8D18A1ED
:143304000E943B4158010030010709F496C02C2C3324200ED6
:14331800311EEB8DFC8DAF93BF93A081B181FD01BF91AF91DC
:14332C00428055244214530478F42C2C3324EB8DFC8DAF9347
:14334000BF93A081B181FD01BF91AF91A280BB24A218B308D0
:14335400AC822D803E804F805884288239824A825B8297017B
:14336800EB8DFC8DAF93BF93A081B181FD01BF91AF91018159
:14337C000E94A902C02E002351F08B8D9C8D04966C01FC0159
:1433900080818068808301E0D9C0EB8DFC8DC080D180F6013A
:1433A40034962080222009F441C02D803E804F805884F6015E
:1433B80062A473A484A495A4621873088408950815014424E7
:1433CC005524621473048404950460F580E092E09983888318
:1433E000EB8DFC8DC080D1809601225D3F4F2D803E804F8069
:1433F4005884F60162A473A484A495A4621873088408950856
:1434080040E052E060E070E02F933F939A928A927A926A92EA
:14341C008A019B010E9453403F912F910E0D1F1D0E94EB02CA
:1434300000E012E095010E94434068015AC02D803E804F803E
:143444005884EB8DFC8D268A378A408E518E4FEF51E060E0CA
:1434580070E0EB8DFC8D268037804084518424223522462214
:14346C00572240E052E060E070E042195309640975096A01E4
:143480000F8C18A00416150608F46001EB8DFC8D26883788E5
:14349400408C518C488259829101008111810E944403A02E7A
:1434A800002351F08B8D9C8D04965C01FC018081806880838B
:1434BC0001E046C0D982C8824FEF51E060E070E0EB8DFC8D70
:1434D0002680378040845184242235224622572291018081E1
:1434E40091818E96280F391F87010E94EB02EC0CFD1C8B8DCF
:1434F8009C8D06965C01160144245524FC01608071808280D6
:14350C009380620C731C841C951C6082718282829382E9A1D2
:14352000FAA1208031802C0C3D1C318220820F8C18A00C184E
:143534001D0818A20F8E0F8C18A0002009F0F1CD112009F0B3
:14354800EECD002761960E949C40249608950E94623F0E94DC
:14355C00A74059016197750122243324E9A1FAA13182208295
:14357000EB8DFC8D22813381008111819DDBA02E002309F07A
:14358400FCC2EB8DFC8D248027FE02C002E0F5C2EB8DFC8D4F
:14359800248021FC02C007E0EEC2EB8DFC8D3A9620803180E3
:1435AC00428053802D863E864F86588A2F8C38A044245524D4
:1435C0006D847E848F849888620C731C841C951C2D843E8410
:1435D4004F845888621473048404950408F0A5C2002411246A
:1435E80018A20F8EA0C24FEF51E060E070E0EB8DFC8D36964A
:1435FC002080318042805380242235224622572288942220F9
:1436100032044204520409F00BC289E090E0EB8DFC8D0681AD
:143624001781208531858A930E94424118012901EB8DFC8D19
:14363800AF93BF93A081B181FD01BF91AF91828199270197AE
:14364C003C01882477FC8094992487FC909426203720482091
:143660005920C22C222009F0A5C0EB8DFC8D36962080318031
:14367400428053808894222032044204520471F5EB8DFC8D16
:143688003E96208031804280538029863A864B865C862984A5
:14369C003A844B845C848894222032044204520409F040C084
:1436B00040E050E060E070E0688379839A01EB8DFC8D008122
:1436C40011810E94CF0809871A872B873C87EB8DFC8D0687B3
:1436D8001787208B318B28C0EB8DFC8D20A031A0222011F418
:1436EC00332079F026803780408451844882598291018F0151
:143700000E94470A09871A872B873C8711C0EB8DFC8D2288A0
:14371400338844885588488259829101008111810E94CF087A
:1437280009871A872B873C8729843A844B845C84889422206F
:14373C0032044204520409F4FCC141E050E060E070E029845F
:143750003A844B845C84241635064606570649F48B8D9C8D5C
:143764000496FC0180818068808302E006C24FEF5FEF6FEF3A
:143778007FEF29843A844B845C84241635064606570651F452
:14378C008B8D9C8D04965C01FC0180818068808301E0EFC177
:1437A00029843A844B845C84EB8DFC8D228A338A448A558AE4
:1437B400EB8DFC8DA080B18026883788408C518CF50162A49D
:1437C80073A484A495A46214730484049504B9F440E050E06A
:1437DC0060E070E0688379839A018F010E944403A02E00235D
:1437F00051F08B8D9C8D04965C01FC0180818068808301E082
:14380400BCC1EB8DFC8D2288338844885588488259829101ED
:14381800008111810E94BB040D831E832F8338872D803E801B
:14382C004F8058848894222032044204520451F48B8D9C8D27
:1438400004965C01FC0180818068808302E097C12C2C3324AB
:14385400442455246D807E808F809884620C731C841C951C1B
:143868006D827E828F82988629E030E00F8D18A10E943B41A2
:14387C0058010030010709F497C02C2C3324200E311EEB8DAF
:14389000FC8DAF93BF93A081B181FD01BF91AF9142805524EB
:1438A4004214530478F42C2C3324EB8DFC8DAF93BF93A08192
:1438B800B181FD01BF91AF91A280BB24A218B308AC822D80EB
:1438CC003E804F805884288239824A825B829701EB8DFC8DD8
:1438E000AF93BF93A081B181FD01BF91AF9101810E94C90270
:1438F400C02E002351F08B8D9C8D04966C01FC018081806840
:14390800808301E038C12D803E804F805884EB8DFC8DA08196
:14391C00B1819A966D907D908D909C906218730884089508C4
:14393000150144245524621473048404950408F032C080E034
:1439440092E099838883C080D1802D803E804F805884F60138
:1439580062A473A484A495A4621873088408950840E052E06D
:14396C0060E070E09A928A927A926A928A019B010E9453400B
:1439800098012E0D3F1D8601025D1F4F0E94EB022224EB8D62
:14399400FC8DAF93BF93A081B181FD01BF91AF91248200E09B
:1439A80012E095010E944340680199C0EB8DFC8D228433843E
:1439BC00448455846680778080849184621473048404950452
:1439D00028F140E050E060E070E0688379839A010081118155
:1439E4000E944403A02E002351F08B8D9C8D04965C01FC017F
:1439F80080818068808301E0BEC02D803E804F805884EB8DE2
:143A0C00FC8DA081B1819A962D923D924D925C922D803E80D4
:143A20004F805884EB8DFC8D268A378A408E518E4FEF51E059
:143A340060E070E0EB8DFC8D2680378040845184242235225A
:143A48004622572240E052E060E070E0421953096409750905
:143A5C006A010F8C18A00416150608F46001EB8DFC8D268857
:143A70003788408C518C488259829101008111810E944403A7
:143A8400A02E002351F08B8D9C8D04965C01FC0180818068DE
:143A9800808301E070C0D982C88297014FEF51E060E070E0CA
:143AAC00EB8DFC8D2680378040845184242235224622572291
:143AC0008101808191818E96080F191F0E94EB0281E0EB8D82
:143AD400FC8DAF93BF93A081B181FD01BF91AF918483EC0CE1
:143AE800FD1C8B8D9C8D06965C01160144245524FC016080A2
:143AFC00718082809380620C731C841C951C60827182828289
:143B10009382E9A1FAA1208031802C0C3D1C318220820F8C95
:143B240018A00C181D0818A20F8E0F8C18A0002009F05BCDA1
:143B3800112009F058CDEB8DFC8D2284338444845584668045
:143B4C00778080849184261437044804590440F426803780A6
:143B60004084518422863386448655868B8D9C8D04965C017A
:143B7400FC01808180628083002761960E949C402496089567
:143B88000E94E240A8012697FA0122813381008111818ED834
:143B9C00A02E002309F09FC0FA01248025FE9BC0228C338C42
:143BB000448C558C488259829101008111810E944403A02E4F
:143BC400002309F08CC0FA01668D778DCB010B96FC01808128
:143BD80080628083FA012284338444845584FB01248EFA0152
:143BEC0022843384232C3324FB01258EFA01228433844484F3
:143C00005584120144245524FB01268E88E190E0FA010285D8
:143C14001385248535858A930E944241FB01078FFA01268428
:143C2800378440885188FB01228EFA0126843784232C33247A
:143C3C00FB01238EFA012684378440885188120144245524D2
:143C5000FB01248AFA0126843784408851881201232C3324FC
:143C6400FB01258A0E94E6020A831B832C833D832A803B8018
:143C78004C805D80FB01268A232C3324779620822A803B8029
:143C8C004C805D80120144245524FB017896208288E190E002
:143CA0000A811B812C813D818A930E944241FB01018FBA01F5
:143CB4006C5F7F4FFB0180818F7D808381E0FA01AF93BF9367
:143CC800A081B181FD01BF91AF918483FA01008111810E9450
:143CDC00E603C02EAC2C0A2D26960C94EB400E94AD4068016F
:143CF00086014ADFA02E002329F422243324F6013182208219
:143D04000A2D0C9487400E94623F0E94A7406E97E8A5F9A511
:143D180022813381008111810E945C16A02E002309F0A7C4C4
:143D2C00E8A5F9A5248027FE02C002E0A0C4E8A5F9A5B09616
:143D400020803180222019F4332009F4E3C14FEF5FEF6FEFF1
:143D54007FEF2AA43BA44CA45DA4241635064606570609F038
:143D680009C1E8A5F9A5E0A0F1A0F701219031904190519025
:143D7C007F012E8A3F8A488E598E82E08E8780E08F87888B75
:143D9000898BE8A5F9A53E9620803180428053802A823B82BD
:143DA4004C825D822A803B804C805D80889422203204420476
:143DB800520409F4BBC02A803B804C805D802A8A3B8A4C8ACC
:143DCC005D8A80E08A878B878C878D8742E050E060E070E070
:143DE0002E843F8448885988240E351E461E571E2E863F86D2
:143DF400488A598A2A803B804C805D802E823F8248865986DA
:143E080041E050E060E070E02A843B844C845D84240E351E22
:143E1C00461E571E2A863B864C865D862A803B804C805D8085
:143E3000488259829101E8A5F9A5008111810E940D050A83C8
:143E44001B832C833D8341E050E060E070E02A803B804C804B
:143E58005D80421553056405750548F088A599A50496FC01AD
:143E6C0080818068808302E002C44FEF5FEF6FEF7FEF2A80AC
:143E80003B804C805D80241635064606570651F488A599A5FC
:143E940004966C01FC0180818068808301E0EBC341E050E04A
:143EA80060E070E02E803F8048845984240E351E461E571E02
:143EBC006A807B808C809D80621473048404950409F494CF76
:143ED0002E883F88488C598C6E847F8488889988261437040D
:143EE4004804590490F02A843B844C845D84F7012192319215
:143EF800419251922A883B884C885D882192319241925192A6
:143F0C007F01E8A5F9A5A081B18156962D903D904D905C9064
:143F20006A807B808C809D80621473048404950408F445CF61
:143F34002E843F8448885988E8A5F9A5B096A081B1812D92D0
:143F48003D924D925C922E883F88488C598C6E847F8488888E
:143F5C009988261437044804590438F0F70180E0808381838B
:143F70008283838381C381E1A82E7EC3E8A5F9A53A962080DA
:143F84003180428053806AA47BA48CA49DA426143704480484
:143F9800590458F4E8A5F9A53A9620803180428053802AA6BB
:143FAC003BA64CA65DA62AA43BA44CA45DA4E8A5F9A5369696
:143FC00020823182428253828894222032044204520409F4D2
:143FD40051C341E050E060E070E0241A350A460A570A4882EC
:143FE8005982910108A519A50E94470AE8A5F9A5028B138BA4
:143FFC00248B358B228833884488558848825982910100817C
:1440100011810E94BB040A8F1B8F2C8F3D8F2A8C3B8C4C8C8A
:144024005D8C8894222032044204520451F488A599A5049625
:144038007C01FC0180818068808302E01AC341E050E060E0BE
:14404C0070E00AA51BA52CA53DA5041B150B260B370B89E0D3
:1440600090E08A930E94424118012901E8A5F9A5AF93BF9398
:14407400A081B181FD01BF91AF9132968081992701973C01F9
:14408800882477FC8094992487FC909426203720482059200F
:14409C006A8C7B8C8C8C9D8C620C731C841C951C6A8E7B8E83
:1440B0008C8E9D8E4FEF51E060E070E0E8A5F9A53696208021
:1440C400318042805380242235224622572288942220320490
:1440D8004204520409F4CCC2E8A5F9A5769620803180428063
:1440EC0053806A8C7B8C8C8C9D8C621473048404950409F4A4
:14410000BBC213012401E8A5F9A5268A378A408E518EB2C238
:14411400E8A5F9A53A9620803180428053806AA47BA48CA459
:144128009DA4261437044804590470F4E8A5F9A5248021FCD4
:14413C0009C03A9620803180428053802AA63BA64CA65DA64A
:14415000E8A5F9A5369620803180428053802E863F86488A33
:14416400598A80E08A878B878C878D87E8A5F9A5369680E063
:1441780080838183828383832AA43BA44CA45DA48894222025
:14418C0032044204520409F426C2E8A5F9A5AF93BF93A08188
:1441A000B181FD01BF91AF913296208033244424552440E08B
:1441B40052E060E070E05A924A923A922A928A019B010E941C
:1441C80053400E831F83288739872E843F844888598888946C
:1441DC00222032044204520409F475C041E050E060E070E0A8
:1441F00081019201041B150B260B370B2E803F8048845984DE
:144204005A924A923A922A920E94AD3F1801290141E050E034
:1442180060E070E00AA51BA52CA53DA5041B150B260B370B2E
:14422C006E807F80888499849A928A927A926A920E94AD3F8A
:14424000021513052405350508F443C041E050E060E070E0F8
:144254002E803F8048845984241A350A460A570A209430949A
:144268004094509441E050E060E070E06E847F848888998883
:14427C00641A750A860A970A6220732084209520E8A5F9A567
:144290006682778280869186369620803180428053806AA45C
:1442A4007BA48CA49DA462187308840895086AA67BA68CA6F5
:1442B8009DA6E8A5F9A5729620803180428053802A823B822D
:1442CC004C825D8269C0E8A5F9A53E96208031804280538023
:1442E0002A823B824C825D822A803B804C805D808894222048
:1442F40032044204520409F049C040E050E060E070E0688317
:1443080079839A01E8A5F9A5008111810E94CF080A831B8328
:14431C002C833D8341E050E060E070E02A803B804C805D802F
:14433000241635064606570651F488A599A504967C01FC0197
:1443440080818068808302E096C14FEF5FEF6FEF7FEF2A803E
:144358003B804C805D80241635064606570651F488A599A51F
:14436C0004967C01FC0180818068808301E07FC12A803B80B7
:144380004C805D80E8A5F9A526863786408A518A2A803B80E2
:144394004C805D80E8A5F9A5228A338A448A558A2A803B80C6
:1443A8004C805D808894222032044204520409F414C1A7C0EF
:1443BC00E8A5F9A53496208021FE24C02A803B804C805D8047
:1443D000488259829101E8A5F9A5008111810E94CF080A835E
:1443E4001B832C833D832A803B804C805D8088942220320416
:1443F80042045204D1F42E803F80488459842AA63BA64CA697
:14440C005DA68BC02A803B804C805D80488259829101E8A57C
:14442000F9A5008111810E940D050A831B832C833D834FEF4B
:144434005FEF6FEF7FEF2A803B804C805D802416350646068B
:14444800570651F488A599A504967C01FC0180818068808353
:14445C0001E00DC141E050E060E070E02A803B804C805D80AE
:14447000421553056405750590F4E8A5F9A5A081B1815696B8
:144484002D903D904D905C906A807B808C809D8062147304D6
:144498008404950450F088A599A504967C01FC018081806847
:1444AC00808302E0E4C02A803B804C805D80E8A5F9A5729632
:1444C000208231824282538288A599A506967C012E803F8009
:1444D40048845984FC016080718082809380620C731C841CAB
:1444E800951C60827182828293826AA47BA48CA49DA4621809
:1444FC007308840895086AA67BA68CA69DA62E803F80488429
:1445100059846AA47BA48CA49DA4261437044804590408F402
:144524004BCF88A599A506967C012AA43BA44CA45DA4FC014A
:144538006080718082809380620C731C841C951C6082718266
:14454C00828293824FEF51E060E070E02422352246225722C5
:144560008894222032044204520409F43AC02A803B804C80EF
:144574005D80488259829101E8A5F9A5008111810E94BB0480
:144588000A871B872C873D872A843B844C845D8488942220F9
:14459C0032044204520451F488A599A504967C01FC01808174
:1445B0008068808302E061C089E090E00AA51BA52CA53DA50E
:1445C4008A930E9442412A843B844C845D84200E311E421EA6
:1445D800531E2A863B864C865D864FEF51E060E070E0E8A5AC
:1445EC00F9A5369620803180428053802422352246225722ED
:1446000088942220320442045204C1F0E8A5F9A576962080EE
:144614003180428053806A847B848C849D84621473048404B9
:14462800950441F013012401E8A5F9A5268A378A408E518E32
:14463C00E8A5F9A5228433844484558466807780808491844B
:14465000261437044804590478F4268037804084518422862E
:14466400338644865586CF0104966C01FC018081806280832A
:144678000A2D6E960E949C40249608953A932A930E94C640EC
:14468C00B8012D97222428829B018E010D5E1F4F0E94621194
:1446A000402F002309F05CC0CE010196FB01958B848B2B891A
:1446B4003C898F010E941610402F002309F04BC0FB01228899
:1446C8003388222019F4332009F432C0AF93BF93A289B38997
:1446DC00FD01BF91AF91238424FE27C0FB01A288B388F50135
:1446F000228C3324438C5524542C4424422853281201442421
:1447040055246488772485889924982C8824862897283401C5
:14471800882499244301662477246228732884289528FB0131
:14472C00668277828086918601C045E0442379F4FB01A081A4
:14474000B18116962D903C9033822282222733278F010E94D0
:14475400C00AA02E4A2D443009F445E0042F2D960E94CD4007
:14476800229608950E94E2405901B8012C97FB0122813381FB
:14477C00008111810E945C16402F002309F035C0AA2049F47B
:14479000BB2039F4222733278B010E94C00A402F2AC0CE014A
:1447A400FB01958B848B8F010E94BD0DC02E4C2D043041F40A
:1447B800FB013E9680E0808381838283838344274423A9F43C
:1447CC0095018B010E94730F222733278B010E94CA0BA02E1F
:1447E0004A2D043041F4FB013E9680E08083818382838383A3
:1447F4004427042F2C960C94EB400150104081E090E080177D
:144808009107C8F308954A935A930AC041E050E002C04F5F57
:14481C005F4F8BEC94E084179507C8F71801015010402220FD
:1448300089F7332079F75991499108950E94AD40F8948FEF37
:144844008ABB8BBB87BB88BB84BB85BB8093640080936500E2
:144858000E94C2380E94722B0E94EC360E94E03802E310E01E
:14486C000E9407240E94E03801E00E94D6388AE08093CC07D0
:1448800080E08093CD078093CE078093CF0722242092D80735
:1448940084E190E09093DA078093D9072092DB0778940C9404
:1448A800874022242EBC2DBC2CBC2FBC86E48EBD0895EF9771
:1448BC00EF97EF97EF97EF97EF97EF97EF97679789E191E065
:1448D000FE01EF5FFD4F0EE010E0FA93EA939A938A930E9467
:1448E4004E41AA24BB24A8DF01E00E949F3503D18E010F5FD5
:1448F8001D4FCAD59E0140D21801442455243092630520921A
:14490C00620550926505409264050E94823504C000E41FE1A8
:144920000E940724FBCF0E944B2DC02EEC2C4E2D5527433062
:14493400E0E05E0769F04430E0E05E0761F04530E0E05E076D
:1449480059F04730E0E05E0759F00BC00E942F2E08C00E94F9
:14495C001E3205C08E010E94663401C00FD004E610E00E944B
:144970000724D9CFEF96EF96EF96EF96EF96EF96EF96EF9638
:1449840067960895629704EB10E00E942F400A831B832C83C2
:144998003D8301E412E00E940F3C04EF11E00E94072407E3EC
:1449AC0012E00E940F3C00270E94423E0A831B832C833D8335
:1449C000CE010696998388830A811B812C813D8165D4222440
:1449D4002C868E010A5F1F4F0E940F3C04EF11E00E94072419
:1449E8000EE212E00E940F3C01E00E94423E0A831B832C830F
:1449FC003D83CE010C96998388830A811B812C813D8146D4A3
:144A100022242A8A8E01045F1F4F0E940F3C04EF11E00E94C5
:144A2400072403E212E00E940F3C04EF11E00E9407240CE1F1
:144A380012E00E940F3C22E002E00E94853C04EF11E00E94BE
:144A4C0007240FE012E00E940F3CA79AAF9804E610E00E9459
:144A60000724A79AAF9A04E610E00E940724A79AAF9804E674
:144A740010E00E940724A79AAF9A04E610E00E940724A79AFF
:144A8800AF9804E610E00E940724A79AAF9A04E610E00E9426
:144A9C00072404EF11E00E94072406E012E00E940F3CAD9A1E
:144AB00004E610E00E940724AD9804E610E00E940724AD9A18
:144AC40004E610E00E940724AD9804E610E00E94072403E068
:144AD80012E00E940F3C04EF11E00E9407240AEF11E00E94AE
:144AEC000F3C04EF11E00E940724629608950E94AD40EF9710
:144B0000EF97EF97EF97EF97EF97EF97EF97EF97EF97EF9765
:144B1400AA9787E291E0FE01EF55FF4F0EE010E0FA93EA93F9
:144B28009A938A930E944E4185E391E0FE01B6960BE710E0F8
:144B3C00FA93EA939A938A930E944E4100270E948D02A02EBA
:144B50002A2D04EF11E077D59E012F543F4F00270E947916C2
:144B6400A02E2A2D0FEE11E06CD58E010F551F4F8DD46801BE
:144B780082E1888396018E010C5F1F4F0E94A416C02EAC2C9A
:144B8C002A2D09EE11E059D5CE0181559F4F9B838A838BE778
:144BA00090E0998388839E012A5D3F4F8E010C5F1F4F0E94AC
:144BB400AB1AC02EAC2C2A2D02EE11E042D58E010C5F1F4FAB
:144BC8000E94751E2227332700270E947916EF96EF96EF961A
:144BDC00EF96EF96EF96EF96EF96EF96EF96EF96AA960C94BD
:144BF0008740AA92CA92EF97EF97EF97EF97EF97EF97EF97A8
:144C0400EF97EF97E09780E08EA38FA388A789A700270E942E
:144C18008D029E01245D3F4F00270E9479168E01065A1D4F98
:144C2C0031D482E1888398018E010C5F1F4F0E94A4162E84F2
:144C40003F84488859882EA23FA248A659A62EA03FA048A4B5
:144C540059A44882598291018E010C5F1F4F0E94851ECE019C
:144C68008A969B838A8380E490E09983888328E035E08E0146
:144C7C000C5F1F4F0E94AB1AC02EAC2C8E010C5F1F4F0E9414
:144C9000751E2227332700270E947916EF96EF96EF96EF966E
:144CA400EF96EF96EF96EF96EF96E096C990A99008950E941C
:144CB800E2405901B801EF97EF97EF97EF97EF97EF97EF9709
:144CCC00EF97EF97AC978E010A5D1F4FDBD300270E948D021B
:144CE0009E012B5C3F4F00270E94791681E088839E012A5D22
:144CF4003F4F8E010C5F1F4F0E94A416402F043019F4AA24DC
:144D0800BB242EC09B012E5F3F4F00E410E00E944340180101
:144D1C00442455244882598291018E010C5F1F4F0E94851EBE
:144D3000C02ECE01C3969B838A8380E490E09983888395019D
:144D44008E010C5F1F4F0E944018A02E4A2D8E010C5F1F4F4C
:144D58000E94751E2227332700270E947916042FEF96EF96DA
:144D6C00EF96EF96EF96EF96EF96EF96EF96AC960C94EB4083
:144D80003A932A930E94A7405801EF97EF97EF97EF97EF9715
:144D9400EF97EF97EF97EF97A89780E08C838D838E838F8312
:144DA8000024DE01A25ABD4F0C92750180E0888789878A8748
:144DBC008B87AA24BB249E01205D3F4F00270E94791681E1C0
:144DD000888397018E01045F1F4F0E94A416C02E002311F05E
:144DE40011271EC12E883F88488C598C288639864A865B8650
:144DF80040E052E060E070E0288439844A845B844215530500
:144E0C006405750564F480E092E05C012E883F88488C598CF2
:144E2000288639864A865B8607C0AE88BF8880E0888789879D
:144E34008A878B871501442437FC4094552447FC50946E882C
:144E48007F88888C998C62187308840895088882998293013F
:144E5C008E01045F1F4F0E94851ECE018E969B838A83B98244
:144E7000A882FE01E759FD4F208131818E01045F1F4F0E9424
:144E84004018E02ECE2C8E01045F1F4F0E94751E4EC0F50121
:144E9800DE01A759BD4F0D901C90E00DF11D80818A3019F40F
:144EAC0000E40E940637F501DE01A759BD4F0D901C90E00D18
:144EC000F11D80818A3069F4FE01E25AFD4F0080002039F464
:144ED40000240394FE01E25AFD4F008225C0F501DE01A7594C
:144EE800BD4F0D901C90E00DF11D80818A30D1F4DE01A25A0B
:144EFC00BD4F8C918130A1F480E092E01C012A183B08442457
:144F10005524688479848A849B8462187308840895086886F2
:144F240079868A869B8609C0C50101975C01AA2009F0AFCF84
:144F3800BB2009F0ACCF46E750E060E070E0288439844A84F2
:144F4C005B84241635064606570634F401E010E063C0C50172
:144F600001965C01F501DE01A759BD4F0D901C90E00DF11D24
:144F7400E080FF2480E38E1580F78E2D893368F72FC0F5016E
:144F8800DE01A759BD4F0D901C90E00DF11D80819927C097CE
:144F9C001C01442437FC4094552447FC50946C807D808E80DE
:144FB0009F804AE050E060E070E09A928A927A926A928A0109
:144FC4009B010E94534038014901620C731C841C951C6C8249
:144FD8007D828E829F82C50101965C01F501DE01A759BD4FFA
:144FEC000D901C90E00DF11DE080FF248E2D843731F08033A0
:1450000020F089E38E1508F0BECF41E050E060E070E02C806B
:145014003D804E805F80240E351E461E571E8101EF96EF9634
:14502800EF96EF96EF96EF96EF96EF96EF96A8960E949C4015
:14503C00229608950E94AD402297CFB6F8942DB5332700E096
:1450500011E00E94434058012CB43324A20CB31CCFBE789490
:1450640085010E9401421801290100EB10E00E942F403A93D1
:145078002A931A930A93810192010E942E4210938C0500932F
:14508C008B0530938E0520938D0501E00E94423E10938205B8
:1450A00000938105309384052093830520918D0530918E05C5
:1450B40000918B0510918C0528D2180129010CEA10E00E94D0
:1450C8002F403801490108EA10E00E942F405A924A923A925B
:1450DC002A920E94A8431801290104EA10E00E942F403A9378
:1450F0002A931A930A93810192010E94D0418BE895E09A93C8
:145104008A930E94E641830194010E94A8431801290100EADE
:1451180010E00E942F4081E895E09A938A930E94E64181010F
:14512C0092010E94A8431093950500939405309397052093D4
:1451400096050CE910E00E942F401801290108E910E00E9404
:145154002F4084E995E09A938A930E94B343810192010E945D
:14516800DB4110939F0500939E053093A1052093A005409009
:14517C0083055090840520908105309082053101420104E94F
:1451900010E00E942F403A932A931A930A93830194010E947B
:1451A400DB413801490108EA10E00E942F403A932A931A932E
:1451B8000A93830194010E942E428BE895E09A938A930E9447
:1451CC00B343810192010E94D0411093A9050093A8053093BD
:1451E000AB052093AA058FE895E09983888320918D05309192
:1451F4008E0500918B0510918C054ED085E895E0998388839A
:145208002091830530918405009181051091820541D088E94E
:14521C0095E09983888320919605309197050091940510916E
:14523000950534D082EA95E0998388832091A0053091A10507
:1452440000919E0510919F0527D08CEA95E099838883209123
:14525800AA053091AB050091A8051091A9051AD08AE090E0D1
:14526C0099838883209162053091630506E615E00E94D94327
:14528000222420928B052092940520929E052092A8052092E1
:14529400B20522960C9487400E94623F0E94A9402497E88837
:1452A800F988CE010296998388830C851D852E853F850E9497
:1452BC00FC4468010E94563F402FAA2423C0EA2DFF27EC0DA8
:1452D000FD1D2080EA2DFF27EE0DFF1D2082EA2DFF27EC0DE4
:1452E400FD1D80818E3289F4EA2DFF27EC0DFD1D2180EA2D56
:1452F800FF27EE0DFF1D2182EA2DFF27EE0DFF1D2224228284
:14530C0003C0A394A416D8F224960E949340249608950E94E7
:14532000AD405901680122978AE090E09983888396018501F2
:145334000E94D94322960C948740AA92689780EB91E0FE0172
:14534800709608E010E0FA93EA939A938A930E944E4188EB7B
:14535C0091E0FE0100E110E0FA93EA939A938A930E944E4177
:14537000AA2409C088E095E0EA2DFF27E80FF91F2224208281
:14538400A39480E58A15A0F7AA2414C0CE01EA2DFF27EE0F98
:14539800FF1FE80FF91F2081318108E015E00E94493F2FE06B
:1453AC0031E008E015E00E94493FA39487E08A1548F72090A9
:1453C000B2053888320C388A2090B305320C3A8A2090B4058F
:1453D4003888320C3C8A2090B5053888320C3E8A9E01205FB3
:1453E8003F4F08E015E00E94493F22E131E008E015E00E9489
:1453FC00493F2FED31E008E015E00E94493F6896A99008950D
:145410000E94A940EF97A1974427EE2488EC91E0FE0100E1FD
:1454240010E0FA93EA939A938A930E944E41CE01EE2DFF27EF
:14543800EE0FFF1FE80FF91FA080B180CE0140966C011DC0F6
:14544C00F60180818A3021F42224F501208216C0F6018081D9
:14546000893059F4E394CE01EE2DFF27EE0FFF1FE80FF91F81
:14547400A080B1804427F601D50101906F010D925D01E2CFEC
:14548800EF96A1960C9493400E94BC4044270DC08EE695E022
:14549C00E42FFF27E80FF91F2080E42FFF27E00FF11F20823A
:1454B0004395463088F3242E33244F5FE22DFF27E00FF11F94
:1454C4008EE28083242E33244F5FE22DFF27E00FF11F88E767
:1454D8008083642F77274F5FE62FFF27E00FF11F8CE680832F
:1454EC00642F77274F5FE62FFF27E00FF11F83E78083E42F13
:14550000FF27E00FF11F222420820C94C1400E94623F0E9404
:14551400BC40609700E910E00E942F400C871D872E873F87F4
:145528000CE810E00E942F40CE0144969A938A930E949E4304
:14553C00088719872A873B872C883D884E885F88288239821E
:145550004A825B82FE0120803180428053802C823D824E827C
:145564005F822C803D804E805F8055944794379427944FEDB6
:1455780059E567E37FE542195309640975094C835D836E83F1
:14558C007F83FE0134962080318042805380288239824A8229
:1455A0005B82288039804A805B806C847D848E849F84088561
:1455B40019852A853B85CE019A938A930E949E43CE019A933E
:1455C8008A930E94B343830194010E94F341810192010E9474
:1455DC00A843088319832A833B83288039804A805B806C8448
:1455F0007D848E849F84088519852A853B85CE019A938A93BE
:145604000E949E43CE019A938A930E94B343830194010E94A3
:14561800F341810192010E94A843088319832A833B830C8981
:14562C001D892E893F89CE019A938A930E949E4360960E9411
:14564000C140249608950E94AD40A22E6801249788ED91E095
:14565400FE0104E010E0FA93EA939A938A930E944E410CEDF1
:1456680011E00E94383786010E9438370A2D0E94A238249627
:14567C000C9487400E94BC40A80166277727C09A0E94D0383D
:14569000C098FA0100810E94CC38FA0101810E94CC38FA016E
:1456A40002810E94CC38FA0103810E94CC38FA0104810E9482
:1456B800CC38FA0105810E94CC380E94D038402F55276F5F50
:1456CC007F4F4F3FE0E05E0721F46431E0E07E0790F3042FA4
:1456E0000C94C1400E94C6402697442766278AE492E0FE01D9
:1456F40006E010E0FA93EA939A938A930E944E4181B18695FA
:145708008695869586958695817021F481E090E05C0102C02B
:14571C00AA24BB24AA2021F4BB2011F402E039C0C09AB89A86
:145730000E94C23882E58DB98EB18F7F8EB9C09A442703C000
:145744000E94D03843954A30D8F3C09844278E0195DF602F35
:145758004395443119F4C09A01E01DC06130A9F7C09A0E949E
:14576C00D038C09881E488838FEF8D8344278E0181DF602FE2
:145780004395443119F4C09A02E009C06623A9F780E58DB9E2
:14579400709AC09A0E94D038002726960C94CD400E94623F20
:1457A8000E94E2402697AA88BB884427CC246627772780E50C
:1457BC0092E0FE0106E010E0FA93EA939A938A930E944E410D
:1457D00089E090E00E851F85288939898A930E9429410E8784
:1457E4001F87288B398B88E190E00E851F85288939898A93F4
:1457F8000E94424109832E843F8448885988120144245524D2
:14580C002A8288E090E00E851F85288939898A930E94424118
:145820000B83C0988E012CDF402FC3948C2D843119F4C09A59
:14583400112737C04423A1F76627772704C00E94D0386F5FCB
:145848007F4F6436E0E07E07C0F30EEF0E94CC38662777271E
:14585C0007C0F50101915F010E94CC386F5F7F4F6030E2E0F5
:145870007E07A8F30E94D0380E94D0380E94D038402F842FE4
:145884008F71853021F0C09A03E010E00AC00E94D038402F3A
:145898000F3FD9F7C09A0E94D0380027112726960E94EB40F2
:1458AC00249608950E94623F0E94E2402697AA88BB884427ED
:1458C00055276627CC2486E592E0FE0106E010E0FA93EA931F
:1458D4009A938A930E944E4189E090E00E851F8528893989C2
:1458E8008A930E9429410E871F87288B398B88E190E00E8565
:1458FC001F85288939898A930E94424109832E843F8448886E
:1459100059881201442455242A8288E090E00E851F85288942
:1459240039898A930E9442410B83C0988E01A6DEC02E63958C
:14593800643121F4C09A04E010E01FC0CC20A1F70E94D03876
:14594C000E3FE1F74427552709C00E94D038C02EFA01EA0DE8
:14596000FB1DC0824F5F5F4F4030E2E05E0798F30E94D038B1
:145974000E94D038C09A0E94D0380027112726960E94EB4089
:14598800249608950E94623F0E94A7402697AE88BF88E88C3A
:14599C00F98C442755276627CC248CE592E0FE0106E010E056
:1459B000FA93EA939A938A930E944E4189E090E00889198952
:1459C4002A893B898A930E942941088B198B2A8B3B8B88E114
:1459D80090E0088919892A893B898A930E9442410983288823
:1459EC0039884A885B881201442455242A8288E090E0088928
:145A000019892A893B898A930E9442410B83C0988E0136DEAE
:145A1400C02E6395643121F4C09A04E010E034C0CC20A1F748
:145A28000E94D0380E3FE1F74427552704C00E94D0384F5F98
:145A3C005F4F4A155B05C8F30BC00E94D038602FFA010C889B
:145A50001D88E00DF11D60834F5F5F4F15012E0C3F1C421561
:145A6400530578F304C00E94D0384F5F5F4F4030E2E05E070A
:145A7800C0F30E94D0380E94D038C09A0E94D03800271127B0
:145A8C0026960E949C40249608954A936A932397662743E031
:145AA0000E94B03981E08A8388E0888321E001E00E943A3A8E
:145AB40081E08A8388E0888322E001E00E943A3A81E08A8396
:145AC80088E0888323E001E00E943A3A81E08A8388E088837C
:145ADC0024E001E00E943A3A8FEC94E09983888321E002E0C2
:145AF0000E940A398EEB94E09983888321E003E00E940A39E0
:145B040085EB94E09983888321E004E00E940A3981E08A834A
:145B180088E0888321E001E00E943A3A81E08A8388E088832D
:145B2C0022E001E00E943A3A81E08A8388E0888323E001E0A7
:145B40000E943A3A81E08A8388E0888324E001E00E943A3A5F
:145B54002227042F0E94CC3A7BC00E94F93E602F01E0EBD7D3
:145B68003BD41983088321E001E00E940A3983E08417F8F442
:145B7C006E31E9F481E08A8388E0888322E001E00E943A3ABF
:145B900081E08A8388E0888323E001E00E943A3A81E08A83B8
:145BA40088E0888324E001E00E943A3A4A952227042F0E9482
:145BB800CC3A473038F56D3129F581E08A8388E0888321E091
:145BCC0001E00E943A3A81E08A8388E0888322E001E00E9468
:145BE0003A3A81E08A8388E0888323E001E00E943A3A81E001
:145BF4008A8388E0888324E001E00E943A3A43952227042FCE
:145C08000E94CC3A6B3111F581E08A8388E0888321E001E07B
:145C1C000E943A3A81E08A8388E0888322E001E00E943A3A84
:145C300081E08A8388E0888323E001E00E943A3A81E08A8317
:145C440088E0888324E001E00E943A3A042F01C084CF2396DE
:145C58006991499108950E94A740299700240F820886AA246D
:145C6C0080E08B838C838D838E83E090D8070E94B0398AEA38
:145C800094E09983888321E001E00E940A3985EA94E09983AF
:145C9400888323E002E00E940A3980EA94E09983888323E01F
:145CA80003E00E940A398E2D813089F422242A8288E08883D2
:145CBC0022E001E00E943A3A81E08A8388E0888323E001E016
:145CD0000E943A3A5BC081E08A8388E0888322E001E00E9429
:145CE4003A3A22242A8288E0888323E001E00E943A3A4AC0CF
:145CF8000E94F93EC02E8C2D0E3111F00D3139F580E08E1569
:145D0C0090F4EE2422242A8288E0888322E001E00E943A3A8F
:145D200081E08A8388E0888323E001E00E943A3A12C0EE24B0
:145D3400E39481E08A8388E0888322E001E00E943A3A2224C4
:145D48002A8288E0888323E001E00E943A3A8C2D8B3199F42C
:145D5C00E092D80781E08A8388E0888322E001E00E943A3A08
:145D700081E08A8388E0888323E001E00E943A3A06C08C2DC5
:145D8400873109F417C1CC24B5CF00240394088610C10E944E
:145D9800F93EC02E002321F021E000270E94853C8C2D8731A2
:145DAC0069F5002408860E94B0390E947E3987E994E09983EF
:145DC000888325E004E00E940A3908EC10E00E94072484E9D8
:145DD40094E09983888327E004E00E940A3908EC10E00E94CA
:145DE800072484E994E09983888328E004E00E940A3904EFB0
:145DFC0011E00E9407240E94B03939CF8885813009F07AC051
:145E10002F8101E0D4D04090D2075090D3072090D00730909F
:145E2400D1078090D6079090D7076090D4077090D50762148A
:145E38007304840495041CF5AA2021F4AA24A3940E945524AE
:145E4C000F80002009F0ADC08BE894E09983888321E004E03A
:145E60000E940A392090D4073090D5074090D0075090D107C3
:145E7400421853085982488225E004E00E94CC3B94C0AA240C
:145E88000E9420280E949F290E947D250E94F92541E050E05D
:145E9C0060E070E040906405509065052090620530906305A0
:145EB000240E351E461E571E309263052092620550926505F1
:145EC40040926405002408862090D9073090DA07442437FC11
:145ED8004094552447FC50948090D6079090D7076090D4078C
:145EEC007090D507620C731C841C951C6B827C828D829E825E
:145F00000F8255C02F8100275AD08C2D8E3169F480E00F8022
:145F1400801518F40A940F8202C085E08F830E94B0390E9443
:145F28007E398C2D8D3169F48F81853020F4082E03940F82A3
:145F3C0002C000240F820E94B0390E947E398091D807813055
:145F500071F52B803C804D805E808090D6079090D7076090EA
:145F6400D4077090D5076214730484049504ECF02090D907F8
:145F78003090DA07442437FC4094552447FC5094620C731C68
:145F8C00841C951C6B827C828D829E820F8003940F82802D32
:145FA000863029F400240F820024039408860AE010E00E94A0
:145FB4000724EFCE29960C949C400E94C640422FA02E229716
:145FC800AA2011F00A2DB7D5442339F505D21983088321E0A3
:145FDC0001E00E94373980E894E09983888321E002E00E9436
:145FF0000A3985E895E09983888326E002E00E94373984E7EC
:1460040094E09983888321E003E00E940A398FE895E099831C
:14601800888326E003E00E940A394130B9F5DCD119830883A8
:14602C0021E001E00E94373989E694E09983888321E002E07F
:146040000E940A3988E995E09983888326E002E00E94373960
:146054008EE594E09983888321E003E00E940A3982EA95E080
:146068009983888326E003E00E94373983E594E099838883FF
:14607C0021E004E00E940A398CEA95E09983888326E004E04A
:146090000E943739423009F03FC0A2D15801B982A88221E04E
