:040000000C94F70362
:040078000C94E842BA
:14008C004C5A0000003F0000C03F0000104233C4313C0000C6
:1400A0000442333327418FC285400000F0C1CDCC4C3E00004E
:1400B400A0C1000020C10000A0419A99193F9A99993E000080
:1400C800804100005041CDCCCC3D00004040D7A328430000CB
:1400DC0040C19A998DC19A9969C26666F6C10000204100004C
:1400F000003F000020410000000066E6F6420000803D286E85
:14010400756C6C207074722070617373656429000000803F9C
:140118000000404200002041CDCCCC3D00000000000000004E
:14012C0000202020202020202020303030303020202020200F
:140140002020202020202020202020202090404040404040FB
:140154004040404040404040400C0C0C0C0C0C0C0C0C0C409F
:140168004040404040400909090909090101010101010101C5
:14017C000101010101010101010101014040404040400A0ACF
:140190000A0A0A0A0202020202020202020202020202020213
:1401A40002020202404040402000000000000000000000001F
:1401B800000000000000000000000000000000000000000033
:1401CC0000000000000000000000000000000000000000001F
:1401E00000000000000000000000000000000000000000000B
:1401F4000000000000000000000000000000000000000000F7
:140208000000000000000000000000000000000000000000E2
:14021C00000000000000000000000000000000000066746F85
:1402300061206572726F723A206E756D62657220746F6F209A
:140244006269670066746F61206572726F723A206E756D6274
:14025800657220746F6F20736D616C6C0066746F612065726F
:14026C00726F723A20756E6578706563746564206572726FC4
:1402800072000000003F17B7D138000020410000803F0000C2
:1402940080BF000000000900000A000000000000323031333E
:1402A80030312E786C73000000003230313230312E786C73B1
:1402BC000000000044455630303030303109090909090909EF
:1402D0000909090D0AD0F2BAC509C8D5C6DA09CAB1B7D60947
:1402E400CEC2B6C809B7E7CBD909B7E7C0E4D6B8CAFD09B54F
:1402F800C8BCDBD6C6C0E4CEC2B6C809CFE0B5B1CEC2B6C819
:14030C0009B6B3C9CBCEA3BAA6D0D409B0B2BEB2D7F7D2B532
:1403200009D6D0B5C8C7BFB6C8D7F7D2B509B8DFC7BFB6C8A0
:14033400D7F7D2B50A00000000000000000032303132303130
:140348002E786C730000000020000064096C09750983098D83
:14035C00099609A209AC0964096C09750983098D099609A2C2
:1403700009AC090000000000000000000025640025232E318B
:140384006C6600BDFBD3CDB2CAA1A32020202020202020007B
:1403980000B4F7C3E6D5D6A3BBBDFBD3CDB2CAA1A30020209C
:1403AC00202020202020202020202020202000202000BCD3AE
:1403C000C8C8BFAAB9D800706F77657220D6B8CABEB5C600C1
:1403D400B7E4C3F9C6F700B7E7CBD9C2F6B3E5A3BA00C4DA74
:1403E800B2BFCEC2B6C8002523302E316600CDE2B2BFCEC295
:1403FC00B6C82000A9B8A9A4A9A4A9A4A9A4A9A4A9A4A9BCBB
:1404100000A9A6202020202020202020202020A9A600A9A66B
:140424002020D7D4BCECB3CCD0F22020A9A600A9B0A9A4A912
:14043800A4A9A4A9A4A9A4A9A4A9B400222A2B2C3A3B3C3DEA
:14044C003E3F5B5D7C7F004000000000955800000000FF51EF
:1404600000000000FF5100000000FFB8DFC7BFB6C8D7F7D2FE
:14047400B5A3BA0000D6D0B5C8C7BFB6C8D7F7D2B5A3BA0089
:1404880000B5CDC7BFB6C8D7F7D2B5A3BA0000BCD3C7BFC053
:14049C00CDB6AFBCE0B6BDA3BB0000D4F6BCD3D2FBCBAE3BD3
:1404B0000000B1A3B3D6B8C9D4EFBDFBC2E3C2B6A1A30000FE
:1404C400B4F7C3E6D5D6A1A30000BDFBD3CDB2CAA1A30000C9
:1404D800CBF5B6CCD7F7D2B5CAB1BCE4A1A30000D0DDCFA2FC
:1404EC00D7A2D2E2B1A3C5AFA1A30000BCF5C9D9B7C7B1D869
:14050000D0EBD7F7D2B5A3BB0000C0CDB6AFCAB1BCE43C33FD
:14051400306D696EA1A30000C8A1CFFBB7C7B1D8D0EBB5C4AD
:14052800D7F7D2B50000C0CDB6AFCAB1BCE43C31356D696E77
:14053C00A3BB0000C8A1CFFBBBA7CDE2D7F7D2B5A1A3000070
:14055000202020202020202020202020202020200000B6B32E
:14056400C9CBCEA3CFD5D0D4D0A10000000000B6B3C9CBCEFA
:14057800A3CFD5D0D4BDCFB4F3000000B6B3C9CBCEA3CFD53F
:14058C00D0D4BADCB4F300000020202020202020202020201A
:1405A000202020202000003039D4C23139C8D531383A30309E
:1405B4003A303000A1FC00A1FD003230313230312E786C73B3
:1405C800000000BBB7BEB3C0E4C7BFB6C8BCECB2E2D2C700BF
:1405DC00BBB6D3ADCAB9D3C30049443A20202020202020203A
:1405F0002020202020002020B1BED4C2C9D0CEDEBCC7C2BCCC
:14060400A1A300D7EEBAF3D2BBB4CE00B0B4CBB3D0F200B2C7
:14061800CBB5A52F20B2E9D1AF00BDABD2AAB2E9D5D2CAFD52
:14062C00BEDD3A00CEB4BCECB2E2B5BD5344BFA82E2E00203B
:14064000202020202020202020D2D1B1A3B4E6002020202075
:14065400002020202020202020B7C5C6FAD0DEB8C4002020EC
:14066800202020202020202020202020202000B1A3B4E600D0
:14067C00CAB1BCE4C9E8D6C33A202020202020200031323A4E
:140690002033303A203539000032303132C4EA3132D4C2336C
:1406A40031C8D50000B6B3C9CBCEA3BAA6D0D43A00CFE0B564
:1406B800B1CEC2B6C83A2000B5C8BCDBCEC2B6C83A2000B7E2
:1406CC00E7C0E4D6B8CAFD3A2000B7E7CBD9286D2F73293A04
:1406E00020202020202000CEC2B6C82028A1E6293A202020A6
:1406F40020202000BEE0CFC2B4CE3A00CDEAB3C9BCECB2E238
:140708002020202020202020002D2DBCC6CBE3B2A2B4E6B4B1
:14071C00A22D2D2020202020202000D5FDD4DABCECB2E2A38E
:14073000BA002E2E00CDCBB3F62020202000CAD6B6AF00D702
:14074400D4B6AF00B2CBB5A52F20BCECB2E2002020B5A5B4B8
:14075800CEBCECB2E200BCECB2E2BCE4B8F42873293A0020DD
:14076C0020D1ADBBB7BCECB2E200CAD5B5BDC3FCC1EEA3BA51
:140780000020202020202000B5E7C1BFB5CD002020B3F5CA55
:14079400BCBBAF002020B2E9D1AF2020CAFDBEDDB4ABCAE421
:1407A800002020BCECB2E22020CAB1D6D3B5F7D5FB00FF449E
:1407BC0045563030303031B144454C3D0048064806480648A8
:1407D0000620202020202020202020202020202020002000EF
:0907E40000200C0A1C224600064C
:1407EE00CFEFD0E1CDBFDEBFC058D1400AEA08830024E3E5CB
:14080200F6E01AE0E738F10711F00192FBCF0083EAE9F2E075
:14081600A0E0B1E017E000E00BBFED3EF10721F0C8953196C4
:14082A000D92F9CF0E947B04FFCFF8948FEF8ABB8BBB87BB8D
:14083E0088BB84BB85BB82B983B980936400809365000E94DC
:14085200C6420E94D8440E944C320E94D7420E941E4502E307
:1408660010E00E9403320E941E4501E00E94144522242092DE
:14087A00F70980E08093F8098093F9098093FA098093FB09B4
:14088E008CE38093DF0980E08093E0098093E1098093E20995
:1408A2008BEF9FEF9093F2098093F1099093F4098093F309E0
:1408B60084E190E09093ED098093EC0933243092EF09209275
:1408CA00EE0981E08093EB092092F0098093F5098093DC0907
:1408DE002092F6097894089522242EBC2DBC2CBC2FBC86E456
:1408F2008EBD08952E978AE091E0FE010EE010E0FA93EA9383
:140906009A938A930E94355292DF01E00E94523F89D18E01FC
:14091A000E949E0F25E537E028D31801442455243092610938
:14092E0020926009509263094092620900270E94B34AAA247B
:14094200BB244427552700270E94B34A0E94FC52A00EB11EA8
:140956004F5F5F4F4830E0E05E079CF32090F3093090F4099C
:14096A00220C331C220C331C220C331C2A143B041CF40E94D3
:14097E00004502C00E94EC440E949F3E26C00E942534A02E5E
:140992004A2D55274330E0E05E0769F04430E0E05E0761F083
:1409A6004530E0E05E0759F04730E0E05E0761F00CC00E94FF
:1409BA003B3509C00E947E3A06C005E517E00E94D33C01C07D
:1409CE0050D004E610E00E94033205D0A02E0023B1F62E9613
:1409E20008950E94A4510E9420410E94CB424090FA09509068
:1409F600FB092090F8093090F9098090E9099090EA09609071
:140A0A00E7097090E809261437044804590440F545E050E04F
:140A1E0060E070E013012401240E351E461E571E3092F909D9
:140A32002092F8095092FB094092FA090E94BD4200270E94D8
:140A4600954A0E94FC5258010E94B8482090F3093090F40969
:140A5A002A143B041CF40E94004502C00E94EC4401E00C94FF
:140A6E00AB51649706EF10E00E940D510C831D832E833F83F6
:140A820009E912E00E944D4808E812E00E944D4807E712E04C
:140A96000E944D4806E612E00E944D4804EF11E00E94033245
:140AAA000CE512E00E944D4801E00E94954A0C831D832E83DC
:140ABE003F832C803D804E805F80288239824A825B8225E534
:140AD20032E08E01085F1F4F0E94565A22242E868E01085F58
:140AE6001F4F0E944D4804EF11E00E9403320CE412E00E9418
:140AFA004D4800270E94954A0C831D832E833F832C803D80A0
:140B0E004E805F80288239824A825B8225E532E08E01025F0C
:140B22001F4F0E94565A22242C8A8E01025F1F4F0E944D486E
:140B360004EF11E00E94033201E412E00E944D4804EF11E0FE
:140B4A000E9403320AE312E00E944D4822E002E00E94C54817
:140B5E0004EF11E00E9403320DE212E00E944D48A79AAF9A26
:140B720004E610E00E940332A79AAF9804E610E00E94033285
:140B8600A79AAF9A04E610E00E940332A79AAF9804E610E0BE
:140B9A000E940332A79AAF9A04E610E00E940332A79AAF98AD
:140BAE0004E610E00E94033204EF11E00E94033204E212E0EF
:140BC2000E944D48AD9804E610E00E940332AD9A04E610E0D1
:140BD6000E940332AD9804E610E00E940332AD9A04E610E01D
:140BEA000E94033201E212E00E944D4804EF11E00E94033259
:140BFE0000E112E00E944D4800E112E00E944D4800E112E0FC
:140C12000E944D4800E112E00E944D4804E610E00E940332DC
:140C2600649608950E948B51EF97EF97EF97EF97EF97EF9781
:140C3A00EF97EF97EF97EF97EF97E19788E191E0FE01B6966B
:140C4E000EE010E0FA93EA939A938A930E94355286E291E05E
:140C6200FE01F49602E810E0FA93EA939A938A930E9435529E
:140C760000270E9489109E0128543F4F00270E9475248E016E
:140C8A000A5D1F4F0E949E0F680182E1888396018E010C5FCA
:140C9E001F4F0E94A024CE018A549F4F9B838A8380E890E0D0
:140CB200998388839E012C5C3F4F8E010C5F1F4F0E94A72879
:140CC600C02EAC2C8E010C5F1F4F0E94712C222733270027E3
:140CDA000E947524EF96EF96EF96EF96EF96EF96EF96EF96A3
:140CEE00EF96EF96EF96E1960C946551AA92CA92EF97EF97F2
:140D0200EF97EF97EF97EF97EF97EF97EF97E19788EA91E0D8
:140D1600FE01BA960EE010E0FA93EA939A938A930E9435521F
:140D2A0080E08EA38FA388A789A700270E9489109E01265C10
:140D3E003F4F00270E9475248E01065D1F4F0E949E0F82E19F
:140D5200888398018E010C5F1F4F0E94A0242E843F844888D6
:140D660059882EA23FA248A659A62EA03FA048A459A448829A
:140D7A00598291018E010C5F1F4F0E94812CCE01C8969B83F6
:140D8E008A8380E091E09983888325E536E08E010C5F1F4FC4
:140DA2000E94A728C02EAC2C8E010C5F1F4F0E94712C222716
:140DB600332700270E947524EF96EF96EF96EF96EF96EF964F
:140DCA00EF96EF96EF96E196C990A99008950E9485517901EE
:140DDE006801EF97EF97EF97EF97EF97EF97EF97EF97EF97E2
:140DF200A397FE01EC59FD4FA080B180FE01EA59FD4F608163
:140E060080E08EA38FA388A789A700270E9489109E01245D34
:140E1A003F4F00270E94752481E0888396018E010C5F1F4F69
:140E2E000E94A024402F043019F4AA24BB248FC02E843F8429
:140E4200488859882EA23FA248A659A680E891E0A0E0B0E064
:140E56002EA03FA048A459A4281639064A065B0614F404E0D8
:140E6A0078C080E890E0A0E0B0E00E851F8528893989081B87
:140E7E00190B2A0B3B0B88E090E08A930E94295268016623BD
:140E920029F4F0925406E09253060CC0613051F420905306DD
:140EA600309054062E0C3F1C30925406209253062090530659
:140EBA0030905406C214D30428F4D0925406C09253060FC00B
:140ECE002224332440905306509054062414350434F081E01A
:140EE20090E09093540680935306209153063091540600E09E
:140EF60011E00E942151C8018050914080589F4F1C0144242E
:140F0A0037FC4094552447FC50944882598291018E010C5FFB
:140F1E001F4F0E94812CC02ECE018A969B838A8380E091E029
:140F32009983888395018E010C5F1F4F0E943C26A02E4A2D3D
:140F46008E010C5F1F4F0E94712C2227332700270E947524EB
:140F5A00042FEF96EF96EF96EF96EF96EF96EF96EF96EF96A3
:140F6E00A3960C947A513A932A930E9485515801EF97EF9764
:140F8200EF97EF97EF97EF97EF97EF97EF97A89780E08C8303
:140F96008D838E838F830024DE01A25ABD4F0C92750180E095
:140FAA00888789878A878B87AA24BB249E01205D3F4F002773
:140FBE000E94752481E1888397018E01045F1F4F0E94A02419
:140FD200C02E002311F0112710C12E883F88488C598C28860C
:140FE60039864A865B8640E052E060E070E0288439844A846E
:140FFA005B84421553056405750564F480E092E05C012E8835
:14100E003F88488C598C288639864A865B8607C0AE88BF88EC
:1410220080E0888789878A878B871501442437FC409455241A
:1410360047FC50946E887F88888C998C62187308840895082B
:14104A008882998293018E01045F1F4F0E94812CCE018E9637
:14105E009B838A83B982A882FE01E759FD4F208131818E0181
:14107200045F1F4F0E943C26E02ECE2C8E01045F1F4F0E948B
:14108600712C40C0F501DE01A759BD4F0D901C90E00DF11D94
:14109A0080818A3069F4FE01E25AFD4F0080002039F40024B2
:1410AE000394FE01E25AFD4F008225C0F501DE01A759BD4FC8
:1410C2000D901C90E00DF11D80818A30D1F4DE01A25ABD4F6F
:1410D6008C918130A1F480E092E01C012A183B08442455244E
:1410EA00688479848A849B84621873088408950868867986D1
:1410FE008A869B8609C0C50101975C01AA2009F0BDCFBB20FF
:1411120009F0BACF46E750E060E070E0288439844A845B8444
:14112600241635064606570634F401E010E063C0C50101961E
:14113A005C01F501DE01A759BD4F0D901C90E00DF11DE080BF
:14114E00FF2480E38E1580F78E2D893368F72FC0F501DE0153
:14116200A759BD4F0D901C90E00DF11D80819927C0971C01F4
:14117600442437FC4094552447FC50946C807D808E809F8040
:14118A004AE050E060E070E09A928A927A926A928A019B01F0
:14119E000E94315138014901620C731C841C951C6C827D825B
:1411B2008E829F82C50101965C01F501DE01A759BD4F0D90C0
:1411C6001C90E00DF11DE080FF248E2D843731F0803320F091
:1411DA0089E38E1508F0BECF41E050E060E070E02C803D8023
:1411EE004E805F80240E351E461E571E8101EF96EF96EF96D1
:14120200EF96EF96EF96EF96EF96EF96A8960E947A51229657
:1412160008950E94405002EF10E00E940D51CE019A938A93FB
:14122A000E94CB54088319832A833B83288039804A805B8057
:14123E0006EF10E00E940D513A932A931A930A9381019201CE
:141252000E940555ACF0288039804A805B800EEE10E00E945C
:141266000D513A932A931A930A93810192010E94C1520883ED
:14127A0019832A833B8314C0288039804A805B800EEE10E093
:14128E000E940D513A932A931A930A93810192010E94D65299
:1412A200088319832A833B83088119812A813B810E94FC522C
:1412B6000E943053088319832A833B83288039804A805B8067
:1412CA000AEE10E00E940D513A932A931A930A93810192013F
:1412DE000E945B53088319832A833B83088119812A813B8190
:1412F200249608950E9490518EE999E006EE10E00E940D513A
:141306009A938A930E94FA5424F422242092B20928C08EE96F
:14131A0099E006EE10E00E940D519A938A930E94FA547CF0BC
:14132E008EE999E002EE10E00E940D519A938A930E94FA54A1
:1413420024F481E08093B2090EC08EE999E002EE10E00E9410
:141356000D519A938A930E94FA541CF082E08093B20910910E
:14136A00B20901E10103100188EC93E0280E391E3092B409CA
:14137E002092B309412F55274030450749F04130E0E05E0776
:14139200D9F04230E0E05E0769F141C08DEF92E09093B909B9
:1413A6008093B8098DE093E09093BB098093BA0988E193E0E6
:1413BA009093BD098093BC0922242092B7092BC084E393E0E1
:1413CE009093B9098093B80988E193E09093BB098093BA09B9
:1413E2008EE493E09093BD098093BC0981E08093B70915C048
:1413F60082E893E09093B9098093B80984E993E09093BB0986
:14140A008093BA0988E193E09093BD098093BC0982E08093E6
:14141E00B7094091B20955274030450759F04130E0E05E0757
:1414320009F459C04230E0E05E0709F46AC07CC08DEF92E0A8
:141446009093BF098093BE0988E193E09093C1098093C00928
:14145A008AE293E09093C3098093C20922242092B60940904B
:14146E0081095090820920907F09309080090EED10E00E9467
:141482000D513A932A931A930A93810192010E94055554F4CB
:141496008FEF91E09093C3098093C20982E08093B60948C04A
:1414AA00409081095090820920907F09309080090AED10E001
:1414BE000E940D513A932A931A930A93810192010E94055535
:1414D2009CF58DEE91E09093C3098093C20981E08093B60989
:1414E60029C08DEF92E09093BF098093BE098EE593E090934D
:1414FA00C1098093C00980E793E09093C3098093C20983E02E
:14150E008093B60913C086EA93E09093BF098093BE09222436
:1415220033243092C1092092C0093092C3092092C20984E0E8
:141536008093B6094091B20955274030450759F04130E0E091
:14154A005E0709F446C04230E0E05E0709F457C069C0409081
:14155E0081095090820920907F09309080090AED10E00E947A
:141572000D513A932A931A930A93810192010E940555B4F47A
:141586008AE293E09093C5098093C40984E393E09093C709D4
:14159A008093C6098EE393E09093C9098093C80981E080932A
:1415AE00B5093EC08AE293E09093C5098093C4098EE393E0D9
:1415C2009093C7098093C609222433243092C9092092C8098C
:1415D6002092B50929C082E893E09093C5098093C40984E98D
:1415EA0093E09093C7098093C60988E193E09093C9098093C1
:1415FE00C80982E08093B50913C086EA93E09093C50980931B
:14161200C409222433243092C7092092C6093092C909209201
:14162600C80983E08093B5090C9495510E948B512497CFB667
:14163A00F894ACB4BDB4CFBE789422242EBC85010E942E53CD
:14164E001801290106ED10E00E940D513A932A931A930A938E
:14166200810192010E945B5310938A090093890930938C095C
:1416760020938B091801290102ED10E00E940D513A932A936D
:14168A001A930A93810192010E940555ECF440908B095090CD
:14169E008C092090890930908A090EEC10E00E940D513A9357
:1416B2002A931A930A93810192010E94D65210938A09009375
:1416C600890930938C0920938B0985C040908B0950908C09C1
:1416DA002090890930908A090AEC10E00E940D513A932A93F7
:1416EE001A930A93810192010E94055564F489E899E002ED5C
:1417020010E00E940D519A938A930E94FA540CF464C04090B5
:141716008B0950908C092090890930908A090AEC10E00E9499
:14172A000D513A932A931A930A93810192010E94055544F133
:14173E0089E899E006EC10E00E940D519A938A930E94FA5491
:14175200ECF040908B0950908C092090890930908A0902EC4B
:1417660010E00E940D513A932A931A930A93810192010E94F4
:14177A00C15210938A090093890930938C0920938B0927C067
:14178E0089E899E006EC10E00E940D519A938A930E94FA5441
:1417A200E4F440908B0950908C092090890930908A090EEBF4
:1417B60010E00E940D513A932A931A930A93810192010E94A4
:1417CA00C15210938A090093890930938C0920938B0920914D
:1417DE008B0930918C090091890910918A0915DD10938A098E
:1417F2000093890930938C0920938B0901E00E94954A10931A
:14180600800900937F09309382092093810901E00E94954A3D
:14181A001093800900937F093093820920938109F6DC109373
:14182E00800900937F093093820920938109180129010AEB3F
:1418420010E00E940D513A932A931A930A93810192010E9417
:141856000555ECF0409081095090820920907F093090800902
:14186A000EEC10E00E940D513A932A931A930A938101920197
:14187E000E94D6521093800900937F093093820920938109BA
:14189200ABC0409081095090820920907F093090800906EBA0
:1418A60010E00E940D513A932A931A930A93810192010E94B3
:1418BA0005550CF095C0409081095090820920907F093090B2
:1418CE00800902EB10E00E940D513A932A931A930A9381014A
:1418E20092010E940555ECF0409081095090820920907F098A
:1418F600309080090EEA10E00E940D513A932A931A930A93D9
:14190A00810192010E94D6521093800900937F093093820955
:14191E002093810963C0409081095090820920907F09309098
:1419320080090AEA10E00E940D513A932A931A930A938101DE
:1419460092010E940555ECF0409081095090820920907F0925
:14195A00309080090EEB10E00E940D513A932A931A930A9373
:14196E00810192010E94D6521093800900937F0930938209F1
:141982002093810931C0409081095090820920907F09309066
:1419960080090AEA10E00E940D513A932A931A930A9381017A
:1419AA0092010E940555E4F4409081095090820920907F09C5
:1419BE00309080090EEB10E00E940D513A932A931A930A930F
:1419D200810192010E94D6521093800900937F09309382098D
:1419E6002093810920918B0930918C090091890910918A09BE
:1419FA00DFD21801290106EA10E00E940D513801490102EF91
:141A0E0010E00E940D515A924A923A922A920E94D5541801A0
:141A2200290102EA10E00E940D513A932A931A930A93810154
:141A360092010E94C15289E899E09A938A930E94E1528301C7
:141A4A0094010E94D554180129010EE910E00E940D518FE788
:141A5E0099E09A938A930E94E152810192010E94D554109359
:141A720093090093920930939509209394090EE910E00E945C
:141A86000D51180129010AE910E00E940D5182E999E09A93B7
:141A9A008A930E94E054810192010E94D65210939F09009388
:141AAE009E093093A1092093A009409081095090820920903F
:141AC2007F09309080093101420106E910E00E940D513A931E
:141AD6002A931A930A93830194010E94D6523801490102EF9E
:141AEA0010E00E940D513A932A931A930A93830194010E9469
:141AFE005B5389E899E09A938A930E94E054810192010E9465
:141B1200C1521093A9090093A8093093AB092093AA09409066
:141B26008B0950908C092090890930908A09288239824A82DC
:141B3A005B8226EE31E00DE819E00E94565A4090810950901B
:141B4E00820920907F0930908009288239824A825B8226EE55
:141B620031E003E819E00E94565A409094095090950920908D
:141B7600920930909309288239824A825B8226EE31E006E942
:141B8A0019E00E94565A4090A0095090A10920909E093090E2
:141B9E009F09288239824A825B8226EE31E002EA19E00E94D1
:141BB200565A4090AA095090AB092090A8093090A9092882DB
:141BC60039824A825B8226EE31E00CEA19E00E94565A409071
:141BDA006209509063092090600930906109288239824A82CC
:141BEE005B8223EE31E004E619E00E94565A22242092890925
:141C02002092920920929D092092A8092092B20971DB249653
:141C16000C9465514A935A93639786EB91E0FE01709603E0D6
:141C2A0010E0FA93EA939A938A930E94355289EB91E0FE0155
:141C3E0000E110E0FA93EA939A938A930E943552442755275D
:141C520009C085E596E0FA01E80FF91F222420824F5F5F4F87
:141C66004030E1E05E0798F34427552714C0CE01FA01EE0FC7
:141C7A00FF1FE80FF91F2081318105E516E00E94275020E0DD
:141C8E0031E005E516E00E9427504F5F5F4F87E090E084176A
:141CA200950738F72091B3093091B40905E516E00E9427507F
:141CB60020E031E005E516E00E9427502090B8093090B9091D
:141CCA00222011F4332029F0910105E516E00E9427509E0129
:141CDE00205F3F4F05E516E00E9427502090BA093090BB09F5
:141CF200222011F4332029F0910105E516E00E9427509E0101
:141D0600205F3F4F05E516E00E9427502090BC093090BD09C8
:141D1A00222011F4332029F0910105E516E00E94275020E077
:141D2E0031E005E516E00E9427502090BE093090BF09222056
:141D420011F4332029F0910105E516E00E9427509E01205F73
:141D56003F4F05E516E00E9427502090C0093090C1092220AD
:141D6A0011F4332029F0910105E516E00E9427509E01205F4B
:141D7E003F4F05E516E00E9427502090C2093090C309222081
:141D920011F4332029F0910105E516E00E94275020E031E030
:141DA60005E516E00E9427502090C4093090C509222011F4DE
:141DBA00332029F0910105E516E00E9427509E01205F3F4F72
:141DCE0005E516E00E9427502090C6093090C709222011F4B2
:141DE200332029F0910105E516E00E9427509E01205F3F4F4A
:141DF60005E516E00E9427502090C8093090C909222011F486
:141E0A00332029F0910105E516E00E94275023E031E005E5CF
:141E1E0016E00E9427502DED31E005E516E00E942750639684
:141E32005991499108950E94875178016097CC2489EC91E07B
:141E4600FE0100E110E0FA93EA939A938A930E943552CE016C
:141E5A00EC2DFF27EE0FFF1FE80FF91FA080B180A70126C02C
:141E6E00FA0180818A3021F42224F50120825CC0FA0180819F
:141E82008930A1F42224F50120824F5F5F4F87E08C1508F4C0
:141E960012C0C394CE01EC2DFF27EE0FFF1FE80FF91FA080B7
:141EAA00B18006C0FA01D5010190AF010D925D01D9CF03E88B
:141EBE0019E00E9440571093800900937F0930938209209396
:141ED20081090DE819E00E94405710938A090093890930932D
:141EE6008C0920938B0906E919E00E94405710939309009319
:141EFA009209309395092093940902EA19E00E9440571093C7
:141F0E009F0900939E093093A1092093A0090CEA19E00E9483
:141F220040571093A9090093A8093093AB092093AA09E0D9E5
:141F360060960C9471510E949A5144270DC08CE699E0E42F7C
:141F4A00FF27E80FF91F2080E42FFF27E00FF11F20824395FC
:141F5E00463088F3242E33244F5FE22DFF27E00FF11F8EE283
:141F72008083242E33244F5FE22DFF27E00FF11F88E780835B
:141F8600642F77274F5FE62FFF27E00FF11F8CE68083642F26
:141F9A0077274F5FE62FFF27E00FF11F83E78083E42FFF2707
:141FAE00E00FF11F222420820C949F510E9440500E949A51E9
:141FC200609702E910E00E940D510C871D872E873F870EE891
:141FD60010E00E940D51CE0144969A938A930E94CB540887C4
:141FEA0019872A873B872C883D884E885F88288239824A8269
:141FFE005B82FE0120803180428053802C823D824E825F82EF
:142012002C803D804E805F8055944794379427944FED59E5E0
:1420260067E37FE542195309640975094C835D836E837F83B4
:14203A00FE0134962080318042805380288239824A825B82D5
:14204E00288039804A805B806C847D848E849F840885198527
:142062002A853B85CE019A938A930E94CB54CE019A938A9308
:142076000E94E054830194010E94EE52810192010E94D554A5
:14208A00088319832A833B83288039804A805B806C847D84B9
:14209E008E849F84088519852A853B85CE019A938A930E94A4
:1420B200CB54CE019A938A930E94E054830194010E94EE5211
:1420C600810192010E94D554088319832A833B830C891D8959
:1420DA002E893F89CE019A938A930E94CB5460960E949F5111
:1420EE00249608950E944050249789ED91E0FE0104E010E0E0
:14210200FA93EA939A938A930E94355228960895AA924A93D8
:14211600A02EAA2011F001E00CC00E944C32402F023011F4A9
:14212A0002E005C0442311F001E001C000274991A990089519
:14213E00002311F001E001C0002708950E9487516901E02E11
:1421520022974E85AA24EE2011F4442311F404E010C041307B
:1421660049F4D982C8820A851B852C853D850E943233A02E0C
:14217A00AA2011F4002701C001E022960C9471510E94895123
:14218E005901E02E2297CC84EE2011F4CC2011F404E009C01B
:1421A200B982A882088519852A853B850E94AC3200272296CB
:1421B6000C946A510E94405000272496089505ED1FEB21E409
:1421CA0034E708950E94B2514E815F815801690106C0F60175
:1421DE00D50101906F010D925D011A01415050402220A9F7FB
:1421F200332099F70C94B9510E9490514C815D81580103C002
:14220600F50121935F011A01415050402220C1F73320B1F789
:14221A000C9495510E9487514885598568017901AA24BB2475
:14222E001A0141505040222011F4332079F0F70121907F0134
:142242003324F60141906F015524421853085201AA2011F4A9
:14225600BB2051F385010C94715102C00F5F1F4FF801208036
:14226A003324222021F0332422163306A9F7F801008111279C
:14227E0008953A932A930E949051A8012997FA01BA9620804E
:142292003180428053802D823E824F8258862D843E844F848E
:1422A60058886D807E808F809884621473048404950409F423
:1422BA007EC0FA012480222009F455C081E08C831301240136
:1422CE00288239824A825B829A01225D3F4F01810E94C5104D
:1422E200002311F001E068C02224FA012482228C338C448C97
:1422F600558C7E966080718082809380620C731C841C951CAB
:14230A002D803E804F805884261437044804590450F5FA014B
:14231E00A38024C0FA017A9620803180428053806D807E80C8
:142332008F809884620C731C841C951C6D827E828F82988600
:1423460081E08C832D803E804F805884288239824A825B82EF
:14235A009A01225D3F4FFA0101810E94C510AA9481E08A1595
:14236E00C8F22D843E844F845888889422203204420452044B
:14238200D1F081E08C83288239824A825B829A01225D3F4F60
:14239600FA0101810E94A510002311F001E00AC02D843E841D
:1423AA004F845888FA0122A633A644A655A6002729960E9463
:1423BE009551229608950E949A51B801259780E090E0A0E07E
:1423D200B0E0A883B9839C018B0151DF402F002309F0C0C09C
:1423E600FB018081833009F0ACC02580222009F4A8C0BA9632
:1423FA0080E0808381838283838380E092E09983888322271B
:14240E0033278B01025D1F4FF1DE85E5FB01E45DFD4F808342
:14242200EC52F2408AEAE35DFD4F8083ED52F24082E586A72E
:1424360087A781E680AB81E481AB82E7EE5EFD4F8083E2510A
:14244A00F240ED5EFD4F8083E351F24081E4EC5EFD4F80834E
:14245E00E451F24081E6EB5EFD4F8083E551F2402684378437
:1424720040885188EA5EFD4F2082E651F24026843784232C62
:142486003324E95EFD4F2082E751F240268437844088518846
:14249A00120144245524E85EFD4F2082E851F24088E190E0C2
:1424AE0006851785208931898A930E942952FB01E75EFD4FC9
:1424C2000083E951F2402284338444845584E65EFD4F2082E7
:1424D600EA51F24022843384232C3324E55EFD4F2082EB5115
:1424EA00F2402284338444845584120144245524E45EFD4F2C
:1424FE002082EC51F24088E190E002851385248535858A9341
:142512000E942952FB01E35EFD4F0083ED51F24081E08C83AC
:142526002288338844885588288239824A825B829F01225D66
:14253A003F4F01810E94C5102224FB012582222433243982C5
:14254E00288222273327FB01018111270E94DD1000300107AF
:1425620009F041E0042F25960C949F513A932A930E94A451AC
:14257600580142E050E060E070E02E803F8048845984241AC2
:14258A00350A460A570A2E823F824886598642E050E060E09D
:14259E0070E0F50176962080318042805380241A350A460A24
:1425B200570A6E807F8088849984621473048404950428F078
:1425C60000E010E020E030E01DC0F501329620803324442427
:1425DA0055240E811F81288539855A924A923A922A920E94E8
:1425EE00315118012901F50166A077A080A491A4260C371C23
:14260200481C591C810192010E94AB51229608953A932A9359
:142616000E9485516801229742E050E060E070E02C843D84C3
:14262A004E845F84241635064606570678F0F60176962080BE
:14263E003180428053806C847D848E849F84621473048404A7
:14265200950428F001E010E020E030E024C1F601A080BB2407
:14266600C5018130E0E09E0759F08230E0E09E0709F46FC0F8
:14267A008330E0E09E0709F4A6C00DC1AC84BD8415013694B2
:14268E002794A20CB31C29E030E085010E94225218014424CA
:1426A2005524F601668C778C80A091A0620C731C841C951C20
:1426B6008882998293018F01E0DD002309F0EDC0C6018E9656
:1426CA00F501F170E80FF91FE080FF24C50101965C0129E050
:1426DE0030E08C010E942252180144245524F601668C778C4F
:1426F20080A091A0620C731C841C951C8882998293018F01EC
:14270600BCDD002309F0C9C0C6018E96F501F170E80FF91F30
:14271A0020803324322C2224E228F3282C843D844E845F84C5
:14272E00E22DE17051F05701B694A794B694A794B694A7940F
:14274200B694A79403C0C7019F705C01850196012227332747
:14275600A8C088E090E00C851D852E853F858A930E9429524B
:14276A00F601268C378C40A051A0200E311E421E531E488206
:14277E00598291018F017DDDA02E002309F089C04FEF51E04E
:1427920060E070E02C843D844E845F84220C331C441C551C2F
:1427A60024223522462257225101C6018E96A80EB91EF501E1
:1427BA002080332401811127102F00270229132922273327EA
:1427CE006CC087E090E00C851D852E853F858A930E94295210
:1427E200F601268C378C40A051A0200E311E421E531E48828E
:1427F600598291018F0141DDE02E002309F04DC082E090E0AB
:14280A000C851D852E853F858A930E941052180129014FEF6E
:14281E0051E060E070E024223522462257225101C6018E962A
:14283200A80EB91E88E190E0F50103811127222733278A93BA
:142846000E94105218012901F5016280772488249924430117
:14285A0066247724262837284828592861807724762C6624FF
:14286E0088249924262837284828592860807724882499246B
:1428820026283728482859284FEF5FEF6FEF7FE024223522BE
:14289600462257228101920104C00FEF1FEF2FEF3FEF229664
:1428AA000E947A51229608950E9440500E948551239742E0D2
:1428BE0050E060E070E02F84388849885A882416350646065F
:1428D200570680F0ED85FE85769620803180428053806F844B
:1428E600788889889A88621473048404950418F082E08A8326
:1428FA0094C1ED85FE85A080BB24C5018130E0E09E0759F05C
:14290E008230E0E09E0709F4B0C08330E0E09E0709F4E7C075
:142922007AC1CF84D888160136942794C20CD31C29E030E041
:1429360086010E942252180144245524ED85FE85668C778C0C
:14294A0080A091A0620C731C841C951C8882998293018F0191
:14295E0090DC0A83002E002309F059C18D859E858E96F601B8
:14297200F1707F01E80EF91E2F84388849885A88EF93E22DAC
:14298600E170EF91B1F02B883C884D885E883324220C331CC5
:14299A00220C331C220C331C220C331CF701808199278F70FA
:1429AE0090705C01A228B32806C02B883C884D885E88A22C4D
:1429C200BB24F701A082C60101966C0181E0ED85FE858483E0
:1429D60029E030E086010E942252180144245524ED85FE8548
:1429EA00668C778C80A091A0620C731C841C951C8882998220
:1429FE0093018F013EDC0A83002E002309F007C18D859E85B3
:142A12008E96F601F1707F01E80EF91E2F84388849885A8881
:142A2600EF93E22DE170EF9161F084E090E00B891C892D8926
:142A3A003E898A930E942952C02EDD2415C088E090E00B8957
:142A4E001C892D893E898A930E942952802F99278F709070AA
:142A6200F701E081FF27E07FF0706F01C82AD92AF701C08283
:142A7600D2C088E090E00F85188929893A898A930E942952FE
:142A8A00ED85FE85268C378C40A051A0200E311E421E531EAF
:142A9E004882598291018F01ECDBC02ECA820C2C002309F008
:142AB200B4C04FEF51E060E070E02F84388849885A88220C49
:142AC600331C441C551C242235224622572271018D859E85B7
:142ADA008E96E80EF91E2B883C88F7012082232C332421825D
:142AEE0096C087E090E00F85188929893A898A930E942952C3
:142B0200ED85FE85268C378C40A051A0200E311E421E531E36
:142B16004882598291018F01B0DBC02ECA820C2C002309F0CB
:142B2A0078C082E090E00F85188929893A898A930E941052C2
:142B3E00180129014FEF51E060E070E02422352246225722C3
:142B520071018D859E858E96E80EF91E88E190E0F701038142
:142B66001127222733278A930E94105218012901F701628042
:142B7A0077248824992443016624772426283728482859283C
:142B8E0061807724762C662488249924262837284828592884
:142BA2006080772488249924262837284828592840E050E04D
:142BB60060E070EF24223522462257226B887C888D889E88BC
:142BCA0062287328842895286B8A7C8A8D8A9E8A2B883C88B8
:142BDE004D885E882082232C3324319620822B883C884D882B
:142BF2005E88120144245524F7013296208288E190E00B8926
:142C06001C892D893E898A930E942952F701038302C082E0BC
:142C1A008A8381E0ED85FE8584830A8123960E947A512496D1
:142C2E0008953A932A930E94C05168012A9742E050E060E0FC
:142C420070E02A883B884C885D88241635064606570678F07A
:142C5600F601769620803180428053806A887B888C889D8853
:142C6A00621473048404950418F082E0A82E88C0AA2476C0BC
:142C7E002A883B884C885D884882598291018601C1DC0E8328
:142C92001F83288739872E803F804884598488942220320473
:142CA6004204520409F46EC041E050E060E070E02E803F8005
:142CBA0048845984241635064606570619F482E0A82E5EC0DC
:142CCE004FEF5FEF6FEF7FEF2E803F8048845984241635060F
:142CE2004606570619F4AA24A3944EC080E08A838B838C838B
:142CF6008D832A883B884C885D884882598291018601D4DD1D
:142D0A00A02E002309F03CC04FEF5FEF6FEF7FEFF6012684D6
:142D1E003784408851882416350646065706B1F0CF010E9612
:142D320041E050E060E070E0FC012080318042805380240E97
:142D4600351E461E571E208231824282538281E0F6018583FF
:142D5A002E803F80488459842A8A3B8A4C8A5D8AF601769616
:142D6E0020803180428053806A887B888C889D886214730450
:142D82008404950408F47ACF0A2D2A960E94C95122960895CF
:142D96003A932A930E9485516801669728A039A04AA05BA03B
:142DAA008894222032044204520459F5F6013A96208031807F
:142DBE00428053802E863F86488A598A2E843F844888598818
:142DD2008894222032044204520481F0F601769620803180F8
:142DE600428053806E847F8488889988621473048404950410
:142DFA0008F440C081E08E8780E08F87888B898B39C028A0F5
:142E0E0039A04AA05BA04882598291018601FADB0A871B872C
:142E22002C873D8742E050E060E070E02A843B844C845D8425
:142E3600241635064606570628F401E010E020E030E019C193
:142E4A00F601769620803180428053806A847B848C849D846D
:142E5E00621473048404950418F48301940107C128A039A0C4
:142E72004AA05BA02E863F86488A598A2E843F844888598813
:142E86002E823F824886598641E050E060E070E02E803F80CC
:142E9A0048845984240E351E461E571E2E823F8248865986FF
:142EAE00F601769620803180428053806E807F808884998411
:142EC2006214730484049504C0F082E08E8380E08F8388874A
:142ED60089872E843F84488859886E807F8088849984261462
:142EEA0037044804590428F400E010E020E030E0C0C02E80C6
:142EFE003F8048845984488259829101860182DB0A871B870A
:142F12002C873D872A843B844C845D8488942220320442043C
:142F2600520409F42EC04FEF5FEF6FEF7FEF2A843B844C84C1
:142F3A005D84241635064606570649F041E050E060E070E06A
:142F4E00241635064606570629F40A851B852C853D858DC045
:142F62002E843F84488859886E807F80888499846214730432
:142F76008404950409F088CF00E010E020E030E07AC08FEF3E
:142F8A008A838B838C838FE08D832E803F80488459844882AA
:142F9E0059829101860186DCA02E0023E1F428A039A04AA078
:142FB2005BA08894222032044204520491F02E803F80488426
:142FC60059842A823B824C825D8228A039A04AA05BA04882B4
:142FDA0059829101860168DCA02EAA2009F02EC02E803F80BF
:142FEE0048845984F60122863386448655864FEF5FEF6FEF3F
:143002007FEF2684378440885188241635064606570679F1BE
:14301600CF010E967C0141E050E060E070E0FC012080318086
:14302A0042805380241A350A460A570A2082318242825382E1
:14303E0081E0F601858317C08A2D813031F48FEF8A8B8B8B11
:143052008C8B8D8B06C081E08A8B80E08B8B8C8B8D8B2A88A8
:143066003B884C885D882E823F82488659860E811F812885E0
:14307A00398566960E947A51229608953A932A930E948B51BE
:14308E0068012897F601B0968081918104965C0189E090E0E6
:1430A2000C851D852E853F858A930E942952F601AF93BF93AB
:1430B600A081B181FD01BF91AF913296208033244424552485
:1430CA005A924A923A922A920E948B500C831D832E833F8383
:1430DE00F50121903190419051905F01288239824A825B8256
:1430F200288039804A805B808894222032044204520429F477
:1431060000E010E020E030E02FC0288039804A805B806C80F4
:14311A007D808E809F80621473048404950408F414C02880F1
:14312E0039804A805B806C807D808E809F8062187308840898
:1431420095086C827D828E829F82C50104965C01C5CFF50177
:1431560020803180428053800C811D812E813F81020D131DA6
:14316A00241D351D28960E946551229608950E948551690171
:14317E0058012697F501D582C48236962080318042805380E2
:143192002A823B824C825D8241E050E060E070E02A803B80CD
:1431A6004C805D80241635064606570689F0F501A081B1818C
:1431BA0056962D903D904D905C906A807B808C809D8062143E
:1431CE0073048404950410F002E0D6C02A803B804C805D80CF
:1431E2008894222032044204520479F4F501A081B1818C91D6
:1431F600833049F492962D903D904D905C902A823B824C8223
:14320A005D822A803B804C805D808894222032044204520493
:14321E0009F02BC0F5012286338644865586A081B1811896BB
:143232002D903C90C214D30410F002E0A3C016013694279471
:1432460036942794369427943694279444245524F501A081ED
:14325A00B18192966D907D908D909C90620C731C841C951C65
:14326E0066867786808A918A76C0F501AF93BF93A081B1812B
:14328200FD01BF91AF91228080E1829D700140C02A803B80B2
:143296004C805D80488259829101F50100811181B5D90A8320
:1432AA001B832C833D834FEF5FEF6FEF7FEF2A803B804C807A
:1432BE005D80241635064606570611F401E05CC042E050E0AD
:1432D20060E070E02A803B804C805D8024163506460657062C
:1432E60088F0F501A081B18156962D903D904D905C906A80EA
:1432FA007B808C809D80621473048404950410F002E03CC0B0
:14330E00CE18DF08CE14DF0408F0BCCF2A803B804C805D8088
:14332200F50122863386448655864882598291010081118151
:143336001BD916013694279436942794369427943694279464
:14334A004424552438014901620C731C841C951CF5016686DB
:14335E007786808A918A96012F70307000E210E00E9421517D
:143372001801F501808191818E96280E391E338A228A0027E4
:1433860026960C947A510E9440500E94855159012697E889DA
:14339A00F9898481958101966C018030890759F03E96208081
:1433AE003180428053808894222032044204520411F404E0AC
:1433C2008DC1C6018F7090708030890709F070C18889998946
:1433D6000E9641E050E060E070E0FC0120803180428053807B
:1433EA00240E351E461E571E2082318242825382E889F98990
:1433FE003A96208031804280538088942220320442045204D5
:1434120069F4E889F989A081B18118962D903C90C214D3041F
:1434260008F444C104E058C1E889F989AF93BF93A081B181BA
:14343A00FD01BF91AF9182819927019716013694279436942F
:14344E002794369427943694279428223922222009F028C1DC
:14346200332009F025C1E889F9892284338444845584488269
:143476005982910100811181C9D80A831B832C833D8341E066
:14348A0050E060E070E02A803B804C805D8042155305640548
:14349E00750510F002E01CC14FEF5FEF6FEF7FEF2A803B8024
:1434B2004C805D80241635064606570611F401E00DC1E8891A
:1434C600F989A081B18156962D903D904D905C906A807B80F9
:1434DA008C809D80621473048404950408F4CDC0AA2021F43F
:1434EE00BB2011F404E0F4C0E889F989228433844484558461
:143502004882598291010081118144DC0A831B832C833D83B1
:143516002A803B804C805D808894222032044204520411F45E
:14352A0007E0D8C041E050E060E070E02A803B804C805D801F
:14353E00241635064606570611F402E0C9C04FEF5FEF6FEF01
:143552007FEF2A803B804C805D80241635064606570611F4C6
:1435660001E0BAC040E050E060E070E0688379839A01E88923
:14357A00F989008111810E944011002311F001E0A9C080E0E7
:14358E0092E09983888322273327E889F98900811181025D88
:1435A2001F4F0E94FD102A803B804C805D80488259829101B3
:1435B600E889F989A080B18085010E94B712F50102A713A773
:1435CA0024A735A7AA2435C081E0E889F989AF93BF93A0817A
:1435DE00B181FD01BF91AF91848340E050E060E070E0688347
:1435F20079839A01E889F989008111810E944011E02E002304
:1436060011F001E069C0E889F989808191818A967C0141E0E1
:14361A0050E060E070E0FC012080318042805380240E351E74
:14362E00461E571E2082318242825382A394E889F989AF9355
:14364200BF93A081B181FD01BF91AF912280A21408F4BECF60
:14365600E889F989808191818A967C012A2C3324442455242F
:14366A00FC0160807180828093806218730884089508608269
:14367E007182828293822A803B804C805D80E889F989228683
:14369200338644865586488259829101008111810E94B71211
:1436A600E889F98906871787208B318BE889F989D582C482FB
:1436BA0096012F70307000E210E00E9421511801E889F98934
:1436CE00808191818E96280E391E338A228A002726960E9436
:1436E2007A51249608950E94C051B8012297222733278B015E
:1436F60040DD402F002309F036C0FB01268437844088518820
:14370A00488259829101008111810E944011402F002309F0E3
:14371E0025C0FB01A288B388F501C080CC2011F444E01CC02A
:14373200F501238423FC0FC08BE090E099838883FB0124894D
:14374600358985010E940F1158010030010709F409C02227C9
:14375A0033278B0116DEA02E4A2D442309F4CBCF042F229653
:14376E000C94C9510E94C051B801229744E02BC0FB012684B3
:14378200378440885188488259829101008111810E9440119A
:14379600402F002309F028C0FB01A288B388F501C080CC2029
:1437AA0011F444E01FC08C2D853E39F08E3229F0F5012384E8
:1437BE0023FC01C015C0222733278B01E0DD402F002309F0CB
:1437D2000DC0FB013E962080318042805380889422203204CC
:1437E6004204520409F0C8CF442339F0FB013E9680E08083E0
:1437FA00818382838383042F22960C94C9510E94C051A801AB
:14380E002297222733278A01B0DCA02E002309F5FA0126849F
:14382200378440885188488259829101008111810E944011F9
:14383600A02E002309F011C0FA01A289B3896C91653E11F0C0
:14384A00662309F408C021E030E08A019ADDC02EAC2CAA2079
:14385E00F9F2AA2009F030C0FA0126843784408851884882ED
:1438720059829101008111810E944011C02EAC2C002301F5F0
:14388600FA01C288D38880E290E0998388832227332786016B
:14389A000E94FD108BE090E099838883FA012489358986017C
:1438AE000E94E71081E0FA01AF93BF93A081B181FD01BF91DC
:1438C200AF9184830A2D22960C94C9513A932A930E94855100
:1438D600A8012997EB89FC89208031803B822A8205C08A81F2
:1438EA009B8101969B838A83EA81FB8120803324822D8F329E
:1438FE00A1F38C3591F3FA01248835883F822E828BE090E02D
:143912009983888320E230E081010E94FD100024088622243F
:1439260033243D822C82B10188E090E06C01AB016F5F7F4F8A
:14393A00FA010A801B80E00DF11D408180E2841720F44F320B
:14394E0011F04C3509F487C04E3229F00C801D800C141D049C
:14396200A0F0C6018830E0E09E0711F44E3211F006E0AFC002
:1439760088E090E09D838C838BE06C010884000C000C08862C
:14398A00D4CF403818F0888583608887413808F439C08EEF1C
:14399E00841708F435C05B016F5F7F4FF5010A801B80E00D89
:1439B200F11DA0808A2D803418F08EE78A1530F48A2D8038B9
:1439C60050F08EEF8A1538F0C60101970C801D8008161906A4
:1439DA0010F006E07AC0EC80FD80C70101969D838C83F7014A
:1439EE000E801F80E00DF11D40837C0101969D838C83F7019F
:143A02000E801F80E00DF11DA08293CF242F33270AEA12E071
:143A16000E94301158010030010711F006E057C0413438F08D
:143A2A008AE5841720F088858260888709C0413638F08AE797
:143A3E00841720F08885816088874052AC80BD80C501019674
:143A52009D838C83F5010E801F80E00DF11D408368CF1B01FD
:143A66000A801B80200C311CEB89FC893182208280E2841763
:143A7A0018F064E070E002C066277727462F0C801D800020F1
:143A8E0021F4112011F406E01EC0EE81FF818081853E11F45D
:143AA20085E08083C6018830E0E09E0721F40884000C000C0B
:143AB600088688858370813009F4406188858C70843009F465
:143ACA004860EE81FF814387002729960E947A5122960895DF
:143ADE000E948551B9015801AB01475F5F4FF5013E962080DF
:143AF2003180428053808894222032044204520409F48AC003
:143B0600F501A288B388CC24DD2414C0F601EA0DFB1DE08025
:143B1A008E2D803209F411C08E2D853011F485EEE82E00C09E
:143B2E00FA01E192AF01C60101966C01C6018830E0E09E07B6
:143B420038F3F50180858032E1F08EE2FA018193AF0188E02F
:143B560090E06C010FC0F601EA0DFB1DE0808E2D803209F4DF
:143B6A000CC000C0FA01E192AF01C60101966C01C6018B3050
:143B7E00E0E09E0760F3F5012384FB01208688E190E0F5016D
:143B9200078D1127222733278A930E94105218012901F50156
:143BA600668C7724882499244301662477242628372848288F
:143BBA005928658C7724762C66248824992426283728482838
:143BCE005928648C7724882499242628372848285928FB01D4
:143BE2002082318242825382F501208C3324418C5524542C22
:143BF600442442285328FB0155824482F5012688332447880B
:143C0A005524542C442442285328FB01578246822224FA0182
:143C1E0020820C947A513A932A930E94A451B801EE81FF81BC
:143C320020803324822D8F3211F08C3529F48E819F81019672
:143C46009F838E83FB01369680E08083818382838383EE818E
:143C5A00FF81808199278032E0E09E0758F4222733278B0183
:143C6E0084DA402F22243324FB01338A228A52C09E012A5F39
:143C82003F4F8B0123DEA02E4A2D002309F048C08B0129DD18
:143C9600A02E4A2DFB01AF93BF93A489B589FD01BF91AF914C
:143CAA00A384002349F0043009F036C001C0E2CFA2FC32C05E
:143CBE0045E030C0A2FE01C02DC0FB01A288B388F501238491
:143CD20024FC02C045E024C0F501228C3324438C5524542C30
:143CE600442442285328120144245524648877248588992438
:143CFA00982C882486289728340188249924430166247724D2
:143D0E006228732884289528FB016682778280869186AECF9C
:143D2200042F0E94AB51229608953A932A930E94A4515801ED
:143D3600259781E08C832B843C844D845E84288239824A82FA
:143D4A005B829501225D3F4FF50101810E94A510002311F0F2
:143D5E0003E0A8C0F501E45DFD4F2080EC52F2403324E35DDC
:143D7200FD4F80819927982F8827822993298535EAEA9E0720
:143D860011F002E093C088E190E0F501E959FF4F00811127DB
:143D9A00222733278A930E94105218012901F501EA59FF4F87
:143DAE006080E656F0407724882499244301662477242628FA
:143DC200372848285928EB59FF4F6080E556F0407724762C83
:143DD6006624882499242628372848285928EC59FF4F6080D5
:143DEA0077248824992426283728482859284FEF5FEF6FEF39
:143DFE0070E0242235224622572246E451E464E570E02416B1
:143E120035064606570611F400274AC088E190E0F501ED576F
:143E2600FF4F00811127222733278A930E941052180129017A
:143E3A00F501EE57FF4F6080E258F040772488249924430159
:143E4E00662477242628372848285928EF57FF4F6080E158F0
:143E6200F0407724762C66248824992426283728482859284E
:143E7600E058FF4F6080772488249924262837284828592830
:143E8A004FEF5FEF6FEF70E0242235224622572246E451E40D
:143E9E0064E570E0241635064606570611F4002701C001E08B
:143EB20025960E94AB51229608953A932A930E9485516801E3
:143EC600A797F601A080B180F50180819927C0977C0189E06E
:143EDA0090E08E159F0550F081818A3339F4CF0102965C012C
:143EEE00F601B182A08202C0EE24FF24C7018130E0E09E079F
:143F020010F00BE0CFC48EEF99E0F701EE0FFF1FE80FF91F15
:143F1600208031803EA22DA2E9A9FAA93182208201012220C9
:143F2A0021F4332011F40CE0B9C4EDA1FEA12080222079F035
:143F3E0001810E949F10A02E00FD09C00BA8002021F002FF23
:143F520002C00AE0A7C40027A5C42224EDA1FEA12082E1823C
:143F660001810E948910E02EAE2C00FF02C003E097C40BA8F0
:143F7A00002021F0A2FE02C00AE090C480E0898B8A8B8B8BC3
:143F8E008C8B40E050E060E070E0688379839A010DA11EA139
:143FA200C4DEA02ECA2C00C08C2D813009F04CC0AA2409F0AF
:143FB600AA9400E11A2D010350018DA19EA184519E4FA80E57
:143FCA00B91EF5012480222009F43AC088E190E003851127A0
:143FDE00222733278A930E94105218012901F5016284772451
:143FF200882499244301662477242628372848285928618466
:144006007724762C662488249924262837284828592838960A
:14401A0060807724882499242628372848285928298A3A8A99
:14402E004B8A5C8A29883A884B885C884882598291010DA1B4
:144042001EA173DEA02ECA2C8C2D833011F401E029C4CC206B
:1440560011F00DE025C4EDA1FEA121AC332482AD9927982F78
:14406A008827822993298030E2E09E0711F00DE015C4EDA1C0
:14407E00FEA1EC5BFF4F2080E454F0403324EB5BFF4F408047
:144092005524542C4424422853281201442455242D823E8271
:1440A6004F8258862D803E804F805884889422203204420467
:1440BA00520409F03CC088E190E0EDA1FEA1EB5AFF4F00818D
:1440CE001127222733278A930E94105218012901EDA1FEA172
:1440E200EC5AFF4F6080E455F040772488249924430166241B
:1440F60077242628372848285928ED5AFF4F6080E355F040A0
:14410A007724762C6624882499242628372848285928EE5A8B
:14411E00FF4F608077248824992426283728482859282D820E
:144132003E824F8258862D803E804F805884EDA1FEA1228E17
:14414600338E448E558EA6ACEA2CA3828E2D813021F0823033
:14415A0011F00DE0A3C32E2C3324442455240D811E812F818E
:14416E0038855A924A923A922A920E9431510D831E832F8329
:144182003887EDA1FEA1A3ACEA2CA282AA2029F08E2D815045
:144196002E2C282211F00DE083C3EDA1FEA127AC3324E05CAA
:1441AA00FF4F4080E054F0405524542C442442285328518672
:1441BE004086808591858F7090708030890711F00DE06AC3B2
:1441D200EDA1FEA1EF5BFF4F2080E154F0403324EE5BFF4F21
:1441E60040805524542C4424422853281201442455242D8618
:1441FA003E864F86588A2D843E844F8458888894222032047C
:14420E004204520409F03CC088E190E0EDA1FEA1EF5AFF4F6E
:1442220000811127222733278A930E94105218012901EDA13A
:14423600FEA1E05BFF4F6080E055F0407724882499244301BF
:14424A00662477242628372848285928E15BFF4F6080EF54F0
:14425E00F0407724762C66248824992426283728482859284E
:14427200E25BFF4F608077248824992426283728482859282B
:144286002D863E864F86588AEDA1FEA124AC3324E5ACFF24EE
:14429A00FE2CEE24E228F328EE2021F4FF2011F40DE0FCC2BD
:1442AE002D803E804F805884370188249924620C731C841CA8
:1442C200951CEDA1FEA13896208031803694279436942794E1
:1442D600369427943694279444245524620C731C841C951C9B
:1442EA006D8A7E8A8F8A988E2D883E884F88588C6D847E8459
:1442FE008F849888621473048404950410F40DE0CBC22D8838
:144312003E884F88588C0D851E852F85388902191309240908
:144326003509EDA1FEA1329620803324442455245A924A92B0
:14433A003A922A920E948B5009871A872B873C8729843A8459
:14434E004B845C848894222032044204520411F40DE0A2C226
:14436200CC24C39446EF5FE060E070E029843A844B845C84E2
:14437600241635064606570610F082E0C82E46EF5FEF60E0FA
:14438A0070E029843A844B845C84241635064606570610F097
:14439E0083E0C82E42E050E060E070E029843A844B845C84B6
:1443B200240E351E461E571EEDA1FEA1769620823182428247
:1443C60053822D883E884F88588C69887A888B889C88620C40
:1443DA00731C841C951CEDA1FEA1B696608271828282938288
:1443EE0017014424552469887A888B889C88620C731C841CFB
:14440200951CEDA1FEA1668E778E80A291A28C2D833009F015
:1444160055C020843184222011F4332011F00DE03FC288E132
:14442A0090E0EDA1FEA1E35AFF4F00811127222733278A93DD
:14443E000E94105218012901EDA1FEA1E45AFF4F6080EC5549
:14445200F0407724882499244301662477242628372848289C
:144466005928E55AFF4F6080EB55F0407724762C6624882471
:14447A0099242628372848285928E65AFF4F6080EA55F040F6
:14448E00772488249924262837284828592822A233A244A2F9
:1444A20055A282E090E0769600811181228133818A930E9408
:1444B6001052098F1A8F2B8F3C8F6AC0EDA1FEA1208431841A
:1444CA00222021F4332011F40DE0E8C12D803E804F80588483
:1444DE00EDA1FEA1668C778C80A091A0620C731C841C951C09
:1444F20062A273A284A295A28C2D823071F476962080318013
:1445060042805380220C331C441C551C2D8E3E8E4F8E58A260
:14451A0035C0EDA1FEA17696208031804280538029A23AA2D2
:14452E004BA25CA241E050E060E070E029A03AA04BA05CA023
:14454200242235224622572269A07AA08BA09CA043E050E00A
:1445560060E070E09A928A927A926A928A019B010E94315126
:14456A00380149019694879477946794620C731C841C951C21
:14457E006D8E7E8E8F8E98A22D8C3E8C4F8C58A0298E3A8EF6
:144592004B8E5C8E4FEF51E060E070E0098D1A8D2B8D3C8D95
:1445A600040F151F261F371F89E090E08A930E942952EDA17E
:1445BA00FEA1228C338C448C558C201631064206530610F41E
:1445CE000DE06AC1EDA1FEA13E968FEF808381838283838330
:1445E200EDA1FEA13A9680E080838183828383838C2D8330EA
:1445F60009F03CC12224EDA1FEA12582E25AFF4F2080EE5534
:14460A00F0403324E15AFF4F40805524542C44244228532886
:14461E0012014424552469887A888B889C88620C731C841CCD
:14463200951CEDA1FEA1628A738A848A958A81E08C83228866
:14464600338844885588288239824A825B829F01225D3F4F41
:14465A0001810E94A510E02E002309F005C1EDA1FEA1E45D15
:14466E00FD4F2080EC52F2403324E35DFD4F8081ED52F24087
:144682009927982F8827822993298535AAEA9A0709F0EEC0F1
:1446960088E190E001A91127222733278A930E941052180178
:1446AA002901EDA1FEA160A877248824992443016624772430
:1446BE00262837284828592867A47724762C6624882499240F
:1446D200262837284828592866A4772488249924262837287B
:1446E6004828592842E552E561E671E42416350646065706B7
:1446FA0009F0BAC088E190E0EB5EFD4F00811127222733276F
:14470E008A930E94105218012901EDA1FEA1EC5EFD4F608090
:14472200E451F2407724882499244301662477242628372802
:1447360048285928ED5EFD4F6080E351F2407724762C6624DA
:14474A00882499242628372848285928EE5EFD4F6080E251A9
:14475E00F240772488249924262837284828592842E752E711
:1447720061E471E6241635064606570609F078C088E190E06F
:14478600E35EFD4F00811127222733278A930E9410521801FC
:14479A002901EDA1FEA1E45EFD4F6080EC51F2407724882490
:1447AE0099244301662477242628372848285928E55EFD4FA4
:1447C2006080EB51F2407724762C66248824992426283728B8
:1447D60048285928E65EFD4F6080EA51F240772488249924FD
:1447EA002628372848285928228633864486558688E190E03E
:1447FE00E75EFD4F00811127222733278A930E941052180180
:144812002901EDA1FEA1E85EFD4F6080E851F2407724882417
:1448260099244301662477242628372848285928E95EFD4F27
:14483A006080E751F2407724762C6624882499242628372843
:14484E0048285928EA5EFD4F6080E651F24077248824992484
:14486200262837284828592826863786408A518AEDA1FEA169
:14487600C0828091FC099091FD0901966C01D092FD09C092F1
:14488A00FC09D782C682BA9680E0808381838283838322246C
:14489E00EDA1FEA124820027A7960E947A51229608950E946B
:1448B20090515901A8014030450749F0FA012080222029F023
:1448C600268037802A143B0411F009E009C0FA0101810E9432
:1448DA009F1000FF02C003E001C000270C949551AA92BA9281
:1448EE00013010F00BE022C08EEF99E0E02FFF27EE0FFF1F72
:14490200E80FF91FA080B180AA2011F4BB2019F02224F50152
:1449160020822030230719F02224F90120828EEF99E0E02F81
:14492A00FF27EE0FFF1FE80FF91F318320830027B990A99029
:14493E0008950E9440500E948551AC9722243324EEA9FFA9FF
:14495200318220828AAD8F718AAF99278E7F88839E012E5F88
:144966003F4F8E01085C1F4FA6DAA02ECE0148969F8B8E8B10
:14497A00002339F428AD39AD8E010E5F1F4F4DD9A02EEC884C
:14498E00FD88AA2031F4EE2021F4FF2011F486E0A82E8AADE7
:1449A2008C7109F4C0C0AA2081F08A2D843039F48E010E5FB8
:1449B6001F4F0E94041CC02EAC2C8AAD88608AAFEC88FD88A6
:1449CA000CC0F7018385817119F087E0A82E05C00AAC02FE5A
:1449DE0002C088E0A82EAA2009F0B1C00AAC03FEAEC00E94CA
:1449F200E2100CA31DA32EA33FA32CA03DA04EA05FA0F7010F
:144A06002686232C33243F9620822CA03DA04EA05FA012012A
:144A1A0044245524F7017096208288E190E00CA11DA12EA1F4
:144A2E003FA18A930E942952F701018B22242386248E258E82
:144A4200268E278E228C3324438C5524542C442442285328DD
:144A560012014424552464887724759680809924982C882499
:144A6A0086289728340188249924430166247724622873289F
:144A7E008428952868A679A68AA69BA62224F701228E238E7E
:144A9200248A258A81E0EA81FB813496808328A439A44AA407
:144AA6005BA48894222032044204520409F44BC0EA81FB81DE
:144ABA0022A433A444A455A42CA23DA24EA25FA228A439A423
:144ACE004AA45BA44882598291010A811B810E941816C02ECB
:144AE200AC2C002391F541E050E060E070E028A439A44AA4C7
:144AF6005BA4241A350A460A570AEA81FB812286338644866D
:144B0A0055862CA03DA04EA05FA04882598291010A811B81C8
:144B1E000E944011C02EAC2C12C0AA2081F4F701238424FEF8
:144B320003C084E0A82E09C00AAC01FE06C0F701238420FE71
:144B460002C087E0A82EAA20A1F40AAC03FE03C0802D8062F4
:144B5A008AAFEA81FB8122A433A444A455A4EEA9FFA9228EBA
:144B6E00338E448E558EF78EE68EAA2009F077C0EEA9FFA98B
:144B82000AAC0482F701228C3324438C5524542C442442284C
:144B960053281201442455246488772485889924982C8824DB
:144BAA0086289728340188249924430166247724622873285E
:144BBE0084289528EEA9FFA966867786808A918A88E190E054
:144BD200F701078D1127222733278A930E9410521801290104
:144BE600F701668C77248824992443016624772426283728B7
:144BFA0048285928658C7724762C66248824992426283728E8
:144C0E0048285928648C77248824992426283728482859280F
:144C2200EEA9FFA92286338644865586369680E08083818306
:144C360082838383EEA9FFA9769680E08083818382838383A2
:144C4A0022243324EEA9FFA931A220A22A803B80318220822B
:144C5E00F10126803780EEA9FFA9338222820A2DAC960E9440
:144C72007A51249608950E9440500E9485515901619775019A
:144C860080E092E0998388832227332785010E941C502224A4
:144C9A003324E9A1FAA131822082EB8DFC8D2281338100815C
:144CAE001181FFDDA02E002309F045C2EB8DFC8D248027FEC9
:144CC20002C002E03EC2EB8DFC8D248020FC02C007E037C2D7
:144CD600EB8DFC8D26803780408451843A9660807180828030
:144CEA00938062187308840895086D867E868F86988A2D84A6
:144CFE003E844F8458886F8C78A088249924261437044804F0
:144D1200590408F00DC238A22F8E0AC24FEF51E060E070E007
:144D2600EB8DFC8D36962080318042805380242235224622C1
:144D3A0057228894222032044204520409F080C189E090E0A9
:144D4E00EB8DFC8D06811781208531858A930E942952180183
:144D62002901EB8DFC8DAF93BF93A081B181FD01BF91AF919D
:144D76008281992701973C01882477FC8094992487FC9094FA
:144D8A002620372048205920C22C222009F078C0EB8DFC8D35
:144D9E0036962080318042805380889422203204420452041F
:144DB20061F4EB8DFC8D3E96208031804280538029863A866E
:144DC6004B865C8628C0EB8DFC8D20A031A0222011F4332012
:144DDA0079F026803780408451844882598291018F010E94FD
:144DEE00431809871A872B873C8711C0EB8DFC8D2288338879
:144E020044885588488259829101008111810E94091309875B
:144E16001A872B873C8742E050E060E070E029843A844B8456
:144E2A005C84241635064606570648F48B8D9C8D0496FC0162
:144E3E0080818068808302E07EC14FEF5FEF6FEF7FEF29844E
:144E52003A844B845C84241635064606570651F48B8D9C8D3B
:144E660004965C01FC0180818068808301E067C129843A84E4
:144E7A004B845C84EB8DFC8D228A338A448A558AEB8DFC8D5D
:144E8E002288338844885588488259829101008111810E9416
:144EA200B7120D831E832F8338872D803E804F80588488945F
:144EB600222032044204520451F48B8D9C8D04965C01FC015A
:144ECA0080818068808302E038C12C2C3324442455246D8090
:144EDE007E808F809884620C731C841C951C6D827E828F8249
:144EF200988629E030E00F8D18A10E94225258010030010779
:144F060009F496C02C2C3324200E311EEB8DFC8DAF93BF9383
:144F1A00A081B181FD01BF91AF91428055244214530478F44E
:144F2E002C2C3324EB8DFC8DAF93BF93A081B181FD01BF918A
:144F4200AF91A280BB24A218B308AC822D803E804F80588461
:144F5600288239824A825B829701EB8DFC8DAF93BF93A081EB
:144F6A00B181FD01BF91AF9101810E94A510C02E002351F048
:144F7E008B8D9C8D04966C01FC0180818068808301E0D9C074
:144F9200EB8DFC8DC080D180F60134962080222009F441C0D8
:144FA6002D803E804F805884F60162A473A484A495A46218F2
:144FBA0073088408950815014424552462147304840495043A
:144FCE0060F580E092E099838883EB8DFC8DC080D180960158
:144FE200225D3F4F2D803E804F805884F60162A473A484A45C
:144FF60095A4621873088408950840E052E060E070E02F93AC
:14500A003F939A928A927A926A928A019B010E9431513F9155
:14501E002F910E0D1F1D0E94E71000E012E095010E94215152
:1450320068015AC02D803E804F805884EB8DFC8D268A378A5F
:14504600408E518E4FEF51E060E070E0EB8DFC8D268037804C
:14505A0040845184242235224622572240E052E060E070E049
:14506E0042195309640975096A010F8C18A00416150608F49D
:145082006001EB8DFC8D26883788408C518C4882598291016B
:14509600008111810E944011A02E002351F08B8D9C8D0496F3
:1450AA005C01FC0180818068808301E046C0D982C8824FEFE2
:1450BE0051E060E070E0EB8DFC8D26803780408451842422E0
:1450D2003522462257229101808191818E96280F391F8701B2
:1450E6000E94E710EC0CFD1C8B8D9C8D06965C011601442453
:1450FA005524FC016080718082809380620C731C841C951CF8
:14510E006082718282829382E9A1FAA1208031802C0C3D1C98
:14512200318220820F8C18A00C181D0818A20F8E0F8C18A0DE
:14513600002009F0F1CD112009F0EECD002761960E947A511E
:14514A00249608950E9440500E948551590161977501222442
:14515E003324E9A1FAA131822082EB8DFC8D22813381008193
:1451720011819DDBA02E002309F0FCC2EB8DFC8D248027FEAD
:1451860002C002E0F5C2EB8DFC8D248021FC02C007E0EEC29F
:14519A00EB8DFC8D3A9620803180428053802D863E864F86FE
:1451AE00588A2F8C38A0442455246D847E848F849888620C03
:1451C200731C841C951C2D843E844F8458886214730484045E
:1451D600950408F0A5C20024112418A20F8EA0C24FEF51E04C
:1451EA0060E070E0EB8DFC8D36962080318042805380242228
:1451FE003522462257228894222032044204520409F00BC26F
:1452120089E090E0EB8DFC8D06811781208531858A930E9475
:14522600295218012901EB8DFC8DAF93BF93A081B181FD01D0
:14523A00BF91AF918281992701973C01882477FC8094992448
:14524E0087FC90942620372048205920C22C222009F0A5C099
:14526200EB8DFC8D36962080318042805380889422203204F1
:145276004204520471F5EB8DFC8D3E96208031804280538067
:14528A0029863A864B865C8629843A844B845C848894222076
:14529E0032044204520409F040C040E050E060E070E0688366
:1452B20079839A01EB8DFC8D008111810E94CB1609871A8789
:1452C6002B873C87EB8DFC8D06871787208B318B28C0EB8D6C
:1452DA00FC8D20A031A0222011F4332079F026803780408482
:1452EE0051844882598291018F010E94431809871A872B8730
:145302003C8711C0EB8DFC8D2288338844885588488259824F
:145316009101008111810E94CB1609871A872B873C87298408
:14532A003A844B845C848894222032044204520409F4FCC118
:14533E0041E050E060E070E029843A844B845C8424163506EB
:145352004606570649F48B8D9C8D0496FC018081806880839D
:1453660002E006C24FEF5FEF6FEF7FEF29843A844B845C8417
:14537A00241635064606570651F48B8D9C8D04965C01FC0187
:14538E0080818068808301E0EFC129843A844B845C84EB8DFC
:1453A200FC8D228A338A448A558AEB8DFC8DA080B180268858
:1453B6003788408C518CF50162A473A484A495A4621473041A
:1453CA0084049504B9F440E050E060E070E0688379839A019F
:1453DE008F010E944011A02E002351F08B8D9C8D04965C01CE
:1453F200FC0180818068808301E0BCC1EB8DFC8D22883388FA
:1454060044885588488259829101008111810E94B7120D83A4
:14541A001E832F8338872D803E804F805884889422203204C2
:14542E004204520451F48B8D9C8D04965C01FC01808180686B
:14544200808302E097C12C2C3324442455246D807E808F808F
:145456009884620C731C841C951C6D827E828F82988629E0B1
:14546A0030E00F8D18A10E94225258010030010709F497C0CE
:14547E002C2C3324200E311EEB8DFC8DAF93BF93A081B18106
:14549200FD01BF91AF91428055244214530478F42C2C332475
:1454A600EB8DFC8DAF93BF93A081B181FD01BF91AF91A2805A
:1454BA00BB24A218B308AC822D803E804F80588428823982E1
:1454CE004A825B829701EB8DFC8DAF93BF93A081B181FD01A3
:1454E200BF91AF9101810E94C510C02E002351F08B8D9C8D9A
:1454F60004966C01FC0180818068808301E038C12D803E806D
:14550A004F805884EB8DFC8DA081B1819A966D907D908D9037
:14551E009C906218730884089508150144245524621473044B
:145532008404950408F032C080E092E099838883C080D180D0
:145546002D803E804F805884F60162A473A484A495A462184C
:14555A0073088408950840E052E060E070E09A928A927A9263
:14556E006A928A019B010E94315198012E0D3F1D8601025DCC
:145582001F4F0E94E7102224EB8DFC8DAF93BF93A081B181E0
:14559600FD01BF91AF91248200E012E095010E9421516801E8
:1455AA0099C0EB8DFC8D2284338444845584668077808084B4
:1455BE009184621473048404950428F140E050E060E070E0BD
:1455D200688379839A01008111810E944011A02E002351F00B
:1455E6008B8D9C8D04965C01FC0180818068808301E0BEC031
:1455FA002D803E804F805884EB8DFC8DA081B1819A962D9244
:14560E003D924D925C922D803E804F805884EB8DFC8D268A25
:14562200378A408E518E4FEF51E060E070E0EB8DFC8D268060
:14563600378040845184242235224622572240E052E060E000
:14564A0070E042195309640975096A010F8C18A00416150667
:14565E0008F46001EB8DFC8D26883788408C518C488259821F
:145672009101008111810E944011A02E002351F08B8D9C8D19
:1456860004965C01FC0180818068808301E070C0D982C8827A
:14569A0097014FEF51E060E070E0EB8DFC8D26803780408443
:1456AE00518424223522462257228101808191818E96080FC5
:1456C200191F0E94E71081E0EB8DFC8DAF93BF93A081B181BA
:1456D600FD01BF91AF918483EC0CFD1C8B8D9C8D06965C01E0
:1456EA00160144245524FC016080718082809380620C731CD4
:1456FE00841C951C6082718282829382E9A1FAA120803180E3
:145712002C0C3D1C318220820F8C18A00C181D0818A20F8EAA
:145726000F8C18A0002009F05BCD112009F058CDEB8DFC8D8B
:14573A002284338444845584668077808084918426143704F2
:14574E004804590440F4268037804084518422863386448649
:1457620055868B8D9C8D04965C01FC01808180628083002716
:1457760061960E947A51249608950E94C051A8012697FA0150
:14578A0022813381008111818ED8A02E002309F09FC0FA01F7
:14579E00248025FE9BC0228C338C448C558C48825982910180
:1457B200008111810E944011A02E002309F08CC0FA01668DB9
:1457C600778DCB010B96FC01808180628083FA012284338423
:1457DA0044845584FB01248EFA0122843384232C3324FB0172
:1457EE00258EFA012284338444845584120144245524FB010B
:14580200268E88E190E0FA0102851385248535858A930E94C9
:145816002952FB01078FFA012684378440885188FB01228EC4
:14582A00FA0126843784232C3324FB01238EFA012684378457
:14583E0040885188120144245524FB01248AFA0126843784B7
:14585200408851881201232C3324FB01258A0E94E2100A831C
:145866001B832C833D832A803B804C805D80FB01268A232C18
:14587A003324779620822A803B804C805D8012014424552412
:14588E00FB017896208288E190E00A811B812C813D818A93D2
:1458A2000E942952FB01018FBA016C5F7F4FFB0180818F7DEC
:1458B600808381E0FA01AF93BF93A081B181FD01BF91AF910A
:1458CA008483FA01008111810E94E211C02EAC2C0A2D269667
:1458DE000C94C9510E948B51680186014ADFA02E002329F457
:1458F20022243324F601318220820A2D0C9465510E944050FA
:145906000E9485516E97E8A5F9A522813381008111810E94D9
:14591A005824A02E002309F0A7C4E8A5F9A5248027FE02C0F2
:14592E0002E0A0C4E8A5F9A5B09620803180222019F43320BB
:1459420009F4E3C14FEF5FEF6FEF7FEF2AA43BA44CA45DA4BA
:14595600241635064606570609F009C1E8A5F9A5E0A0F1A020
:14596A00F70121903190419051907F012E8A3F8A488E598E4F
:14597E0082E08E8780E08F87888B898BE8A5F9A53E96208062
:145992003180428053802A823B824C825D822A803B804C8074
:1459A6005D808894222032044204520409F4BBC02A803B8003
:1459BA004C805D802A8A3B8A4C8A5D8A80E08A878B878C8764
:1459CE008D8742E050E060E070E02E843F8448885988240E77
:1459E200351E461E571E2E863F86488A598A2A803B804C8026
:1459F6005D802E823F824886598641E050E060E070E02A8413
:145A0A003B844C845D84240E351E461E571E2A863B864C8677
:145A1E005D862A803B804C805D80488259829101E8A5F9A521
:145A3200008111810E9409130A831B832C833D8341E050E0A4
:145A460060E070E02A803B804C805D8042155305640575051C
:145A5A0048F088A599A50496FC0180818068808302E002C46A
:145A6E004FEF5FEF6FEF7FEF2A803B804C805D802416350649
:145A82004606570651F488A599A504966C01FC0180818068CA
:145A9600808301E0EBC341E050E060E070E02E803F80488450
:145AAA005984240E351E461E571E6A807B808C809D80621429
:145ABE0073048404950409F494CF2E883F88488C598C6E84B4
:145AD2007F8488889988261437044804590490F02A843B8481
:145AE6004C845D84F70121923192419251922A883B884C888E
:145AFA005D8821923192419251927F01E8A5F9A5A081B18189
:145B0E0056962D903D904D905C906A807B808C809D806214C0
:145B220073048404950408F445CF2E843F8448885988E8A514
:145B3600F9A5B096A081B1812D923D924D925C922E883F884C
:145B4A00488C598C6E847F848888998826143704480459044A
:145B5E0038F0F70180E0808381838283838381C381E1A82E25
:145B72007EC3E8A5F9A53A9620803180428053806AA47BA4D0
:145B86008CA49DA4261437044804590458F4E8A5F9A53A9635
:145B9A0020803180428053802AA63BA64CA65DA62AA43BA4BE
:145BAE004CA45DA4E8A5F9A5369620823182428253828894F1
:145BC200222032044204520409F451C341E050E060E070E0C9
:145BD600241A350A460A570A48825982910108A519A50E9449
:145BEA004318E8A5F9A5028B138B248B358B22883388448856
:145BFE005588488259829101008111810E94B7120A8F1B8FBE
:145C12002C8F3D8F2A8C3B8C4C8C5D8C8894222032044204DF
:145C2600520451F488A599A504967C01FC0180818068808364
:145C3A0002E01AC341E050E060E070E00AA51BA52CA53DA594
:145C4E00041B150B260B370B89E090E08A930E942952180164
:145C62002901E8A5F9A5AF93BF93A081B181FD01BF91AF9164
:145C760032968081992701973C01882477FC8094992487FC49
:145C8A00909426203720482059206A8C7B8C8C8C9D8C620CB8
:145C9E00731C841C951C6A8E7B8E8C8E9D8E4FEF51E060E01D
:145CB20070E0E8A5F9A5369620803180428053802422352214
:145CC600462257228894222032044204520409F4CCC2E8A5A1
:145CDA00F9A5769620803180428053806A8C7B8C8C8C9D8CE8
:145CEE00621473048404950409F4BBC213012401E8A5F9A5B6
:145D0200268A378A408E518EB2C2E8A5F9A53A9620803180AF
:145D1600428053806AA47BA48CA49DA4261437044804590428
:145D2A0070F4E8A5F9A5248021FC09C03A9620803180428069
:145D3E0053802AA63BA64CA65DA6E8A5F9A536962080318090
:145D5200428053802E863F86488A598A80E08A878B878C87E4
:145D66008D87E8A5F9A5369680E080838183828383832AA4DE
:145D7A003BA44CA45DA48894222032044204520409F426C230
:145D8E00E8A5F9A5AF93BF93A081B181FD01BF91AF91329699
:145DA200208033244424552440E052E060E070E05A924A926B
:145DB6003A922A928A019B010E9431510E831F832887398764
:145DCA002E843F84488859888894222032044204520409F472
:145DDE0075C041E050E060E070E081019201041B150B260B16
:145DF200370B2E803F80488459845A924A923A922A920E9453
:145E06008B501801290141E050E060E070E00AA51BA52CA549
:145E1A003DA5041B150B260B370B6E807F80888499849A929E
:145E2E008A927A926A920E948B50021513052405350508F431
:145E420043C041E050E060E070E02E803F8048845984241A14
:145E5600350A460A570A209430944094509441E050E060E087
:145E6A0070E06E847F8488889988641A750A860A970A6220FE
:145E7E00732084209520E8A5F9A5668277828086918636962F
:145E920020803180428053806AA47BA48CA49DA46218730883
:145EA600840895086AA67BA68CA69DA6E8A5F9A57296208046
:145EBA003180428053802A823B824C825D8269C0E8A5F9A524
:145ECE003E9620803180428053802A823B824C825D822A8046
:145EE2003B804C805D808894222032044204520409F049C016
:145EF60040E050E060E070E0688379839A01E8A5F9A500818A
:145F0A0011810E94CB160A831B832C833D8341E050E060E043
:145F1E0070E02A803B804C805D80241635064606570651F4AE
:145F320088A599A504967C01FC0180818068808302E096C1B7
:145F46004FEF5FEF6FEF7FEF2A803B804C805D80241635066C
:145F5A004606570651F488A599A504967C01FC0180818068DD
:145F6E00808301E07FC12A803B804C805D80E8A5F9A5268616
:145F82003786408A518A2A803B804C805D80E8A5F9A5228AC4
:145F9600338A448A558A2A803B804C805D80889422203204EB
:145FAA004204520409F414C1A7C0E8A5F9A53496208021FE5A
:145FBE0024C02A803B804C805D80488259829101E8A5F9A57B
:145FD200008111810E94CB160A831B832C833D832A803B8026
:145FE6004C805D8088942220320442045204D1F42E803F809C
:145FFA00488459842AA63BA64CA65DA68BC02A803B804C80C8
:14600E005D80488259829101E8A5F9A5008111810E9409136E
:146022000A831B832C833D834FEF5FEF6FEF7FEF2A803B8013
:146036004C805D80241635064606570651F488A599A5049645
:14604A007C01FC0180818068808301E00DC141E050E060E09C
:14605E0070E02A803B804C805D80421553056405750590F4BA
:14607200E8A5F9A5A081B18156962D903D904D905C906A8073
:146086007B808C809D80621473048404950450F088A599A529
