:040000000C94C60393
:040078000C94693F3C
:14008C0051550000003F0000C03F0000104233C4313C0000C6
:1400A0000442333327418FC285409A99193F9A99993E00008D
:1400B400804100005041CDCCCC3D00004040D7A328430000DF
:1400C80020410000003F0000204100000000000040C19A99EF
:1400DC008DC166E6F6420000803D286E756C6C207074722008
:1400F000706173736564290000000000002020202020202073
:14010400202030303030302020202020202020202020202017
:14011800202020202090404040404040404040404040404023
:14012C00400C0C0C0C0C0C0C0C0C0C40404040404040090935
:14014000090909090101010101010101010101010101010177
:14015400010101014040404040400A0A0A0A0A0A02020202CF
:14016800020202020202020202020202020202024040404063
:14017C0020000000000000000000000000000000000000004F
:1401900000000000000000000000000000000000000000005B
:1401A400000000000000000000000000000000000000000047
:1401B800000000000000000000000000000000000000000033
:1401CC0000000000000000000000000000000000000000001F
:1401E00000000000000000000000000000000000000000000B
:1401F40000000000000000000066746F61206572726F723AC9
:14020800206E756D62657220746F6F206269670066746F61CB
:14021C00206572726F723A206E756D62657220746F6F20739C
:140230006D616C6C0066746F61206572726F723A20756E657E
:1402440078706563746564206572726F72000000003F17B762
:14025800D138000020410000803F000080BF00000000090021
:14026C00000A0000000000003230313330312E786C730000C8
:1402800000003230313230312E786C730000000044455630B0
:140294003030303031090909090909090909090D0AD0F2BA78
:1402A800C509C8D5C6DA09CAB1B7D609CEC2B6C809B7E7CB9D
:1402BC00D909B7E7C0E4D6B8CAFD09B5C8BCDBD6C6C0E4CE8A
:1402D000C2B6C809CFE0B5B1CEC2B6C809B6B3C9CBCEA3BA7D
:1402E400A6D0D409B0B2BEB2D7F7D2B509D6D0B5C8C7BFB624
:1402F800C8D7F7D2B509B8DFC7BFB6C8D7F7D2B50A000030A2
:14030C000930093009300082068A069306A106AB06B406C0AF
:1403200006CA0682068A069306A106AB06B406C006CA06009A
:14033400000000000025640025232E316C6600202020202013
:14034800202020202020202020202000202000BCD3C8C8BF23
:14035C00AAB9D800706F77657220D6B8CABEB5C600B7E4C316
:14037000F9C6F700B7E7CBD9C2F6B3E5A3BA00C4DAB2BFCEF7
:14038400C2B6C8002523302E316600CDE2B2BFCEC2B6C8209A
:1403980000A9B8A9A4A9A4A9A4A9A4A9A4A9A4A9BC00A9A66E
:1403AC00202020202020202020202020A9A600A9A62020D708
:1403C000D4BCECB3CCD0F22020A9A600A9B0A9A4A9A4A9A49D
:1403D400A9A4A9A4A9A4A9B400222A2B2C3A3B3C3D3E3F5B68
:1403E8005D7C7F004000000000955800000000FF510000002C
:1403FC0000FF5100000000FFB8DFC7BFB6C8D7F7D2B5A3BA51
:140410000000D6D0B5C8C7BFB6C8D7F7D2B5A3BA0000B5CD7D
:14042400C7BFB6C8D7F7D2B5A3BA0000BCD3C7BFC0CDB6AF07
:14043800BCE0B6BDA3BB0000D4F6BCD3D2FBCBAE3B0000B1B8
:14044C00A3B3D6B8C9D4EFBDFBC2E3C2B6A1A30000B4F7C3A5
:14046000E6D5D6A1A30000BDFBD3CDB2CAA1A30000CBF5B625
:14047400CCD7F7D2B5CAB1BCE4A1A300D0DDCFA2D7A2D2E2A9
:14048800B1A3C5AFA1A30000BCF5C9D9B7C7B1D8D0EBD7F771
:14049C00D2B5A3BB0000C0CDB6AFCAB1BCE43C33306D696E77
:1404B000A1A30000C8A1CFFBB7C7B1D8D0EBB5C4D7F7D2B531
:1404C4000000C0CDB6AFCAB1BCE43C31356D696EA3BB0000D3
:1404D800C8A1CFFBBBA7CDE2D7F7D2B5A1A3002D2D2D2D2D52
:1404EC002D2D2D2D2D2D2D2D2D2D2D003039D4C23139C8D507
:1405000031383A30303A303000A1FC00A1FD0032303132301A
:14051400312E786C73000000BBB7BEB3C0E4C7BFB6C8BCECEA
:14052800B2E2D2C700BBB6D3ADCAB9D3C30049443A20202061
:14053C002020202020202020202000D7EEBAF3D2BBB4CE00EA
:14055000B0B4CBB3D0F200B2CBB5A52F20B2E9D1AF00B2E917
:14056400D5D2CAFDBEDD3A00CEB4BCECB2E2B5BD5344BFA812
:140578002E2E0020202020202020202020D2D1B1A3B4E60042
:14058C0020202020002020202020202020B7C5C6FAD0DEB839
:1405A000C4002020202020202020202020202020202000B1D2
:1405B400A3B4E600CAB1BCE4C9E8D6C33A2020202020202077
:1405C8000031323A2033303A203539000032303132C4EA3193
:1405DC0032D4C23331C8D50000BDFBD3CDB2CAA1A3202020CA
:1405F00020202020200000B4F7C3E6D5D6A3BBBDFBD3CDB2F0
:14060400CAA1A300B6B3C9CBCEA3BAA6D0D4D0A1A1A300208D
:1406180020B6B3C9CBCEA3BAA6D0D4BADCB4F3002020B6B356
:14062C00C9CBCEA3BAA6D0D4BDCFB4F3002020B6B3C9CBCE73
:14064000A3BAA6D0D4D0A100B6B3C9CBCEA3BAA6D0D43A00E2
:14065400CFE0B5B1CEC2B6C83A2000B5C8BCDBCEC2B6C83AB9
:140668002000B7E7C0E4D6B8CAFD3A2000B7E7CBD9286D2F67
:14067C0073293A20202020202000CEC2B6C82028A1E6293A94
:1406900020202020202000BEE0CFC2B4CE3A00CDEAB3C9BCBC
:1406A400ECB2E22020202020202020002D2DBCC6CBE3B2A2E4
:1406B800B4E6B4A22D2D2020202020202000D5FDD4DABCECDC
:1406CC00B2E2A3BA002E2E00CDCBB3F62020202000CAD6B6B6
:1406E000AF00D7D4B6AF00B2CBB5A52F20BCECB2E2002020A5
:1406F400B5A5B4CEBCECB2E200BCECB2E2BCE4B8F42873298E
:140708003A002020D1ADBBB7BCECB2E200CAD5B5BDC3FCC1A6
:14071C00EEA3BA0020202020202000B5E7C1BFB5CD002020E0
:14073000B3F5CABCBBAF002020B2E9D1AF2020CAFDBEDDB46C
:14074400ABCAE4002020BCECB2E22020CAB1D6D3B5F7D5FBEC
:1407580000FF4445563030303031B144454C3D0017061706C1
:14076C0017061706202020202020202020202020202020203F
:1407800000200000200C0A1C22460006CFEFD0E1CDBFDEBFED
:14079400C050D1400AEA08830024E2E2F6E019E0EE38F107DC
:1407A80011F00192FBCF0083EAE6F2E0A0E0B1E017E000E0D2
:1407BC000BBFEC38F10721F0C89531960D92F9CF0E944304BE
:1407D000FFCFF8948FEF8ABB8BBB87BB88BB84BB85BB82B973
:1407E40083B980936400809365000E94423F0E9459410E94D5
:1407F800822E0E94583F0E94774102E310E00E94392E0E942A
:14080C00774101E00E946D4122242092FE0880E08093FF0877
:140820008093000980930109809302098CE38093E90880E09A
:140834008093EA088093EB088093EC0885E08093FB0884E1BE
:1408480090E09093F7088093F60833243092F9082092F8082D
:14085C0081E08093F5082092FA088093FC088093E608209299
:14087000FD087894089522242EBC2DBC2CBC2FBC86E48EBD25
:140884000895EF97EF97EF97EF97EF97EF97EF97EF97679795
:140898008AE091E0FE01EF5FFD4F0EE010E0FA93EA939A93C3
:1408AC008A930E948E4EAA24BB248DDF01E00E94D03B6ED1B7
:1408C0008E010F5F1D4F70D79E01E3D2180144245524309264
:1408D4007F0620927E0650928106409280060E94B33B25C01F
:1408E8000E945B30A02E4A2D55274330E0E05E0769F04430A9
:1408FC00E0E05E0761F04530E0E05E0759F04730E0E05E07F3
:1409100059F00BC00E94713108C00E94B33705C08E010E9431
:14092400083A01C05CD004E610E00E94392E0DD0A02E0023DF
:14093800B9F6EF96EF96EF96EF96EF96EF96EF96EF966796D7
:14094C0008950E94F34D24970E949C3D0E94473F40900109E0
:14096000509002092090FF08309000098090F3089090F408F1
:140974006090F1087090F208261437044804590450F545E004
:1409880050E060E070E013012401240E351E461E571E309242
:14099C0000092092FF0850920209409201090E94393F00277B
:1409B0000E940C47088319832A833B83CE010091FB08112711
:1409C4000E94894F9A938A930E9453511CF4AD9801E002C01D
:1409D800AD9A01E024960C94F84D649702ED10E00E94664D15
:1409EC000C831D832E833F8302E612E00E94A64401E512E017
:140A00000E94A64400E412E00E94A6440FE212E00E94A64485
:140A140004EF11E00E94392E05E212E00E94A64401E00E94F9
:140A2800EE460C831D832E833F832C803D804E805F80288224
:140A3C0039824A825B822EE132E08E01085F1F4F0E945B556B
:140A500022242E868E01085F1F4F0E94A64404EF11E00E9422
:140A6400392E05E112E00E94A64400270E94EE460C831D8387
:140A78002E833F832C803D804E805F80288239824A825B82D3
:140A8C002EE132E08E01025F1F4F0E945B5522242C8A8E01FA
:140AA000025F1F4F0E94A64404EF11E00E94392E0AE012E01E
:140AB4000E94A64404EF11E00E94392E03E012E00E94A64454
:140AC80022E002E00E941E4504EF11E00E94392E06EF11E05E
:140ADC000E94A644A79AAF9A04E610E00E94392EA79AAF9885
:140AF00004E610E00E94392EA79AAF9A04E610E00E94392EA2
:140B0400A79AAF9804E610E00E94392EA79AAF9A04E610E00E
:140B18000E94392EA79AAF9804E610E00E94392E04EF11E071
:140B2C000E94392E0DEE11E00E94A644AD9A04E610E00E9471
:140B4000392EAD9804E610E00E94392EAD9A04E610E00E944F
:140B5400392EAD9804E610E00E94392E0AEE11E00E94A64489
:140B680004EF11E00E94392E09ED11E00E94A64409ED11E032
:140B7C000E94A64409ED11E00E94A64409ED11E00E94A644F3
:140B900004E610E00E94392E649608950E94E44DEF97EF97F8
:140BA400EF97EF97EF97EF97EF97EF97EF97EF97EF97AA9746
:140BB80088E191E0FE01B6960EE010E0FA93EA939A938A93D2
:140BCC000E948E4E86E291E0FE01F4960BE710E0FA93EA9349
:140BE0009A938A930E948E4E00270E94BF0C9E012F543F4FF5
:140BF40000270E94AB208E010A5D1F4FD3D5680182E1888376
:140C080096018E010C5F1F4F0E94D620CE0181559F4F9B8390
:140C1C008A8380E890E0998388839E012C5C3F4F8E010C5F09
:140C30001F4F0E94DD24C02EAC2C8E010C5F1F4F0E94A72800
:140C44002227332700270E94AB20EF96EF96EF96EF96EF96CC
:140C5800EF96EF96EF96EF96EF96EF96AA960C94BE4DAA9243
:140C6C00CA92EF97EF97EF97EF97EF97EF97EF97EF97EF9762
:140C8000E09780E08EA38FA388A789A700270E94BF0C9E0194
:140C9400245D3F4F00270E94AB208E01065A1D4F81D582E195
:140CA800888398018E010C5F1F4F0E94D6202E843F8448884F
:140CBC0059882EA23FA248A659A62EA03FA048A459A4488245
:140CD000598291018E010C5F1F4F0E94B728CE018A969B83AD
:140CE4008A8380E490E09983888324E236E08E010C5F1F4F70
:140CF8000E94DD24C02EAC2C8E010C5F1F4F0E94A72822275D
:140D0C00332700270E94AB20EF96EF96EF96EF96EF96EF96C7
:140D2000EF96EF96EF96E096C990A99008950E94DE4D790144
:140D34006801EF97EF97EF97EF97EF97EF97EF97EF97EF978C
:140D48006F97FE01E05AFD4FA080B180FE01EE59FD4F608148
:140D5C0000270E94BF0C9E01285D3F4F00270E94AB2081E048
:140D7000888396018E010C5F1F4F0E94D620402F043019F41D
:140D8400AA24BB2478C080E890E0A0E0B0E00E851F852889A6
:140D98003989081B190B2A0B3B0B86E090E08A930E94824E5E
:140DAC006801662329F4F0922306E09222060CC0613051F43D
:140DC00020902206309023062E0C3F1C309223062092220604
:140DD4002090220630902306C214D30428F4D0922306C092A4
:140DE80022060FC022243324409022065090230624143504F1
:140DFC0034F081E090E09093230680932206209122063091CD
:140E1000230600E410E00E947A4DC8018054904080589F4F35
:140E24001C01442437FC4094552447FC509448825982910157
:140E38008E010C5F1F4F0E94B728C02ECE0186969B838A83B9
:140E4C0080E490E09983888395018E010C5F1F4F0E94722263
:140E6000A02E4A2D8E010C5F1F4F0E94A72822273327002796
:140E74000E94AB20042FEF96EF96EF96EF96EF96EF96EF9627
:140E8800EF96EF966F960C94D34D3A932A930E94DE4D5801D7
:140E9C00EF97EF97EF97EF97EF97EF97EF97EF97EF97A8974D
:140EB00080E08C838D838E838F830024DE01A25ABD4F0C92E3
:140EC400750180E0888789878A878B87AA24BB249E01205D39
:140ED8003F4F00270E94AB2081E1888397018E01045F1F4F7F
:140EEC000E94D620C02E002311F0112710C12E883F88488CEE
:140F0000598C288639864A865B8640E052E060E070E028844C
:140F140039844A845B84421553056405750564F480E092E0A3
:140F28005C012E883F88488C598C288639864A865B8607C03D
:140F3C00AE88BF8880E0888789878A878B871501442437FCD1
:140F50004094552447FC50946E887F88888C998C62187308EE
:140F6400840895088882998293018E01045F1F4F0E94B728B6
:140F7800CE018E969B838A83B982A882FE01E759FD4F2081B6
:140F8C0031818E01045F1F4F0E947222E02ECE2C8E01045F0F
:140FA0001F4F0E94A72840C0F501DE01A759BD4F0D901C9034
:140FB400E00DF11D80818A3069F4FE01E25AFD4F00800020EF
:140FC80039F400240394FE01E25AFD4F008225C0F501DE016A
:140FDC00A759BD4F0D901C90E00DF11D80818A30D1F4DE0152
:140FF000A25ABD4F8C918130A1F480E092E01C012A183B080E
:1410040044245524688479848A849B846218730884089508C3
:14101800688679868A869B8609C0C50101975C01AA2009F05F
:14102C00BDCFBB2009F0BACF46E750E060E070E02884398471
:141040004A845B84241635064606570634F401E010E063C0B5
:14105400C50101965C01F501DE01A759BD4F0D901C90E00DB7
:14106800F11DE080FF2480E38E1580F78E2D893368F72FC0A1
:14107C00F501DE01A759BD4F0D901C90E00DF11D808199277A
:14109000C0971C01442437FC4094552447FC50946C807D80E0
:1410A4008E809F804AE050E060E070E09A928A927A926A92D1
:1410B8008A019B010E948A4D38014901620C731C841C951CB3
:1410CC006C827D828E829F82C50101965C01F501DE01A75963
:1410E000BD4F0D901C90E00DF11DE080FF248E2D843731F092
:1410F400803320F089E38E1508F0BECF41E050E060E070E0B0
:141108002C803D804E805F80240E351E461E571E8101EF9658
:14111C00EF96EF96EF96EF96EF96EF96EF96EF96A8960E94B7
:14113000D34D229608950E94994C0EEC10E00E94664DCE01A1
:141144009A938A930E942451088319832A833B832880398043
:141158004A805B8002ED10E00E94664D3A932A931A930A93D6
:14116C00810192010E945E51ACF0288039804A805B800AEC71
:1411800010E00E94664D3A932A931A930A93810192010E948B
:141194001A4F088319832A833B8314C0288039804A805B8072
:1411A8000AEC10E00E94664D3A932A931A930A93810192010F
:1411BC000E942F4F088319832A833B83088119812A813B81E3
:1411D0000E94554F0E94894F088319832A833B832880398058
:1411E4004A805B8006EC10E00E94664D3A932A931A930A9347
:1411F800810192010E94B44F088319832A833B830881198174
:14120C002A813B81249608950E94E44D2497CFB6F894ACB411
:14122000BDB4CFBE789422242EBC85010E94874F180129013F
:1412340002EC10E00E94664D3A932A931A930A93810192018A
:141248000E94B44F1093A8060093A7063093AA062093A90687
:14125C00180129010EEB10E00E94664D3A932A931A930A9329
:14127000810192010E945E51ECF44090A9065090AA06209065
:14128400A7063090A8060AEB10E00E94664D3A932A931A93CA
:141298000A93810192010E942F4F1093A8060093A70630931C
:1412AC00AA062093A90685C04090A9065090AA062090A7066B
:1412C0003090A80606EB10E00E94664D3A932A931A930A93A2
:1412D400810192010E945E5164F487EA96E00EEB10E00E94D6
:1412E800664D9A938A930E9453510CF464C04090A90650902C
:1412FC00AA062090A7063090A80606EB10E00E94664D3A9360
:141310002A931A930A93810192010E945E5144F187EA96E040
:1413240002EB10E00E94664D9A938A930E945351ECF0409047
:14133800A9065090AA062090A7063090A8060EEA10E00E940D
:14134C00664D3A932A931A930A93810192010E941A4F109343
:14136000A8060093A7063093AA062093A90627C087EA96E0E8
:1413740002EB10E00E94664D9A938A930E945351E4F44090FB
:14138800A9065090AA062090A7063090A8060AEA10E00E94C1
:14139C00664D3A932A931A930A93810192010E941A4F1093F3
:1413B000A8060093A7063093AA062093A9062091A906309145
:1413C400AA060091A7061091A806B3DE1093A8060093A706B6
:1413D8003093AA062093A90601E00E94EE4610939E0600939B
:1413EC009D063093A00620939F0601E00E94EE4610939E068B
:1414000000939D063093A00620939F0694DE10939E06009395
:141414009D063093A00620939F062091A9063091AA060091FE
:14142800A7061091A806FBD11801290106EA10E00E94664D70
:14143C00380149010EEC10E00E94664D5A924A923A922A928A
:141450000E942E511801290102EA10E00E94664D3A932A9369
:141464001A930A93810192010E941A4F87EA96E09A938A93D9
:141478000E943A4F830194010E942E51180129010EE910E0D1
:14148C000E94664D8DE996E09A938A930E943A4F8101920181
:1414A0000E942E511093B1060093B0063093B3062093B2068D
:1414B4000EE910E00E94664D180129010AE910E00E94664D6D
:1414C80080EB96E09A938A930E943951810192010E942F4F84
:1414DC001093BD060093BC063093BF062093BE0640909F06CD
:1414F0005090A00620909D0630909E063101420106E910E057
:141504000E94664D3A932A931A930A93830194010E942F4F71
:14151800380149010EEC10E00E94664D3A932A931A930A9329
:14152C00830194010E94B44F87EA96E09A938A930E94395190
:14154000810192010E941A4F1093C7060093C6063093C90616
:141554002093C8064090A9065090AA062090A7063090A80628
:14156800288239824A825B8222ED31E00BEA16E00E945B5504
:14157C0040909F065090A00620909D0630909E062882398244
:141590004A825B8222ED31E001EA16E00E945B554090B206C3
:1415A4005090B3062090B0063090B106288239824A825B82AF
:1415B80022ED31E004EB16E00E945B554090BE065090BF068F
:1415CC002090BC063090BD06288239824A825B8222ED31E0E8
:1415E00000EC16E00E945B554090C8065090C9062090C606FA
:1415F4003090C706288239824A825B8222ED31E00AEC16E03C
:141608000E945B55409080065090810620907E0630907F0646
:14161C00288239824A825B822FEC31E002E816E00E945B554E
:1416300022242092A7062092B0062092BB062092C6062092F6
:14164400D00624960C94BE4DAA92689781EA91E0FE0170963B
:1416580008E010E0FA93EA939A938A930E948E4E89EA91E0F0
:14166C00FE0100E110E0FA93EA939A938A930E948E4EAA24FA
:1416800009C084E296E0EA2DFF27E80FF91F22242082A39446
:1416940080E58A15A0F7AA2414C0CE01EA2DFF27EE0FFF1FDE
:1416A800E80FF91F2081318104E216E00E94804C20E031E071
:1416BC0004E216E00E94804CA39487E08A1548F72090D006CE
:1416D0003888320C388A2090D106320C3A8A2090D206388875
:1416E400320C3C8A2090D3063888320C3E8A9E01205F3F4FF3
:1416F80004E216E00E94804C23E031E004E216E00E94804C36
:14170C002DEC31E004E216E00E94804C6896A99008950E94DF
:14172000E04D78016097CC2489EB91E0FE0100E110E0FA93E6
:14173400EA939A938A930E948E4ECE01EC2DFF27EE0FFF1F33
:14174800E80FF91FA080B180A70126C0FA0180818A3021F4D4
:14175C002224F50120821FC0FA0180818930A1F42224F50136
:1417700020824F5F5F4F87E08C1508F412C0C394CE01EC2D52
:14178400FF27EE0FFF1FE80FF91FA080B18006C0FA01D50119
:141798000190AF010D925D01D9CF60960C94CA4D0E94F34DC8
:1417AC0044270DC08AE896E0E42FFF27E80FF91F2080E42F0E
:1417C000FF27E00FF11F20824395463088F3242E33244F5F2E
:1417D400E22DFF27E00FF11F8EE28083242E33244F5FE22DF4
:1417E800FF27E00FF11F88E78083642F77274F5FE62FFF273C
:1417FC00E00FF11F8CE68083642F77274F5FE62FFF27E00F5C
:14181000F11F83E78083E42FFF27E00FF11F222420820C9487
:14182400F84D0E94994C0E94F34D609702E910E00E94664DDB
:141838000C871D872E873F870EE810E00E94664DCE01449606
:14184C009A938A930E942451088719872A873B872C883D880C
:141860004E885F88288239824A825B82FE0120803180428097
:1418740053802C823D824E825F822C803D804E805F80559470
:141888004794379427944FED59E567E37FE54219530964099F
:14189C0075094C835D836E837F83FE0134962080318042803C
:1418B0005380288239824A825B82288039804A805B806C844D
:1418C4007D848E849F84088519852A853B85CE019A938A9327
:1418D8000E942451CE019A938A930E943951830194010E94E5
:1418EC00474F810192010E942E51088319832A833B832880E2
:1419000039804A805B806C847D848E849F84088519852A8575
:141914003B85CE019A938A930E942451CE019A938A930E9414
:141928003951830194010E94474F810192010E942E5108830F
:14193C0019832A833B830C891D892E893F89CE019A938A93BD
:141950000E94245160960E94F84D249608950E94994C2497F6
:1419640089EC91E0FE0104E010E0FA93EA939A938A930E94C0
:141978008E4E28960895AA924A93A02EAA2011F001E00CC0C5
:14198C000E94822E402F023011F402E005C0442311F001E05F
:1419A00001C000274991A9900895002311F001E001C00027AE
:1419B40008950E94E04D6901E02E22974E85AA24EE2011F4CE
:1419C800442311F404E010C0413049F4D982C8820A851B8569
:1419DC002C853D850E94682FA02EAA2011F4002701C001E0E5
:1419F00022960C94CA4D0E94E24D5901E02E2297CC84EE2024
:141A040011F4CC2011F404E009C0B982A882088519852A85EC
:141A18003B850E94E22E002722960C94C34D0E94994C00270B
:141A2C002496089505ED1FEB21E434E708950E940B4E4E81CC
:141A40005F815801690106C0F601D50101906F010D925D015E
:141A54001A01415050402220A9F7332099F70C94124E0E94DB
:141A6800E94D4C815D81580103C0F50121935F011A014150B7
:141A7C0050402220C1F73320B1F70C94EE4D0E94E04D48855A
:141A9000598568017901AA24BB241A0141505040222011F451
:141AA400332079F0F70121907F013324F60141906F01552441
:141AB800421853085201AA2011F4BB2051F385010C94CA4DE7
:141ACC0002C00F5F1F4FF80120803324222021F03324221696
:141AE0003306A9F7F8010081112708953A932A930E94E94D68
:141AF400A8012997FA01BA9620803180428053802D823E82D5
:141B08004F8258862D843E844F8458886D807E808F809884DE
:141B1C00621473048404950409F47EC0FA012480222009F48E
:141B300055C081E08C8313012401288239824A825B829A013A
:141B4400225D3F4F01810E94FB0C002311F001E068C02224E2
:141B5800FA012482228C338C448C558C7E96608071808280D3
:141B6C009380620C731C841C951C2D803E804F8058842614B4
:141B800037044804590450F5FA01A38024C0FA017A9620807B
:141B94003180428053806D807E808F809884620C731C841C44
:141BA800951C6D827E828F82988681E08C832D803E804F80B0
:141BBC005884288239824A825B829A01225D3F4FFA01018106
:141BD0000E94FB0CAA9481E08A15C8F22D843E844F8458883A
:141BE40088942220320442045204D1F081E08C832882398227
:141BF8004A825B829A01225D3F4FFA0101810E94DB0C00235F
:141C0C0011F001E00AC02D843E844F845888FA0122A633A656
:141C200044A655A6002729960E94EE4D229608950E94F34DD1
:141C3400B801259780E090E0A0E0B0E0A883B9839C018B01B7
:141C480051DF402F002309F0C0C0FB018081833009F0ACC038
:141C5C002580222009F4A8C0BA9680E0808381838283838366
:141C700080E092E099838883222733278B01025D1F4FF1DE9C
:141C840085E5FB01E45DFD4F8083EC52F2408AEAE35DFD4FE6
:141C98008083ED52F24082E586A787A781E680AB81E481ABDF
:141CAC0082E7EE5EFD4F8083E251F240ED5EFD4F8083E351ED
:141CC000F24081E4EC5EFD4F8083E451F24081E6EB5EFD4F7D
:141CD4008083E551F2402684378440885188EA5EFD4F208255
:141CE800E651F24026843784232C3324E95EFD4F2082E75107
:141CFC00F2402684378440885188120144245524E85EFD4F16
:141D10002082E851F24088E190E006851785208931898A9332
:141D24000E94824EFB01E75EFD4F0083E951F2402284338460
:141D380044845584E65EFD4F2082EA51F24022843384232CAB
:141D4C003324E55EFD4F2082EB51F24022843384448455848F
:141D6000120144245524E45EFD4F2082EC51F24088E190E003
:141D740002851385248535858A930E94824EFB01E35EFD4FC1
:141D88000083ED51F24081E08C83228833884488558828822C
:141D9C0039824A825B829F01225D3F4F01810E94FB0C2224B1
:141DB000FB012582222433243982288222273327FB01018159
:141DC40011270E94130D0030010709F041E0042F25960C9431
:141DD800F84D3A932A930E94FD4D580142E050E060E070E001
:141DEC002E803F8048845984241A350A460A570A2E823F822E
:141E00004886598642E050E060E070E0F501769620803180EC
:141E140042805380241A350A460A570A6E807F8088849984E1
:141E2800621473048404950428F000E010E020E030E01DC0C3
:141E3C00F501329620803324442455240E811F812885398562
:141E50005A924A923A922A920E948A4D18012901F50166A076
:141E640077A080A491A4260C371C481C591C810192010E94E5
:141E7800044E229608953A932A930E94DE4D6801229742E014
:141E8C0050E060E070E02C843D844E845F842416350646069B
:141EA000570678F0F601769620803180428053806C847D848F
:141EB4008E849F84621473048404950428F001E010E020E0EE
:141EC80030E024C1F601A080BB24C5018130E0E09E0759F0F6
:141EDC008230E0E09E0709F46FC08330E0E09E0709F4A6C034
:141EF0000DC1AC84BD84150136942794A20CB31C29E030E06E
:141F040085010E947B4E180144245524F601668C778C80A0D2
:141F180091A0620C731C841C951C8882998293018F01E0DD30
:141F2C00002309F0EDC0C6018E96F501F170E80FF91FE08027
:141F4000FF24C50101965C0129E030E08C010E947B4E180186
:141F540044245524F601668C778C80A091A0620C731C841CBE
:141F6800951C8882998293018F01BCDD002309F0C9C0C60166
:141F7C008E96F501F170E80FF91F20803324322C2224E22822
:141F9000F3282C843D844E845F84E22DE17051F05701B694B9
:141FA400A794B694A794B694A794B694A79403C0C7019F70C5
:141FB8005C018501960122273327A8C088E090E00C851D8585
:141FCC002E853F858A930E94824EF601268C378C40A051A0BE
:141FE000200E311E421E531E4882598291018F017DDDA02EB0
:141FF400002309F089C04FEF51E060E070E02C843D844E8432
:142008005F84220C331C441C551C24223522462257225101C3
:14201C00C6018E96A80EB91EF5012080332401811127102F52
:14203000002702291329222733276CC087E090E00C851D8535
:142044002E853F858A930E94824EF601268C378C40A051A045
:14205800200E311E421E531E4882598291018F0141DDE02E33
:14206C00002309F04DC082E090E00C851D852E853F858A939E
:142080000E94694E180129014FEF51E060E070E02422352214
:14209400462257225101C6018E96A80EB91E88E190E0F501BE
:1420A80003811127222733278A930E94694E18012901F50116
:1420BC006280772488249924430166247724262837284828A4
:1420D000592861807724762C6624882499242628372848284D
:1420E4005928608077248824992426283728482859284FEFA7
:1420F8005FEF6FEF7FE024223522462257228101920104C072
:14210C000FEF1FEF2FEF3FEF22960E94D34D229608950E94F6
:14212000994C0E94DE4D239742E050E060E070E02F843888EA
:1421340049885A88241635064606570680F0ED85FE85769655
:1421480020803180428053806F84788889889A88621473048A
:14215C008404950418F082E08A8394C1ED85FE85A080BB248E
:14217000C5018130E0E09E0759F08230E0E09E0709F4B0C0B2
:142184008330E0E09E0709F4E7C07AC1CF84D88816013694BC
:142198002794C20CD31C29E030E086010E947B4E180144242F
:1421AC005524ED85FE85668C778C80A091A0620C731C841CCE
:1421C000951C8882998293018F0190DC0A83002E002309F0CE
:1421D40059C18D859E858E96F601F1707F01E80EF91E2F84EC
:1421E800388849885A88EF93E22DE170EF91B1F02B883C88F6
:1421FC004D885E883324220C331C220C331C220C331C220C18
:14221000331CF701808199278F7090705C01A228B32806C0EB
:142224002B883C884D885E88A22CBB24F701A082C60101964F
:142238006C0181E0ED85FE85848329E030E086010E947B4EBD
:14224C00180144245524ED85FE85668C778C80A091A0620CDB
:14226000731C841C951C8882998293018F013EDC0A83002E6C
:14227400002309F007C18D859E858E96F601F1707F01E80E4B
:14228800F91E2F84388849885A88EF93E22DE170EF9161F052
:14229C0084E090E00B891C892D893E898A930E94824EC02E27
:1422B000DD2415C088E090E00B891C892D893E898A930E94F7
:1422C400824E802F99278F709070F701E081FF27E07FF0708A
:1422D8006F01C82AD92AF701C082D2C088E090E00F851889B4
:1422EC0029893A898A930E94824EED85FE85268C378C40A090
:1423000051A0200E311E421E531E4882598291018F01ECDBFC
:14231400C02ECA820C2C002309F0B4C04FEF51E060E070E0B4
:142328002F84388849885A88220C331C441C551C2422352290
:14233C004622572271018D859E858E96E80EF91E2B883C885D
:14235000F7012082232C3324218296C087E090E00F85188934
:1423640029893A898A930E94824EED85FE85268C378C40A017
:1423780051A0200E311E421E531E4882598291018F01B0DBC0
:14238C00C02ECA820C2C002309F078C082E090E00F85188970
:1423A00029893A898A930E94694E180129014FEF51E060E04C
:1423B40070E0242235224622572271018D859E858E96E80E86
:1423C800F91E88E190E0F70103811127222733278A930E94FB
:1423DC00694E18012901F70162807724882499244301662447
:1423F0007724262837284828592861807724762C662488244C
:14240400992426283728482859286080772488249924262837
:1424180037284828592840E050E060E070EF2422352246226C
:14242C0057226B887C888D889E8862287328842895286B8A6E
:142440007C8A8D8A9E8A2B883C884D885E882082232C3324C9
:14245400319620822B883C884D885E88120144245524F701ED
:142468003296208288E190E00B891C892D893E898A930E94A8
:14247C00824EF701038302C082E08A8381E0ED85FE85848370
:142490000A8123960E94D34D249608953A932A930E94194E48
:1424A40068012A9742E050E060E070E02A883B884C885D88EA
:1424B800241635064606570678F0F601769620803180428074
:1424CC0053806A887B888C889D88621473048404950418F0E5
:1424E00082E0A82E88C0AA2476C02A883B884C885D8848826C
:1424F400598291018601C1DC0E831F83288739872E803F8034
:14250800488459848894222032044204520409F46EC041E09A
:14251C0050E060E070E02E803F804884598424163506460614
:14253000570619F482E0A82E5EC04FEF5FEF6FEF7FEF2E80D1
:142544003F8048845984241635064606570619F4AA24A394EB
:142558004EC080E08A838B838C838D832A883B884C885D8899
:14256C004882598291018601D4DDA02E002309F03CC04FEFC8
:142580005FEF6FEF7FEFF601268437844088518824163506BB
:1425940046065706B1F0CF010E9641E050E060E070E0FC0197
:1425A8002080318042805380240E351E461E571E2082318286
:1425BC004282538281E0F60185832E803F80488459842A8A48
:1425D0003B8A4C8A5D8AF601769620803180428053806A889A
:1425E4007B888C889D88621473048404950408F47ACF0A2D1D
:1425F8002A960E94224E229608953A932A930E94DE4D6801E8
:14260C00669728A039A04AA05BA08894222032044204520407
:1426200059F5F6013A9620803180428053802E863F86488A60
:14263400598A2E843F84488859888894222032044204520459
:1426480081F0F601769620803180428053806E847F8488881F
:14265C009988621473048404950408F440C081E08E8780E069
:142670008F87888B898B39C028A039A04AA05BA048825982F5
:1426840091018601FADB0A871B872C873D8742E050E060E018
:1426980070E02A843B844C845D84241635064606570628F486
:1426AC0001E010E020E030E019C1F601769620803180428049
:1426C00053806A847B848C849D84621473048404950418F4FB
:1426D4008301940107C128A039A04AA05BA02E863F86488A40
:1426E800598A2E843F84488859882E823F824886598641E096
:1426FC0050E060E070E02E803F8048845984240E351E461E0B
:14271000571E2E823F8248865986F60176962080318042800C
:1427240053806E807F80888499846214730484049504C0F0FA
:1427380082E08E8380E08F83888789872E843F844888598863
:14274C006E807F8088849984261437044804590428F400E049
:1427600010E020E030E0C0C02E803F8048845984488259822A
:142774009101860182DB0A871B872C873D872A843B844C84F4
:142788005D848894222032044204520409F42EC04FEF5FEFB5
:14279C006FEF7FEF2A843B844C845D84241635064606570621
:1427B00049F041E050E060E070E0241635064606570629F4C0
:1427C4000A851B852C853D858DC02E843F84488859886E80FE
:1427D8007F8088849984621473048404950409F088CF00E087
:1427EC0010E020E030E07AC08FEF8A838B838C838FE08D8378
:142800002E803F8048845984488259829101860186DCA02EC0
:142814000023E1F428A039A04AA05BA0889422203204420458
:14282800520491F02E803F80488459842A823B824C825D8299
:14283C0028A039A04AA05BA0488259829101860168DCA02E32
:14285000AA2009F02EC02E803F8048845984F6012286338655
:14286400448655864FEF5FEF6FEF7FEF26843784408851885D
:14287800241635064606570679F1CF010E967C0141E050E082
:14288C0060E070E0FC012080318042805380241A350A460AF8
:1428A000570A208231824282538281E0F601858317C08A2DE7
:1428B400813031F48FEF8A8B8B8B8C8B8D8B06C081E08A8B26
:1428C80080E08B8B8C8B8D8B2A883B884C885D882E823F82B8
:1428DC00488659860E811F812885398566960E94D34D22962B
:1428F00008953A932A930E94E44D68012897F601B096808174
:14290400918104965C0189E090E00C851D852E853F858A9316
:142918000E94824EF601AF93BF93A081B181FD01BF91AF91CD
:14292C00329620803324442455245A924A923A922A920E9405
:14294000E44C0C831D832E833F83F501219031904190519097
:142954005F01288239824A825B82288039804A805B808894DF
:14296800222032044204520429F400E010E020E030E02FC05B
:14297C00288039804A805B806C807D808E809F80621473043E
:142990008404950408F414C0288039804A805B806C807D8053
:1429A4008E809F8062187308840895086C827D828E829F82B6
:1429B800C50104965C01C5CFF50120803180428053800C8151
:1429CC001D812E813F81020D131D241D351D28960E94BE4DAD
:1429E000229608950E94DE4D690158012697F501D582C482AE
:1429F400369620803180428053802A823B824C825D8241E0E6
:142A080050E060E070E02A803B804C805D802416350646062B
:142A1C00570689F0F501A081B18156962D903D904D905C9048
:142A30006A807B808C809D80621473048404950410F002E094
:142A4400D6C02A803B804C805D8088942220320442045204AA
:142A580079F4F501A081B1818C91833049F492962D903D90F5
:142A6C004D905C902A823B824C825D822A803B804C805D8069
:142A80008894222032044204520409F02BC0F50122863386D7
:142A940044865586A081B18118962D903C90C214D30410F052
:142AA80002E0A3C01601369427943694279436942794369465
:142ABC00279444245524F501A081B18192966D907D908D90D2
:142AD0009C90620C731C841C951C66867786808A918A76C034
:142AE400F501AF93BF93A081B181FD01BF91AF91228080E170
:142AF800829D700140C02A803B804C805D80488259829101F5
:142B0C00F50100811181B5D90A831B832C833D834FEF5FEFF8
:142B20006FEF7FEF2A803B804C805D802416350646065706A9
:142B340011F401E05CC042E050E060E070E02A803B804C8078
:142B48005D80241635064606570688F0F501A081B1815696D1
:142B5C002D903D904D905C906A807B808C809D806214730417
:142B70008404950410F002E03CC0CE18DF08CE14DF0408F0C8
:142B8400BCCF2A803B804C805D80F5012286338644865586A8
:142B9800488259829101008111811BD9160136942794369485
:142BAC00279436942794369427944424552438014901620C7E
:142BC000731C841C951CF50166867786808A918A96012F70E7
:142BD400307000E210E00E947A4D1801F501808191818E96CC
:142BE800280E391E338A228A002726960C94D34D0E94994CB9
:142BFC000E94DE4D59012697E889F9898481958101966C01CF
:142C10008030890759F03E962080318042805380889422200F
:142C240032044204520411F404E08DC1C6018F70907080301D
:142C3800890709F070C1888999890E9641E050E060E070E016
:142C4C00FC012080318042805380240E351E461E571E208291
:142C6000318242825382E889F9893A9620803180428053806B
:142C74008894222032044204520469F4E889F989A081B18179
:142C880018962D903C90C214D30408F444C104E058C1E889E5
:142C9C00F989AF93BF93A081B181FD01BF91AF91828199276A
:142CB00001971601369427943694279436942794369427944D
:142CC40028223922222009F028C1332009F025C1E889F9890E
:142CD800228433844484558448825982910100811181C9D8FF
:142CEC000A831B832C833D8341E050E060E070E02A803B80F4
:142D00004C805D80421553056405750510F002E01CC14FEF87
:142D14005FEF6FEF7FEF2A803B804C805D80241635064606C2
:142D2800570611F401E00DC1E889F989A081B18156962D9097
:142D3C003D904D905C906A807B808C809D806214730484046A
:142D5000950408F4CDC0AA2021F4BB2011F404E0F4C0E88985
:142D6400F98922843384448455844882598291010081118191
:142D780044DC0A831B832C833D832A803B804C805D80889463
:142D8C00222032044204520411F407E0D8C041E050E060E00A
:142DA00070E02A803B804C805D80241635064606570611F49E
:142DB40002E0C9C04FEF5FEF6FEF7FEF2A803B804C805D803A
:142DC800241635064606570611F401E0BAC040E050E060E0E9
:142DDC0070E0688379839A01E889F989008111810E94760DE6
:142DF000002311F001E0A9C080E092E09983888322273327C5
:142E0400E889F98900811181025D1F4F0E94330D2A803B80A0
:142E18004C805D80488259829101E889F989A080B1808501FC
:142E2C000E94ED0EF50102A713A724A735A7AA2435C081E0D1
:142E4000E889F989AF93BF93A081B181FD01BF91AF9184830F
:142E540040E050E060E070E0688379839A01E889F989008194
:142E680011810E94760DE02E002311F001E069C0E889F98970
:142E7C00808191818A967C0141E050E060E070E0FC01208014
:142E9000318042805380240E351E461E571E20823182428271
:142EA4005382A394E889F989AF93BF93A081B181FD01BF91E6
:142EB800AF912280A21408F4BECFE889F989808191818A96BF
:142ECC007C012A2C332444245524FC01608071808280938004
:142EE000621873088408950860827182828293822A803B806D
:142EF4004C805D80E889F98922863386448655864882598283
:142F08009101008111810E94ED0EE889F98906871787208BAA
:142F1C00318BE889F989D582C48296012F70307000E210E0AD
:142F30000E947A4D1801E889F989808191818E96280E391E54
:142F4400338A228A002726960E94D34D249608950E94194E0B
:142F5800B8012297222733278B0140DD402F002309F036C026
:142F6C00FB0126843784408851884882598291010081118105
:142F80000E94760D402F002309F025C0FB01A288B388F50151
:142F9400C080CC2011F444E01CC0F501238423FC0FC08BE002
:142FA80090E099838883FB012489358985010E94450D580144
:142FBC000030010709F409C0222733278B0116DEA02E4A2D9B
:142FD000442309F4CBCF042F22960C94224E0E94194EB80132
:142FE400229744E02BC0FB012684378440885188488259826A
:142FF8009101008111810E94760D402F002309F028C0FB018C
:14300C00A288B388F501C080CC2011F444E01FC08C2D853EA5
:1430200039F08E3229F0F501238423FC01C015C022273327A5
:143034008B01E0DD402F002309F00DC0FB013E9620803180C6
:14304800428053808894222032044204520409F0C8CF4423B8
:14305C0039F0FB013E9680E08083818382838383042F22960A
:143070000C94224E0E94194EA8012297222733278A01B0DC17
:14308400A02E002309F5FA01268437844088518848825982A3
:143098009101008111810E94760DA02E002309F011C0FA01A4
:1430AC00A289B3896C91653E11F0662309F408C021E030E0A9
:1430C0008A019ADDC02EAC2CAA20F9F2AA2009F030C0FA01D1
:1430D4002684378440885188488259829101008111810E94F6
:1430E800760DC02EAC2C002301F5FA01C288D38880E290E000
:1430FC00998388832227332786010E94330D8BE090E0998396
:143110008883FA012489358986010E941D0D81E0FA01AF9349
:14312400BF93A081B181FD01BF91AF9184830A2D22960C94CE
:14313800224E3A932A930E94DE4DA8012997EB89FC892080BA
:14314C0031803B822A8205C08A819B8101969B838A83EA813C
:14316000FB8120803324822D8F32A1F38C3591F3FA012488F8
:1431740035883F822E828BE090E09983888320E230E0810183
:143188000E94330D00240886222433243D822C82B10188E07B
:14319C0090E06C01AB016F5F7F4FFA010A801B80E00DF11DDF
:1431B000408180E2841720F44F3211F04C3509F487C04E3272
:1431C40029F00C801D800C141D04A0F0C6018830E0E09E0700
:1431D80011F44E3211F006E0AFC088E090E09D838C838BE096
:1431EC006C010884000C000C0886D4CF403818F0888583601D
:143200008887413808F439C08EEF841708F435C05B016F5F0A
:143214007F4FF5010A801B80E00DF11DA0808A2D803418F02F
:143228008EE78A1530F48A2D803850F08EEF8A1538F0C601A0
:14323C0001970C801D800816190610F006E07AC0EC80FD8077
:14325000C70101969D838C83F7010E801F80E00DF11D4083F9
:143264007C0101969D838C83F7010E801F80E00DF11DA082D1
:1432780093CF242F332703E712E00E94660D580100300107B1
:14328C0011F006E057C0413438F08AE5841720F0888582608A
:1432A000888709C0413638F08AE7841720F08885816088878A
:1432B4004052AC80BD80C50101969D838C83F5010E801F805C
:1432C800E00DF11D408368CF1B010A801B80200C311CEB89CF
:1432DC00FC893182208280E2841718F064E070E002C066271C
:1432F0007727462F0C801D80002021F4112011F406E01EC05F
:14330400EE81FF818081853E11F485E08083C6018830E0E056
:143318009E0721F40884000C000C088688858370813009F407
:14332C00406188858C70843009F44860EE81FF8143870027AA
:1433400029960E94D34D229608950E94DE4DB9015801AB0117
:14335400475F5F4FF5013E9620803180428053808894222003
:1433680032044204520409F48AC0F501A288B388CC24DD24EC
:14337C0014C0F601EA0DFB1DE0808E2D803209F411C08E2D0D
:14339000853011F485EEE82E00C0FA01E192AF01C6010196AA
:1433A4006C01C6018830E0E09E0738F3F50180858032E1F01B
:1433B8008EE2FA018193AF0188E090E06C010FC0F601EA0DD0
:1433CC00FB1DE0808E2D803209F40CC000C0FA01E192AF0161
:1433E000C60101966C01C6018B30E0E09E0760F3F501238437
:1433F400FB01208688E190E0F501078D1127222733278A93C8
:143408000E94694E18012901F501668C7724882499244301E4
:14341C00662477242628372848285928658C7724762C662421
:14343000882499242628372848285928648C7724882499248D
:143444002628372848285928FB012082318242825382F501F6
:14345800208C3324418C5524542C442442285328FB01558277
:14346C004482F5012688332447885524542C44244228532876
:14348000FB01578246822224FA0120820C94D34D3A932A936E
:143494000E94FD4DB801EE81FF8120803324822D8F3211F028
:1434A8008C3529F48E819F8101969F838E83FB01369680E011
:1434BC008083818382838383EE81FF81808199278032E0E0C8
:1434D0009E0758F4222733278B0184DA402F22243324FB0162
:1434E400338A228A52C09E012A5F3F4F8B0123DEA02E4A2DD1
:1434F800002309F048C08B0129DDA02E4A2DFB01AF93BF9335
:14350C00A489B589FD01BF91AF91A384002349F0043009F002
:1435200036C001C0E2CFA2FC32C045E030C0A2FE01C02DC03C
:14353400FB01A288B388F501238424FC02C045E024C0F501A4
:14354800228C3324438C5524542C44244228532812014424DA
:14355C0055246488772485889924982C88248628972834017F
:14357000882499244301662477246228732884289528FB01EB
:143584006682778280869186AECF042F0E94044E229608953C
:143598003A932A930E94FD4D5801259781E08C832B843C84B5
:1435AC004D845E84288239824A825B829501225D3F4FF501B1
:1435C00001810E94DB0C002311F003E0A8C0F501E45DFD4FFA
:1435D4002080EC52F2403324E35DFD4F80819927982F8827B9
:1435E800822993298535EAEA9E0711F002E093C088E190E026
:1435FC00F501E959FF4F00811127222733278A930E94694E63
:1436100018012901F501EA59FF4F6080E656F0407724882449
:1436240099244301662477242628372848285928EB59FF4F3C
:143638006080E556F0407724762C6624882499242628372856
:14364C0048285928EC59FF4F60807724882499242628372855
:14366000482859284FEF5FEF6FEF70E02422352246225722AD
:1436740046E451E464E570E0241635064606570611F4002700
:143688004AC088E190E0F501ED57FF4F008111272227332767
:14369C008A930E94694E18012901F501EE57FF4F6080E258BE
:1436B000F0407724882499244301662477242628372848284C
:1436C4005928EF57FF4F6080E158F0407724762C6624882421
:1436D80099242628372848285928E058FF4F608077248824D6
:1436EC00992426283728482859284FEF5FEF6FEF70E02422EF
:1437000035224622572246E451E464E570E0241635064606C4
:14371400570611F4002701C001E025960E94044E2296089572
:143728003A932A930E94DE4D6801A797F601A080B180F50151
:14373C0080819927C0977C0189E090E08E159F0550F0818182
:143750008A3339F4CF0102965C01F601B182A08202C0EE2496
:14376400FF24C7018130E0E09E0710F00BE0CFC485E099E0F4
:14377800F701EE0FFF1FE80FF91F208031803EA22DA2E9A989
:14378C00FAA9318220820101222021F4332011F40CE0B9C417
:1437A000EDA1FEA12080222079F001810E94D50CA02E00FDCD
:1437B40009C00BA8002021F002FF02C00AE0A7C40027A5C4AC
:1437C8002224EDA1FEA12082E18201810E94BF0CE02EAE2C9E
:1437DC0000FF02C003E097C40BA8002021F0A2FE02C00AE0AA
:1437F00090C480E0898B8A8B8B8B8C8B40E050E060E070E0DB
:14380400688379839A010DA11EA1C4DEA02ECA2C00C08C2DE2
:14381800813009F04CC0AA2409F0AA9400E11A2D0103500164
:14382C008DA19EA184519E4FA80EB91EF5012480222009F4F3
:143840003AC088E190E003851127222733278A930E94694EC8
:1438540018012901F5016284772488249924430166247724D4
:14386800262837284828592861847724762C66248824992499
:14387C0026283728482859283896608077248824992426289A
:14389000372848285928298A3A8A4B8A5C8A29883A884B885C
:1438A4005C884882598291010DA11EA173DEA02ECA2C8C2DBA
:1438B800833011F401E029C4CC2011F00DE025C4EDA1FEA186
:1438CC0021AC332482AD9927982F8827822993298030E2E086
:1438E0009E0711F00DE015C4EDA1FEA1EC5BFF4F2080E454CE
:1438F400F0403324EB5BFF4F40805524542C4424422853289F
:143908001201442455242D823E824F8258862D803E804F805F
:14391C0058848894222032044204520409F03CC088E190E0BD
:14393000EDA1FEA1EB5AFF4F00811127222733278A930E94A8
:14394400694E18012901EDA1FEA1EC5AFF4F6080E455F0406B
:14395800772488249924430166247724262837284828592850
:14396C00ED5AFF4F6080E355F0407724762C6624882499243A
:143980002628372848285928EE5AFF4F60807724882499241B
:1439940026283728482859282D823E824F8258862D803E80F8
:1439A8004F805884EDA1FEA1228E338E448E558EA6ACEA2CA5
:1439BC00A3828E2D813021F0823011F00DE0A3C32E2C33249E
:1439D000442455240D811E812F8138855A924A923A922A9218
:1439E4000E948A4D0D831E832F833887EDA1FEA1A3ACEA2C22
:1439F800A282AA2029F08E2D81502E2C282211F00DE083C350
:143A0C00EDA1FEA127AC3324E05CFF4F4080E054F040552428
:143A2000542C44244228532851864086808591858F7090700E
:143A34008030890711F00DE06AC3EDA1FEA1EF5BFF4F2080BE
:143A4800E154F0403324EE5BFF4F40805524542C442442288C
:143A5C0053281201442455242D863E864F86588A2D843E8446
:143A70004F8458888894222032044204520409F03CC088E101
:143A840090E0EDA1FEA1EF5AFF4F00811127222733278A9381
:143A98000E94694E18012901EDA1FEA1E05BFF4F6080E055B3
:143AAC00F0407724882499244301662477242628372848284C
:143AC0005928E15BFF4F6080EF54F0407724762C6624882421
:143AD40099242628372848285928E25BFF4F608077248824D1
:143AE800992426283728482859282D863E864F86588AEDA1B3
:143AFC00FEA124AC3324E5ACFF24FE2CEE24E228F328EE20CD
:143B100021F4FF2011F40DE0FCC22D803E804F80588437016F
:143B240088249924620C731C841C951CEDA1FEA1389620803B
:143B380031803694279436942794369427943694279444244C
:143B4C005524620C731C841C951C6D8A7E8A8F8A988E2D88AB
:143B60003E884F88588C6D847E848F84988862147304840435
:143B7400950410F40DE0CBC22D883E884F88588C0D851E85BB
:143B88002F8538890219130924093509EDA1FEA1329620807D
:143B9C003324442455245A924A923A922A920E94E44C09872B
:143BB0001A872B873C8729843A844B845C848894222032043D
:143BC4004204520411F40DE0A2C2CC24C39446EF5FE060E000
:143BD80070E029843A844B845C84241635064606570610F051
:143BEC0082E0C82E46EF5FEF60E070E029843A844B845C8440
:143C0000241635064606570610F083E0C82E42E050E060E0A7
:143C140070E029843A844B845C84240E351E461E571EEDA146
:143C2800FEA1769620823182428253822D883E884F88588CB9
:143C3C0069887A888B889C88620C731C841C951CEDA1FEA1CF
:143C5000B696608271828282938217014424552469887A883A
:143C64008B889C88620C731C841C951CEDA1FEA1668E778EA1
:143C780080A291A28C2D833009F055C020843184222011F4C9
:143C8C00332011F00DE03FC288E190E0EDA1FEA1E35AFF4F51
:143CA00000811127222733278A930E94694E18012901EDA16D
:143CB400FEA1E45AFF4F6080EC55F040772488249924430138
:143CC800662477242628372848285928E55AFF4F6080EB5578
:143CDC00F0407724762C6624882499242628372848285928D6
:143CF000E65AFF4F6080EA55F0407724882499242628372832
:143D04004828592822A233A244A255A282E090E076960081E5
:143D18001181228133818A930E94694E098F1A8F2B8F3C8F72
:143D2C006AC0EDA1FEA120843184222021F4332011F40DE037
:143D4000E8C12D803E804F805884EDA1FEA1668C778C80A06E
:143D540091A0620C731C841C951C62A273A284A295A28C2DAD
:143D6800823071F476962080318042805380220C331C441C61
:143D7C00551C2D8E3E8E4F8E58A235C0EDA1FEA17696208096
:143D900031804280538029A23AA24BA25CA241E050E060E0B6
:143DA40070E029A03AA04BA05CA0242235224622572269A0AA
:143DB8007AA08BA09CA043E050E060E070E09A928A927A923F
:143DCC006A928A019B010E948A4D3801490196948794779474
:143DE0006794620C731C841C951C6D8E7E8E8F8E98A22D8C6F
:143DF4003E8C4F8C58A0298E3A8E4B8E5C8E4FEF51E060E02D
:143E080070E0098D1A8D2B8D3C8D040F151F261F371F89E04D
:143E1C0090E08A930E94824EEDA1FEA1228C338C448C558C48
:143E3000201631064206530610F40DE06AC1EDA1FEA13E9653
:143E44008FEF8083818382838383EDA1FEA13A9680E080837A
:143E58008183828383838C2D833009F03CC12224EDA1FEA172
:143E6C002582E25AFF4F2080EE55F0403324E15AFF4F40805E
:143E80005524542C44244228532812014424552469887A8801
:143E94008B889C88620C731C841C951CEDA1FEA1628A738A7F
:143EA800848A958A81E08C83228833884488558828823982F6
:143EBC004A825B829F01225D3F4F01810E94DB0CE02E002360
:143ED00009F005C1EDA1FEA1E45DFD4F2080EC52F2403324FE
:143EE400E35DFD4F8081ED52F2409927982F8827822993292F
:143EF8008535AAEA9A0709F0EEC088E190E001A9112722271C
:143F0C0033278A930E94694E18012901EDA1FEA160A87724BE
:143F200088249924430166247724262837284828592867A412
:143F34007724762C662488249924262837284828592866A4A1
:143F4800772488249924262837284828592842E552E561E61E
:143F5C0071E4241635064606570609F0BAC088E190E0EB5E49
:143F7000FD4F00811127222733278A930E94694E18012901DC
:143F8400EDA1FEA1EC5EFD4F6080E451F2407724882499241B
:143F98004301662477242628372848285928ED5EFD4F608097
:143FAC00E351F2407724762C6624882499242628372848284E
:143FC0005928EE5EFD4F6080E251F24077248824992426283D
:143FD40037284828592842E752E761E471E6241635064606CA
:143FE800570609F078C088E190E0E35EFD4F008111272227CF
:143FFC0033278A930E94694E18012901EDA1FEA1E45EFD4FE3
:144010006080EC51F240772488249924430166247724262892
:14402400372848285928E55EFD4F6080EB51F2407724762C1E
:144038006624882499242628372848285928E65EFD4F608073
:14404C00EA51F24077248824992426283728482859282286A9
:1440600033864486558688E190E0E75EFD4F00811127222782
:1440740033278A930E94694E18012901EDA1FEA1E85EFD4F66
:144088006080E851F24077248824992443016624772426281E
:14409C00372848285928E95EFD4F6080E751F2407724762CA6
:1440B0006624882499242628372848285928EA5EFD4F6080F7
:1440C400E651F2407724882499242628372848285928268631
:1440D8003786408A518AEDA1FEA1C0828091030990910409B8
:1440EC0001966C01D0920409C0920309D782C682BA9680E09E
:1441000080838183828383832224EDA1FEA124820027A7961C
:144114000E94D34D229608950E94E94D5901A80140304507E9
:1441280049F0FA012080222029F0268037802A143B0411F079
:14413C0009E009C0FA0101810E94D50C00FF02C003E001C058
:1441500000270C94EE4DAA92BA92013010F00BE022C085E06E
:1441640099E0E02FFF27EE0FFF1FE80FF91FA080B180AA2054
:1441780011F4BB2019F02224F50120822030230719F02224A3
:14418C00F901208285E099E0E02FFF27EE0FFF1FE80FF91F46
:1441A000318320830027B990A99008950E94994C0E94DE4D1A
:1441B400AC9722243324EEA9FFA9318220828AAD8F718AAF13
:1441C80099278E7F88839E012E5F3F4F8E01085C1F4FA6DA70
:1441DC00A02ECE0148969F8B8E8B002339F428AD39AD8E0177
:1441F0000E5F1F4F4DD9A02EEC88FD88AA2031F4EE2021F4E1
:14420400FF2011F486E0A82E8AAD8C7109F4C0C0AA2081F05A
:144218008A2D843039F48E010E5F1F4F0E943A18C02EAC2CD6
:14422C008AAD88608AAFEC88FD880CC0F7018385817119F066
:1442400087E0A82E05C00AAC02FE02C088E0A82EAA2009F0EF
:14425400B1C00AAC03FEAEC00E94180D0CA31DA32EA33FA3D7
:144268002CA03DA04EA05FA0F7012686232C33243F962082EB
:14427C002CA03DA04EA05FA0120144245524F7017096208204
:1442900088E190E00CA11DA12EA13FA18A930E94824EF701A0
:1442A400018B22242386248E258E268E278E228C3324438CE9
:1442B8005524542C4424422853281201442455246488772431
:1442CC00759680809924982C8824862897283401882499249B
:1442E000430166247724622873288428952868A679A68AA676
:1442F4009BA62224F701228E238E248A258A81E0EA81FB8131
:144308003496808328A439A44AA45BA4889422203204420464
:14431C00520409F44BC0EA81FB8122A433A444A455A42CA2FC
:144330003DA24EA25FA228A439A44AA45BA4488259829101DC
:144344000A811B810E944E12C02EAC2C002391F541E050E07C
:1443580060E070E028A439A44AA45BA4241A350A460A570AFD
:14436C00EA81FB8122863386448655862CA03DA04EA05FA0BA
:144380004882598291010A811B810E94760DC02EAC2C12C00E
:14439400AA2081F4F701238424FE03C084E0A82E09C00AAC99
:1443A80001FE06C0F701238420FE02C087E0A82EAA20A1F421
:1443BC000AAC03FE03C0802D80628AAFEA81FB8122A433A427
:1443D00044A455A4EEA9FFA9228E338E448E558EF78EE68E9A
:1443E400AA2009F077C0EEA9FFA90AAC0482F701228C332453
:1443F800438C5524542C4424422853281201442455246488BC
:14440C00772485889924982C882486289728340188249924BC
:144420004301662477246228732884289528EEA9FFA9668666
:144434007786808A918A88E190E0F701078D11272227332712
:144448008A930E94694E18012901F701668C772488249924B9
:14445C004301662477242628372848285928658C7724762C17
:144470006624882499242628372848285928648C7724882470
:1444840099242628372848285928EEA9FFA92286338644865F
:144498005586369680E08083818382838383EEA9FFA97696AC
:1444AC0080E0808381838283838322243324EEA9FFA931A2DB
:1444C00020A22A803B8031822082F10126803780EEA9FFA9DE
:1444D400338222820A2DAC960E94D34D249608950E94994C62
:1444E8000E94DE4D59016197750180E092E0998388832227E9
:1444FC00332785010E94754C22243324E9A1FAA13182208252
:14451000EB8DFC8D2281338100811181FFDDA02E002309F066
:1445240045C2EB8DFC8D248027FE02C002E03EC2EB8DFC8D0D
:14453800248020FC02C007E037C2EB8DFC8D268037804084EB
:14454C0051843A9660807180828093806218730884089508B2
:144560006D867E868F86988A2D843E844F8458886F8C78A0E0
:1445740088249924261437044804590408F00DC238A22F8E4E
:144588000AC24FEF51E060E070E0EB8DFC8D36962080318036
:14459C0042805380242235224622572288942220320442041E
:1445B000520409F080C189E090E0EB8DFC8D068117812085C9
:1445C40031858A930E94824E18012901EB8DFC8DAF93BF93C6
:1445D800A081B181FD01BF91AF918281992701973C018824AA
:1445EC0077FC8094992487FC90942620372048205920C22C64
:14460000222009F078C0EB8DFC8D3696208031804280538080
:144614008894222032044204520461F4EB8DFC8D3E96208098
:1446280031804280538029863A864B865C8628C0EB8DFC8D2D
:14463C0020A031A0222011F4332079F02680378040845184E0
:144650004882598291018F010E94791409871A872B873C87BA
:1446640011C0EB8DFC8D22883388448855884882598291012B
:14467800008111810E943F0F09871A872B873C8742E050E033
:14468C0060E070E029843A844B845C84241635064606570652
:1446A00048F48B8D9C8D0496FC0180818068808302E07EC1E5
:1446B4004FEF5FEF6FEF7FEF29843A844B845C84241635060B
:1446C8004606570651F48B8D9C8D04965C01FC0180818068D2
:1446DC00808301E067C129843A844B845C84EB8DFC8D228AF7
:1446F000338A448A558AEB8DFC8D2288338844885588488273
:1447040059829101008111810E94ED0E0D831E832F833887E2
:144718002D803E804F8058848894222032044204520451F402
:14472C008B8D9C8D04965C01FC0180818068808302E038C17D
:144740002C2C3324442455246D807E808F809884620C731CC2
:14475400841C951C6D827E828F82988629E030E00F8D18A174
:144768000E947B4E58010030010709F496C02C2C3324200E11
:14477C00311EEB8DFC8DAF93BF93A081B181FD01BF91AF9164
:14479000428055244214530478F42C2C3324EB8DFC8DAF93CF
:1447A400BF93A081B181FD01BF91AF91A280BB24A218B30858
:1447B800AC822D803E804F805884288239824A825B82970103
:1447CC00EB8DFC8DAF93BF93A081B181FD01BF91AF910181E1
:1447E0000E94DB0CC02E002351F08B8D9C8D04966C01FC01A5
:1447F40080818068808301E0D9C0EB8DFC8DC080D180F601C2
:1448080034962080222009F441C02D803E804F805884F601E5
:14481C0062A473A484A495A46218730884089508150144246E
:144830005524621473048404950460F580E092E0998388839F
:14484400EB8DFC8DC080D1809601225D3F4F2D803E804F80F0
:144858005884F60162A473A484A495A46218730884089508DD
:14486C0040E052E060E070E02F933F939A928A927A926A9272
:144880008A019B010E948A4D3F912F910E0D1F1D0E941D0DD1
:1448940000E012E095010E947A4D68015AC02D803E804F8082
:1448A8005884EB8DFC8D268A378A408E518E4FEF51E060E052
:1448BC0070E0EB8DFC8D26803780408451842422352246229C
:1448D000572240E052E060E070E042195309640975096A016C
:1448E4000F8C18A00416150608F46001EB8DFC8D268837886D
:1448F800408C518C488259829101008111810E94760DA02EC6
:14490C00002351F08B8D9C8D04965C01FC0180818068808312
:1449200001E046C0D982C8824FEF51E060E070E0EB8DFC8DF7
:14493400268037804084518424223522462257229101808168
:1449480091818E96280F391F87010E941D0DEC0CFD1C8B8D19
:14495C009C8D06965C01160144245524FC016080718082805D
:144970009380620C731C841C951C6082718282829382E9A15A
:14498400FAA1208031802C0C3D1C318220820F8C18A00C18D6
:144998001D0818A20F8E0F8C18A0002009F0F1CD112009F03B
:1449AC00EECD002761960E94D34D249608950E94994C0E94DC
:1449C000DE4D59016197750122243324E9A1FAA131822082D9
:1449D400EB8DFC8D22813381008111819DDBA02E002309F002
:1449E800FCC2EB8DFC8D248027FE02C002E0F5C2EB8DFC8DD7
:1449FC00248021FC02C007E0EEC2EB8DFC8D3A96208031806B
:144A1000428053802D863E864F86588A2F8C38A0442455245B
:144A24006D847E848F849888620C731C841C951C2D843E8497
:144A38004F845888621473048404950408F0A5C200241124F1
:144A4C0018A20F8EA0C24FEF51E060E070E0EB8DFC8D3696D1
:144A6000208031804280538024223522462257228894222080
:144A740032044204520409F00BC289E090E0EB8DFC8D068135
:144A88001781208531858A930E94824E18012901EB8DFC8D54
:144A9C00AF93BF93A081B181FD01BF91AF9182819927019736
:144AB0003C01882477FC8094992487FC909426203720482019
:144AC4005920C22C222009F0A5C0EB8DFC8D369620803180B9
:144AD800428053808894222032044204520471F5EB8DFC8D9E
:144AEC003E96208031804280538029863A864B865C8629842D
:144B00003A844B845C848894222032044204520409F040C00B
:144B140040E050E060E070E0688379839A01EB8DFC8D0081A9
:144B280011810E94011309871A872B873C87EB8DFC8D0687FD
:144B3C001787208B318B28C0EB8DFC8D20A031A0222011F49F
:144B5000332079F026803780408451844882598291018F01D8
:144B64000E94791409871A872B873C8711C0EB8DFC8D2288EC
:144B7800338844885588488259829101008111810E940113C5
:144B8C0009871A872B873C8729843A844B845C8488942220F7
:144BA00032044204520409F4FCC141E050E060E070E02984E7
:144BB4003A844B845C84241635064606570649F48B8D9C8DE4
:144BC8000496FC0180818068808302E006C24FEF5FEF6FEFC2
:144BDC007FEF29843A844B845C84241635064606570651F4DA
:144BF0008B8D9C8D04965C01FC0180818068808301E0EFC1FF
:144C040029843A844B845C84EB8DFC8D228A338A448A558A6B
:144C1800EB8DFC8DA080B18026883788408C518CF50162A424
:144C2C0073A484A495A46214730484049504B9F440E050E0F1
:144C400060E070E0688379839A018F010E94760DA02E0023A8
:144C540051F08B8D9C8D04965C01FC0180818068808301E009
:144C6800BCC1EB8DFC8D228833884488558848825982910175
:144C7C00008111810E94ED0E0D831E832F8338872D803E8067
:144C90004F8058848894222032044204520451F48B8D9C8DAF
:144CA40004965C01FC0180818068808302E097C12C2C332433
:144CB800442455246D807E808F809884620C731C841C951CA3
:144CCC006D827E828F82988629E030E00F8D18A10E947B4EDD
:144CE00058010030010709F497C02C2C3324200E311EEB8D37
:144CF400FC8DAF93BF93A081B181FD01BF91AF914280552473
:144D08004214530478F42C2C3324EB8DFC8DAF93BF93A08119
:144D1C00B181FD01BF91AF91A280BB24A218B308AC822D8072
:144D30003E804F805884288239824A825B829701EB8DFC8D5F
:144D4400AF93BF93A081B181FD01BF91AF9101810E94FB0CBB
:144D5800C02E002351F08B8D9C8D04966C01FC0180818068C7
:144D6C00808301E038C12D803E804F805884EB8DFC8DA0811E
:144D8000B1819A966D907D908D909C9062187308840895084C
:144D9400150144245524621473048404950408F032C080E0BC
:144DA80092E099838883C080D1802D803E804F805884F601C0
:144DBC0062A473A484A495A4621873088408950840E052E0F5
:144DD00060E070E09A928A927A926A928A019B010E948A4D4F
:144DE40098012E0D3F1D8601025D1F4F0E941D0D2224EB8DAD
:144DF800FC8DAF93BF93A081B181FD01BF91AF91248200E023
:144E0C0012E095010E947A4D680199C0EB8DFC8D2284338481
:144E20004484558466807780808491846214730484049504D9
:144E340028F140E050E060E070E0688379839A0100811181DC
:144E48000E94760DA02E002351F08B8D9C8D04965C01FC01CA
:144E5C0080818068808301E0BEC02D803E804F805884EB8D69
:144E7000FC8DA081B1819A962D923D924D925C922D803E805C
:144E84004F805884EB8DFC8D268A378A408E518E4FEF51E0E1
:144E980060E070E0EB8DFC8D268037804084518424223522E2
:144EAC004622572240E052E060E070E042195309640975098D
:144EC0006A010F8C18A00416150608F46001EB8DFC8D2688DF
:144ED4003788408C518C488259829101008111810E94760DF3
:144EE800A02E002351F08B8D9C8D04965C01FC018081806866
:144EFC00808301E070C0D982C88297014FEF51E060E070E052
:144F1000EB8DFC8D2680378040845184242235224622572218
:144F24008101808191818E96080F191F0E941D0D81E0EB8DCC
:144F3800FC8DAF93BF93A081B181FD01BF91AF918483EC0C68
:144F4C00FD1C8B8D9C8D06965C01160144245524FC01608029
:144F6000718082809380620C731C841C951C60827182828210
:144F74009382E9A1FAA1208031802C0C3D1C318220820F8C1D
:144F880018A00C181D0818A20F8E0F8C18A0002009F05BCD29
:144F9C00112009F058CDEB8DFC8D22843384448455846680CD
:144FB000778080849184261437044804590440F4268037802E
:144FC4004084518422863386448655868B8D9C8D04965C0102
:144FD800FC01808180628083002761960E94D34D24960895AB
:144FEC000E94194EA8012697FA0122813381008111818ED877
:14500000A02E002309F09FC0FA01248025FE9BC0228C338CC9
:14501400448C558C488259829101008111810E94760DA02E9A
:14502800002309F08CC0FA01668D778DCB010B96FC018081AF
:14503C0080628083FA012284338444845584FB01248EFA01D9
:1450500022843384232C3324FB01258EFA012284338444847A
:145064005584120144245524FB01268E88E190E0FA01028560
:145078001385248535858A930E94824EFB01078FFA01268463
:14508C00378440885188FB01228EFA0126843784232C332402
:1450A000FB01238EFA0126843784408851881201442455245A
:1450B400FB01248AFA0126843784408851881201232C332484
:1450C800FB01258A0E94180D0A831B832C833D832A803B8063
:1450DC004C805D80FB01268A232C3324779620822A803B80B1
:1450F0004C805D80120144245524FB017896208288E190E08A
:145104000A811B812C813D818A930E94824EFB01018FBA012F
:145118006C5F7F4FFB0180818F7D808381E0FA01AF93BF93EE
:14512C00A081B181FD01BF91AF918483FA01008111810E94D7
:14514000180EC02EAC2C0A2D26960C94224E0E94E44D680130
:1451540086014ADFA02E002329F422243324F60131822082A0
:145168000A2D0C94BE4D0E94994C0E94DE4D6E97E8A5F9A5CD
:14517C0022813381008111810E948E20A02E002309F0A7C410
:14519000E8A5F9A5248027FE02C002E0A0C4E8A5F9A5B0969E
:1451A40020803180222019F4332009F4E3C14FEF5FEF6FEF79
:1451B8007FEF2AA43BA44CA45DA4241635064606570609F0C0
:1451CC0009C1E8A5F9A5E0A0F1A0F7012190319041905190AD
:1451E0007F012E8A3F8A488E598E82E08E8780E08F87888BFD
:1451F400898BE8A5F9A53E9620803180428053802A823B8245
:145208004C825D822A803B804C805D808894222032044204FD
:14521C00520409F4BBC02A803B804C805D802A8A3B8A4C8A53
:145230005D8A80E08A878B878C878D8742E050E060E070E0F7
:145244002E843F8448885988240E351E461E571E2E863F8659
:14525800488A598A2A803B804C805D802E823F824886598661
:14526C0041E050E060E070E02A843B844C845D84240E351EAA
:14528000461E571E2A863B864C865D862A803B804C805D800D
:14529400488259829101E8A5F9A5008111810E943F0F0A8314
:1452A8001B832C833D8341E050E060E070E02A803B804C80D3
:1452BC005D80421553056405750548F088A599A50496FC0135
:1452D00080818068808302E002C44FEF5FEF6FEF7FEF2A8034
:1452E4003B804C805D80241635064606570651F488A599A584
:1452F80004966C01FC0180818068808301E0EBC341E050E0D2
:14530C0060E070E02E803F8048845984240E351E461E571E89
:145320006A807B808C809D80621473048404950409F494CFFD
:145334002E883F88488C598C6E847F84888899882614370494
:145348004804590490F02A843B844C845D84F701219231929C
:14535C00419251922A883B884C885D8821923192419251922D
:145370007F01E8A5F9A5A081B18156962D903D904D905C90EC
:145384006A807B808C809D80621473048404950408F445CFE9
:145398002E843F8448885988E8A5F9A5B096A081B1812D9258
:1453AC003D924D925C922E883F88488C598C6E847F84888816
:1453C0009988261437044804590438F0F70180E08083818313
:1453D4008283838381C381E1A82E7EC3E8A5F9A53A96208062
:1453E8003180428053806AA47BA48CA49DA42614370448040C
:1453FC00590458F4E8A5F9A53A9620803180428053802AA643
:145410003BA64CA65DA62AA43BA44CA45DA4E8A5F9A536961D
:1454240020823182428253828894222032044204520409F459
:1454380051C341E050E060E070E0241A350A460A570A488273
:14544C005982910108A519A50E947914E8A5F9A5028B138BEF
:14546000248B358B2288338844885588488259829101008103
:1454740011810E94ED0E0A8F1B8F2C8F3D8F2A8C3B8C4C8CD6
:145488005D8C8894222032044204520451F488A599A50496AD
:14549C007C01FC0180818068808302E01AC341E050E060E046
:1454B00070E00AA51BA52CA53DA5041B150B260B370B89E05B
:1454C40090E08A930E94824E18012901E8A5F9A5AF93BF93D3
:1454D800A081B181FD01BF91AF9132968081992701973C0181
:1454EC00882477FC8094992487FC9094262037204820592097
:145500006A8C7B8C8C8C9D8C620C731C841C951C6A8E7B8E0A
:145514008C8E9D8E4FEF51E060E070E0E8A5F9A536962080A8
:14552800318042805380242235224622572288942220320417
:14553C004204520409F4CCC2E8A5F9A57696208031804280EA
:1455500053806A8C7B8C8C8C9D8C621473048404950409F42B
:14556400BBC213012401E8A5F9A5268A378A408E518EB2C2C0
:14557800E8A5F9A53A9620803180428053806AA47BA48CA4E1
:14558C009DA4261437044804590470F4E8A5F9A5248021FC5C
:1455A00009C03A9620803180428053802AA63BA64CA65DA6D2
:1455B400E8A5F9A5369620803180428053802E863F86488ABB
:1455C800598A80E08A878B878C878D87E8A5F9A5369680E0EB
:1455DC0080838183828383832AA43BA44CA45DA488942220AD
:1455F00032044204520409F426C2E8A5F9A5AF93BF93A08110
:14560400B181FD01BF91AF913296208033244424552440E012
:1456180052E060E070E05A924A923A922A928A019B010E94A3
:14562C008A4D0E831F83288739872E843F84488859888894AF
:14564000222032044204520409F475C041E050E060E070E02F
:1456540081019201041B150B260B370B2E803F804884598465
:145668005A924A923A922A920E94E44C1801290141E050E078
:14567C0060E070E00AA51BA52CA53DA5041B150B260B370BB6
:145690006E807F80888499849A928A927A926A920E94E44CCE
:1456A400021513052405350508F443C041E050E060E070E080
:1456B8002E803F8048845984241A350A460A570A2094309422
:1456CC004094509441E050E060E070E06E847F84888899880B
:1456E000641A750A860A970A6220732084209520E8A5F9A5EF
:1456F4006682778280869186369620803180428053806AA4E4
:145708007BA48CA49DA462187308840895086AA67BA68CA67C
:14571C009DA6E8A5F9A5729620803180428053802A823B82B4
:145730004C825D8269C0E8A5F9A53E962080318042805380AA
:145744002A823B824C825D822A803B804C805D8088942220CF
:1457580032044204520409F049C040E050E060E070E068839E
:14576C0079839A01E8A5F9A5008111810E9401130A831B8373
:145780002C833D8341E050E060E070E02A803B804C805D80B7
:14579400241635064606570651F488A599A504967C01FC011F
:1457A80080818068808302E096C14FEF5FEF6FEF7FEF2A80C6
:1457BC003B804C805D80241635064606570651F488A599A5A7
:1457D00004967C01FC0180818068808301E07FC12A803B803F
:1457E4004C805D80E8A5F9A526863786408A518A2A803B806A
:1457F8004C805D80E8A5F9A5228A338A448A558A2A803B804E
:14580C004C805D808894222032044204520409F414C1A7C076
:14582000E8A5F9A53496208021FE24C02A803B804C805D80CE
:14583400488259829101E8A5F9A5008111810E9401130A83A8
:145848001B832C833D832A803B804C805D808894222032049D
:14585C0042045204D1F42E803F80488459842AA63BA64CA61E
:145870005DA68BC02A803B804C805D80488259829101E8A504
:14588400F9A5008111810E943F0F0A831B832C833D834FEF97
:145898005FEF6FEF7FEF2A803B804C805D8024163506460613
:1458AC00570651F488A599A504967C01FC01808180688083DB
:1458C00001E00DC141E050E060E070E02A803B804C805D8036
:1458D400421553056405750590F4E8A5F9A5A081B181569640
:1458E8002D903D904D905C906A807B808C809D80621473045E
:1458FC008404950450F088A599A504967C01FC0180818068CF
:14591000808302E0E4C02A803B804C805D80E8A5F9A57296B9
:14592400208231824282538288A599A506967C012E803F8090
:1459380048845984FC016080718082809380620C731C841C32
:14594C00951C60827182828293826AA47BA48CA49DA4621890
:145960007308840895086AA67BA68CA69DA62E803F804884B0
:1459740059846AA47BA48CA49DA4261437044804590408F48A
:145988004BCF88A599A506967C012AA43BA44CA45DA4FC01D2
:14599C006080718082809380620C731C841C951C60827182EE
:1459B000828293824FEF51E060E070E024223522462257224D
:1459C4008894222032044204520409F43AC02A803B804C8077
:1459D8005D80488259829101E8A5F9A5008111810E94ED0ECC
:1459EC000A871B872C873D872A843B844C845D848894222081
:145A000032044204520451F488A599A504967C01FC018081FB
:145A14008068808302E061C089E090E00AA51BA52CA53DA595
:145A28008A930E94824E2A843B844C845D84200E311E421EE0
:145A3C00531E2A863B864C865D864FEF51E060E070E0E8A533
:145A5000F9A536962080318042805380242235224622572274
:145A640088942220320442045204C1F0E8A5F9A57696208076
:145A78003180428053806A847B848C849D8462147304840441
:145A8C00950441F013012401E8A5F9A5268A378A408E518EBA
:145AA000E8A5F9A522843384448455846680778080849184D3
:145AB400261437044804590478F426803780408451842286B6
:145AC800338644865586CF0104966C01FC01808180628083B2
:145ADC000A2D6E960E94D34D249608953A932A930E94FD4DEC
:145AF000B8012D97222428829B018E010D5E1F4F0E94941BE0
:145B0400402F002309F05CC0CE010196FB01958B848B2B89A1
:145B18003C898F010E94481A402F002309F04BC0FB012288E4
:145B2C003388222019F4332009F432C0AF93BF93A289B3891E
:145B4000FD01BF91AF91238424FE27C0FB01A288B388F501BC
:145B5400228C3324438C5524542C44244228532812014424A8
:145B680055246488772485889924982C88248628972834014D
:145B7C00882499244301662477246228732884289528FB01B9
:145B9000668277828086918601C045E0442379F4FB01A0812C
:145BA400B18116962D903C9033822282222733278F010E9458
:145BB800F214A02E4A2D443009F445E0042F2D960E94044E0E
:145BCC00229608950E94194E5901B8012C97FB01228133813E
:145BE000008111810E948E20402F002309F035C0AA2049F4C7
:145BF400BB2039F4222733278B010E94F214402F2AC0CE0196
:145C0800FB01958B848B8F010E94EF17C02E4C2D043041F455
:145C1C00FB013E9680E0808381838283838344274423A9F4C3
:145C300095018B010E94A519222733278B010E94FC15A02E2E
:145C44004A2D043041F4FB013E9680E080838183828383832A
:145C58004427042F2C960C94224E0150104081E090E08017BF
:145C6C009107C8F308954A935A930AC041E050E002C04F5FDF
:145C80005F4F8BEC94E084179507C8F7180101501040222085
:145C940089F7332079F75991499108950E94F34DA801662740
:145CA8007727C09A0E946741C098FA0100810E946341FA0191
:145CBC0001810E946341FA0102810E946341FA0103810E9427
:145CD0006341FA0104810E946341FA0105810E9463410E94ED
:145CE4006741402F55276F5F7F4F4F3FE0E05E0721F4643120
:145CF800E0E07E0790F3042F0C94F84D0E94FD4D26974427A4
:145D0C00662782E892E0FE0106E010E0FA93EA939A938A93F1
:145D20000E948E4E81B186958695869586958695817021F432
:145D340081E090E05C0102C0AA24BB24AA2021F4BB2011F4FF
:145D480002E039C0C09AB89A0E94594182E58DB98EB18F7F8A
:145D5C008EB9C09A442703C00E94674143954A30D8F3C098A5
:145D700044278E0195DF602F4395443119F4C09A01E01DC0B0
:145D84006130A9F7C09A0E946741C09881E488838FEF8D83E0
:145D980044278E0181DF602F4395443119F4C09A02E009C0AF
:145DAC006623A9F780E58DB9709AC09A0E946741002726967E
:145DC0000C94044E0E94994C0E94194E2697AA88BB884427B0
:145DD400CC246627772788E892E0FE0106E010E0FA93EA93DF
:145DE8009A938A930E948E4E89E090E00E851F85288939895C
:145DFC008A930E94694E0E871F87288B398B88E190E00E85FF
:145E10001F85288939898A930E94824E09832E843F84488807
:145E240059881201442455242A8288E090E00E851F85288929
:145E380039898A930E94824E0B83C0988E012CDF402FC394BF
:145E4C008C2D843119F4C09A112737C04423A1F76627772714
:145E600004C00E9467416F5F7F4F6436E0E07E07C0F30EEFF5
:145E74000E9463416627772707C0F50101915F010E946341B4
:145E88006F5F7F4F6030E2E07E07A8F30E9467410E94674164
:145E9C000E946741402F842F8F71853021F0C09A03E010E093
:145EB0000AC00E946741402F0F3FD9F7C09A0E946741002772
:145EC400112726960E94224E249608950E94994C0E94194EDD
:145ED8002697AA88BB88442755276627CC248EE892E0FE0139
:145EEC0006E010E0FA93EA939A938A930E948E4E89E090E021
:145F00000E851F85288939898A930E94694E0E871F87288B7F
:145F1400398B88E190E00E851F85288939898A930E94824EA3
:145F280009832E843F84488859881201442455242A8288E0AB
:145F3C0090E00E851F85288939898A930E94824E0B83C098C2
:145F50008E01A6DEC02E6395643121F4C09A04E010E01FC08D
:145F6400CC20A1F70E9467410E3FE1F74427552709C00E94E4
:145F78006741C02EFA01EA0DFB1DC0824F5F5F4F4030E2E0A5
:145F8C005E0798F30E9467410E946741C09A0E9467410027B2
:145FA000112726960E94224E249608950E94994C0E94DE4D3C
:145FB4002697AE88BF88E88CF98C442755276627CC2484E9D5
:145FC80092E0FE0106E010E0FA93EA939A938A930E948E4EAC
:145FDC0089E090E0088919892A893B898A930E94694E088B25
:145FF000198B2A8B3B8B88E190E0088919892A893B898A93DE
:146004000E94824E0983288839884A885B8812014424552470
:146018002A8288E090E0088919892A893B898A930E94824EB7
:14602C000B83C0988E0136DEC02E6395643121F4C09A04E009
:1460400010E034C0CC20A1F70E9467410E3FE1F7442755278E
:1460540004C00E9467414F5F5F4F4A155B05C8F30BC00E94E7
:146068006741602FFA010C881D88E00DF11D60834F5F5F4F7F
:14607C0015012E0C3F1C4215530578F304C00E9467414F5F8F
:146090005F4F4030E2E05E07C0F30E9467410E946741C09A16
