:040000000C94C50394
:040078000C944E3D59
:14008C001F3C293C313C393C413C493C513C593C613C7C3C45
:1400A000803C843C8E3C8E3C8E3C1E530000003F0000C03FC3
:1400B4000000104233C4313C00000442333327418FC2854058
:1400C80033332343000020410000003F000020410000000057
:1400DC00000040C19A998DC166E6F6420000803D286E756CD6
:1400F0006C2070747220706173736564290000000000002031
:14010400202020202020202030303030302020202020202017
:140118002020202020202020202020904040404040404040E3
:14012C00404040404040400C0C0C0C0C0C0C0C0C0C404040C7
:1401400040404040090909090909010101010101010101016B
:14015400010101010101010101014040404040400A0A0A0AE5
:140168000A0A0202020202020202020202020202020202024B
:14017C0002024040404020000000000000000000000000004B
:1401900000000000000000000000000000000000000000005B
:1401A400000000000000000000000000000000000000000047
:1401B800000000000000000000000000000000000000000033
:1401CC0000000000000000000000000000000000000000001F
:1401E00000000000000000000000000000000000000000000B
:1401F40000000000000000000000000000000066746F61202D
:140208006572726F723A206E756D62657220746F6F20626978
:14021C00670066746F61206572726F723A206E756D62657290
:1402300020746F6F20736D616C6C0066746F61206572726F8D
:14024400723A20756E6578706563746564206572726F72005B
:140258000000003F17B7D138000020410000803F000080BF1D
:14026C00000000000900000A00000000000032303133303144
:140280002E786C730000000000000000000000003230313220
:1402940030312E786C73000000004445563030303030310967
:1402A8000909090909090909090D0AD0F2BAC509C8D5C6DA53
:1402BC0009CAB1B7D609CEC2B6C809B7E7CBD909B7E7C0E470
:1402D000D6B8CAFD09B5C8BCDBD6C6C0E4CEC2B6C809CFE0A2
:1402E400B5B1CEC2B6C809B6B3C9CBCEA3BAA6D0D409B0B2AC
:1402F800BEB2D7F7D2B509D6D0B5C8C7BFB6C8D7F7D2B5099F
:14030C00B8DFC7BFB6C8D7F7D2B50A00003009300930093008
:1403200000790681068A069806A206AB06B706C106790681B8
:14033400068A069806A206AB06B706C106000000000000257F
:14034800640025232E316C6600202020202020202020202064
:14035C00202020202000202000BCD3C8C8BFAAB9D800706FB5
:1403700077657220D6B8CABEB5C600B7E4C3F9C6F700B7E7C8
:14038400CBD9C2F6B3E5A3BA00C4DAB2BFCEC2B6C8002523AF
:14039800302E316600CDE2B2BFCEC2B6C82000A9B8A9A4A9B7
:1403AC00A4A9A4A9A4A9A4A9A4A9BC00A9A6202020202020F1
:1403C000202020202020A9A600A9A62020D7D4BCECB3CCD0E9
:1403D400F22020A9A600A9B0A9A4A9A4A9A4A9A4A9A4A9A46D
:1403E800A9B400222A2B2C3A3B3C3D3E3F5B5D7C7F004000A3
:1403FC00000000955800000000FF5100000000FF5100000060
:1404100000FFB8DFC7BFB6C8D7F7D2B5A3BA0000D6D0B5C869
:14042400C7BFB6C8D7F7D2B5A3BA0000B5CDC7BFB6C8D7F7BA
:14043800D2B5A3BA0000BCD3C7BFC0CDB6AFBCE0B6BDA3BB58
:14044C000000D4F6BCD3D2FBCBAE3B0000B1A3B3D6B8C9D490
:14046000EFBDFBC2E3C2B6A1A30000B4F7C3E6D5D6A1A3003D
:1404740000BDFBD3CDB2CAA1A30000CBF5B6CCD7F7D2B5CAFB
:14048800B1BCE4A1A300D0DDCFA2D7A2D2E2B1A3C5AFA1A374
:14049C000000BCF5C9D9B7C7B1D8D0EBD7F7D2B5A3BB000084
:1404B000C0CDB6AFCAB1BCE43C33306D696EA1A30000C8A19B
:1404C400CFFBB7C7B1D8D0EBB5C4D7F7D2B50000C0CDB6AFD8
:1404D800CAB1BCE43C31356D696EA3BB0000C8A1CFFBBBA71C
:1404EC00CDE2D7F7D2B5A1A3002D2D2D2D2D2D2D2D2D2D2DC5
:140500002D2D2D2D2D003039D4C23139C8D531383A30303AC3
:14051400303000A1FC00A1FD003230313230312E786C73008D
:140528000000BBB7BEB3C0E4C7BFB6C8BCECB2E2D2C700BBA4
:14053C00B6D3ADCAB9D3C30049443A20202020202020202075
:140550002020202000D7EEBAF3D2BBB4CE00B0B4CBB3D0F2F2
:1405640000B2CBB5A52F20B2E9D1AF00B2E9D5D2CAFDBEDD9E
:140578003A00CEB4BCECB2E2B5BD5344BFA82E2E002020204B
:14058C0020202020202020D2D1B1A3B4E6002020202000204A
:1405A00020202020202020B7C5C6FAD0DEB8C4002020202081
:1405B40020202020202020202020202000B1A3B4E600CAB14A
:1405C800BCE4C9E8D6C33A202020202020200031323A20332B
:1405DC00303A203539000032303132C4EA3132D4C23331C87B
:1405F000D50000BDFBD3CDB2CAA1A32020202020202020000A
:1406040000B4F7C3E6D5D6A3BBBDFBD3CDB2CAA1A300B6B304
:14061800C9CBCEA3BAA6D0D4D0A1A1A3002020B6B3C9CBCE05
:14062C00A3BAA6D0D4BADCB4F3002020B6B3C9CBCEA3BAA6C8
:14064000D0D4BDCFB4F3002020B6B3C9CBCEA3BAA6D0D4D04D
:14065400A100B6B3C9CBCEA3BAA6D0D43A00CFE0B5B1CEC2A0
:14066800B6C83A2000B5C8BCDBCEC2B6C83A2000B7E7C0E4E8
:14067C00D6B8CAFD3A2000B7E7CBD9286D2F73293A2020207F
:1406900020202000CEC2B6C82028A1E6293A202020202020F6
:1406A40000CDEAB3C9BCECB2E22020202020202020002D2D79
:1406B800BCC6CBE3B2A2B4E6B4A22D2D202020202020200080
:1406CC0020202020202000D5FDD4DABCECB2E2002E2E00CD75
:1406E000CBB3F62020202000CAD6B6AF00D7D4B6AF00B2CB80
:1406F400B5A52F20BCECB2E2002020B5A5B4CEBCECB2E200B5
:14070800BCECB2E2BCE4B8F42873293A002020D1ADBBB7BC6B
:14071C00ECB2E200CAD5B5BDC3FCC1EEA3BA002020B3F5CABB
:14073000BCBBAF002020B2E9D1AF2020CAFDBEDDB4ABCAE485
:14074400002020BCECB2E22020CAB1D6D3B5F7D5FB00FF4402
:1407580045563030303031B144454C3D000E060E060E060EF4
:14076C00062020202020202020202020202020202000200053
:0907800000200C0A1C22460006B0
:14078A00CFEFD0E1CDBFDEBFC050D1400AEA08830024E9E135
:14079E00F6E019E0EE37F10711F00192FBCF0083E0E7F2E0E1
:1407B200A0E0B1E017E000E00BBFE938F10721F0C895319633
:1407C6000D92F9CF0E942E04FFCFF8948FEF8ABB8BBB87BB3F
:1407DA0088BB84BB85BB80936400809365000E943E3F0E9499
:1407EE00B92D0E943D3D0E945C3F02E310E00E94702D0E9402
:140802005C3F01E00E94523F22242092F2088CE38093E008D7
:1408160080E08093E1088093E2088093E30885E08093F00807
:14082A0084E190E09093EE088093ED0881E08093EC082092AA
:14083E00EF088093F1088093DD087894089522242EBC2DBCE9
:140852002CBC2FBC86E48EBD0895EF97EF97EF97EF97EF97CF
:14086600EF97EF97EF9767978AE091E0FE01EF5FFD4F0EE08C
:14087A0010E0FA93EA939A938A930E945B4CAA24BB24A1DFB0
:14088E0001E00E94E7396CD18E010F5F1D4FBCD69E01E1D229
:1408A2001801442455243092760620927506509278064092AB
:1408B60077060E94CA3925C00E94922FA02E4A2D5527433090
:1408CA00E0E05E0769F04430E0E05E0761F04530E0E05E0718
:1408DE0059F04730E0E05E0759F00BC00E948F3008C00E9442
:1408F200CA3505C08E010E941F3801C05AD004E610E00E943F
:14090600702D0DD0A02E0023B9F6EF96EF96EF96EF96EF962A
:14091A00EF96EF96EF96679608950E94CA4B24970E94B33B9E
:14092E0040901A0150901B0120901801309019018090EA0829
:140942009090EB086090E8087090E90826143704480459049F
:1409560050F545E050E060E070E013012401240E351E461E41
:14096A00571E309219012092180150921B0140921A010E94D0
:14097E00343D00270E94D944088319832A833B83CE0100911C
:14099200F00811270E94564D9A938A930E94204F1CF4AD982C
:1409A60001E002C0AD9A01E024960C94D14B649708ED10E01C
:1409BA000E94334B0C831D832E833F830AE612E00E948B4216
:1409CE0009E512E00E948B4208E412E00E948B4207E312E09D
:1409E2000E948B4204EF11E00E94702D0DE212E00E948B421F
:1409F60001E00E94BB440C831D832E833F832C803D804E8092
:140A0A005F80288239824A825B8226E232E08E01085F1F4F6D
:140A1E000E94285322242E868E01085F1F4F0E948B4204EFE7
:140A320011E00E94702D0DE112E00E948B4200270E94BB4469
:140A46000C831D832E833F832C803D804E805F80288239827F
:140A5A004A825B8226E232E08E01025F1F4F0E942853222404
:140A6E002C8A8E01025F1F4F0E948B4204EF11E00E94702DCE
:140A820002E112E00E948B4204EF11E00E94702D0BE012E01C
:140A96000E948B4222E002E00E94034304EF11E00E94702DEE
:140AAA000EEF11E00E948B42A79AAF9804E610E00E94702D3A
:140ABE00A79AAF9A04E610E00E94702DA79AAF9804E610E01F
:140AD2000E94702DA79AAF9A04E610E00E94702DA79AAF98A6
:140AE60004E610E00E94702DA79AAF9A04E610E00E94702D40
:140AFA0004EF11E00E94702D05EF11E00E948B42AD9A04E640
:140B0E0010E00E94702DAD9804E610E00E94702DAD9A04E615
:140B220010E00E94702DAD9804E610E00E94702D02EF11E050
:140B36000E948B4204EF11E00E94702D01EE11E00E948B42CA
:140B4A0001EE11E00E948B4201EE11E00E948B4201EE11E019
:140B5E000E948B4204E610E00E94702D649608950E94B14BC6
:140B7200EF97EF97EF97EF97EF97EF97EF97EF97EF97EF9733
:140B8600EF97AA9780E291E0FE01B6960EE010E0FA93EA938E
:140B9A009A938A930E945B4C8EE291E0FE01F4960BE710E068
:140BAE00FA93EA939A938A930E945B4C00270E94F60B9E012D
:140BC2002F543F4F00270E94E21F8E010A5D1F4F21D5680181
:140BD60082E1888396018E010C5F1F4F0E940D20CE0181552A
:140BEA009F4F9B838A8380E890E0998388839E012C5C3F4F2A
:140BFE008E010C5F1F4F0E941424C02EAC2C8E010C5F1F4F73
:140C12000E94DE272227332700270E94E21FEF96EF96EF962B
:140C2600EF96EF96EF96EF96EF96EF96EF96EF96AA960C94B2
:140C3A008B4BAA92CA92EF97EF97EF97EF97EF97EF97EF978E
:140C4E00EF97EF97E09780E08EA38FA388A789A700270E9424
:140C6200F60B9E01245D3F4F00270E94E21F8E01065A1D4FAA
:140C7600CFD482E1888398018E010C5F1F4F0E940D202E84D7
:140C8A003F84488859882EA23FA248A659A62EA03FA048A4AB
:140C9E0059A44882598291018E010C5F1F4F0E94EE27CE0120
:140CB2008A969B838A8380E490E0998388832BE136E08E0137
:140CC6000C5F1F4F0E941424C02EAC2C8E010C5F1F4F0E9497
:140CDA00DE272227332700270E94E21FEF96EF96EF96EF9680
:140CEE00EF96EF96EF96EF96EF96E096C990A99008950E9412
:140D0200AB4B79016801EF97EF97EF97EF97EF97EF97EF975A
:140D1600EF97EF976F97FE01E05AFD4FA080B180FE01EE599B
:140D2A00FD4F608100270E94F60B9E01285D3F4F00270E9443
:140D3E00E21F81E0888396018E010C5F1F4F0E940D20402FF7
:140D5200043019F4AA24BB2478C080E890E0A0E0B0E00E85EC
:140D66001F8528893989081B190B2A0B3B0B86E090E08A93AD
:140D7A000E944F4C6801662329F4F0921A06E09219060CC01A
:140D8E00613051F42090190630901A062E0C3F1C30921A0655
:140DA200209219062090190630901A06C214D30428F4D09292
:140DB6001A06C09219060FC0222433244090190650901A063D
:140DCA002414350434F081E090E090931A0680931906209189
:140DDE00190630911A0600E410E00E94474BC801805490408C
:140DF20080589F4F1C01442437FC4094552447FC5094488231
:140E0600598291018E010C5F1F4F0E94EE27C02ECE01869673
:140E1A009B838A8380E490E09983888395018E010C5F1F4FA0
:140E2E000E94A921A02E4A2D8E010C5F1F4F0E94DE272227A7
:140E4200332700270E94E21F042FEF96EF96EF96EF96EF96AC
:140E5600EF96EF96EF96EF966F960C94A04B3A932A930E94B8
:140E6A00AB4B5801EF97EF97EF97EF97EF97EF97EF97EF97F5
:140E7E00EF97A89780E08C838D838E838F830024DE01A25AFA
:140E9200BD4F0C92750180E0888789878A878B87AA24BB24DD
:140EA6009E01205D3F4F00270E94E21F81E1888397018E0130
:140EBA00045F1F4F0E940D20C02E002311F0112710C12E88B3
:140ECE003F88488C598C288639864A865B8640E052E060E0E0
:140EE20070E0288439844A845B84421553056405750564F4AC
:140EF60080E092E05C012E883F88488C598C288639864A8646
:140F0A005B8607C0AE88BF8880E0888789878A878B871501F6
:140F1E00442437FC4094552447FC50946E887F88888C998C7A
:140F320062187308840895088882998293018E01045F1F4F74
:140F46000E94EE27CE018E969B838A83B982A882FE01E7591E
:140F5A00FD4F208131818E01045F1F4F0E94A921E02ECE2C10
:140F6E008E01045F1F4F0E94DE2740C0F501DE01A759BD4F87
:140F82000D901C90E00DF11D80818A3069F4FE01E25AFD4F78
:140F96000080002039F400240394FE01E25AFD4F008225C0D1
:140FAA00F501DE01A759BD4F0D901C90E00DF11D80818A3053
:140FBE00D1F4DE01A25ABD4F8C918130A1F480E092E01C0121
:140FD2002A183B0844245524688479848A849B84621873089A
:140FE60084089508688679868A869B8609C0C50101975C012C
:140FFA00AA2009F0BDCFBB2009F0BACF46E750E060E070E04A
:14100E00288439844A845B84241635064606570634F401E091
:1410220010E063C0C50101965C01F501DE01A759BD4F0D906F
:141036001C90E00DF11DE080FF2480E38E1580F78E2D893388
:14104A0068F72FC0F501DE01A759BD4F0D901C90E00DF11D1F
:14105E0080819927C0971C01442437FC4094552447FC50943A
:141072006C807D808E809F804AE050E060E070E09A928A9222
:141086007A926A928A019B010E94574B38014901620C731C63
:14109A00841C951C6C827D828E829F82C50101965C01F50123
:1410AE00DE01A759BD4F0D901C90E00DF11DE080FF248E2DC1
:1410C200843731F0803320F089E38E1508F0BECF41E050E096
:1410D60060E070E02C803D804E805F80240E351E461E571E02
:1410EA008101EF96EF96EF96EF96EF96EF96EF96EF96EF96C3
:1410FE00A8960E94A04B229608950E94664A04ED10E00E94E9
:14111200334BCE019A938A930E94F14E088319832A833B83BF
:14112600288039804A805B8008ED10E00E94334B3A932A9320
:14113A001A930A93810192010E942B4FACF0288039804A805F
:14114E005B8000ED10E00E94334B3A932A931A930A9381015F
:1411620092010E94E74C088319832A833B8314C0288039804A
:141176004A805B8000ED10E00E94334B3A932A931A930A93EF
:14118A00810192010E94FC4C088319832A833B83088119819D
:14119E002A813B810E94224D0E94564D088319832A833B83EE
:1411B200288039804A805B800CEC10E00E94334B3A932A9391
:1411C6001A930A93810192010E94814D088319832A833B83B4
:1411DA00088119812A813B81249608950E94B14B2497CFB642
:1411EE00F8942DB5332700E011E00E94474B58012CB4332490
:14120200A20CB31CCFBE789485010E94544D1801290108ECC2
:1412160010E00E94334B3A932A931A930A93810192010E9429
:14122A00814D10939F0600939E063093A1062093A00665DF5C
:14123E0010939F0600939E063093A1062093A00601E00E94D7
:14125200BB441093950600939406309397062093960601E08E
:141266000E94BB4410939506009394063093970620939606B9
:14127A0046DF10939506009394063093970620939606209170
:14128E00A0063091A10600919E0610919F06FBD118012901B4
:1412A20004EC10E00E94334B3801490104ED10E00E94334BB4
:1412B6005A924A923A922A920E94FB4E1801290100EC10E0CA
:1412CA000E94334B3A932A931A930A93810192010E94E74C32
:1412DE008EE996E09A938A930E94074D830194010E94FB4ECB
:1412F200180129010CEB10E00E94334B84E996E09A938A9371
:141306000E94074D810192010E94FB4E1093A8060093A7064C
:14131A003093AA062093A9060CEB10E00E94334B18012901A0
:14132E0008EB10E00E94334B87EA96E09A938A930E94064F80
:14134200810192010E94FC4C1093B4060093B3063093B60670
:141356002093B5064090960650909706209094063090950687
:14136A003101420104EB10E00E94334B3A932A931A930A9327
:14137E00830194010E94FC4C3801490104ED10E00E94334BD4
:141392003A932A931A930A93830194010E94814D8EE996E0FD
:1413A6009A938A930E94064F810192010E94E74C1093BE06A1
:1413BA000093BD063093C0062093BF064090A0065090A106CB
:1413CE0020909E0630909F06288239824A825B822AED31E01C
:1413E20002EA16E00E942853409096065090970620909406C5
:1413F60030909506288239824A825B822AED31E008E916E06B
:14140A000E9428534090A9065090AA062090A7063090A806D7
:14141E00288239824A825B822AED31E00BEA16E00E9428537C
:141432004090B5065090B6062090B3063090B4062882398237
:141446004A825B822AED31E007EB16E00E9428534090BF0627
:14145A005090C0062090BD063090BE06288239824A825B82D3
:14146E002AED31E001EC16E00E942853409077065090780697
:141482002090750630907606288239824A825B8227ED31E0BC
:1414960009E716E00E942853222420929E062092A706209292
:1414AA00B2062092BD062092C70624960C948B4BAA92689717
:1414BE0089EA91E0FE01709608E010E0FA93EA939A938A9305
:1414D2000E945B4C81EB91E0FE0100E110E0FA93EA939A93D9
:1414E6008A930E945B4CAA2409C08BE196E0EA2DFF27E80FDF
:1414FA00F91F22242082A39480E58A15A0F7AA2414C0CE019B
:14150E00EA2DFF27EE0FFF1FE80FF91F208131810BE116E02D
:141522000E944D4A20E031E00BE116E00E944D4AA39487E0B2
:141536008A1548F72090C7063888320C388A2090C806320CCA
:14154A003A8A2090C9063888320C3C8A2090CA063888320C08
:14155E003E8A9E01205F3F4F0BE116E00E944D4A23E031E0D6
:141572000BE116E00E944D4A25ED31E00BE116E00E944D4A0C
:141586006896A99008950E94AD4B78016097CC2481EC91E0A5
:14159A00FE0100E110E0FA93EA939A938A930E945B4CCE0101
:1415AE00EC2DFF27EE0FFF1FE80FF91FA080B180A70126C0E1
:1415C200FA0180818A3021F42224F50120821FC0FA01808191
:1415D6008930A1F42224F50120824F5F5F4F87E08C1508F475
:1415EA0012C0C394CE01EC2DFF27EE0FFF1FE80FF91FA0806C
:1415FE00B18006C0FA01D5010190AF010D925D01D9CF609635
:141612000C94974B0E94C04B44270DC081E896E0E42FFF2745
:14162600E80FF91F2080E42FFF27E00FF11F208243954630D9
:14163A0088F3242E33244F5FE22DFF27E00FF11F8EE2808323
:14164E00242E33244F5FE22DFF27E00FF11F88E78083642FF8
:1416620077274F5FE62FFF27E00FF11F8CE68083642F772748
:141676004F5FE62FFF27E00FF11F83E78083E42FFF27E00FE3
:14168A00F11F222420820C94C54B0E94664A0E94C04B6097AE
:14169E0000EB10E00E94334B0C871D872E873F870CEA10E0A5
:1416B2000E94334BCE0144969A938A930E94F14E0887198701
:1416C6002A873B872C883D884E885F88288239824A825B8259
:1416DA00FE0120803180428053802C823D824E825F822C804D
:1416EE003D804E805F8055944794379427944FED59E567E370
:141702007FE542195309640975094C835D836E837F83FE012C
:1417160034962080318042805380288239824A825B82288059
:14172A0039804A805B806C847D848E849F84088519852A854D
:14173E003B85CE019A938A930E94F14ECE019A938A930E9422
:14175200064F830194010E94144D810192010E94FB4E088387
:1417660019832A833B83288039804A805B806C847D848E845F
:14177A009F84088519852A853B85CE019A938A930E94F14EA4
:14178E00CE019A938A930E94064F830194010E94144D810199
:1417A20092010E94FB4E088319832A833B830C891D892E8931
:1417B6003F89CE019A938A930E94F14E60960E94C54B2496FB
:1417CA0008950E94664A249781ED91E0FE0104E010E0FA9322
:1417DE00EA939A938A930E945B4C28960895AA924A93A02EA5
:1417F200AA2011F001E00CC00E94B92D402F023011F402E05B
:1418060005C0442311F001E001C000274991A9900895002305
:14181A0011F001E001C0002708950E94AD4B6901E02E229788
:14182E004E85AA24EE2011F4442311F404E010C0413049F424
:14184200D982C8820A851B852C853D850E949F2EA02EAA2044
:1418560011F4002701C001E022960C94974B0E94AF4B590180
:14186A00E02E2297CC84EE2011F4CC2011F404E009C0B98267
:14187E00A882088519852A853B850E94192E002722960C942A
:14189200904B0E94664A00272496089505ED1FEB21E434E77B
:1418A60008950E94D84B4E815F815801690106C0F601D501C7
:1418BA0001906F010D925D011A01415050402220A9F73320AB
:1418CE0099F70C94DF4B0E94B64B4C815D81580103C0F5014C
:1418E20021935F011A01415050402220C1F73320B1F70C940D
:1418F600BB4B0E94AD4B4885598568017901AA24BB241A01E8
:14190A0041505040222011F4332079F0F70121907F01332425
:14191E00F60141906F015524421853085201AA2011F4BB2052
:1419320051F385010C94974B02C00F5F1F4FF80120803324C7
:14194600222021F0332422163306A9F7F80100811127089583
:14195A003A932A930E94B64BA8012997FA01BA962080318047
:14196E00428053802D823E824F8258862D843E844F8458888C
:141982006D807E808F809884621473048404950409F47EC0F2
:14199600FA012480222009F455C081E08C83130124012882F7
:1419AA0039824A825B829A01225D3F4F01810E94320C002398
:1419BE0011F001E068C02224FA012482228C338C448C558C06
:1419D2007E966080718082809380620C731C841C951C2D800C
:1419E6003E804F805884261437044804590450F5FA01A38003
:1419FA0024C0FA017A9620803180428053806D807E808F800A
:141A0E009884620C731C841C951C6D827E828F82988681E0DB
:141A22008C832D803E804F805884288239824A825B829A01E2
:141A3600225D3F4FFA0101810E94320CAA9481E08A15C8F23A
:141A4A002D843E844F84588888942220320442045204D1F071
:141A5E0081E08C83288239824A825B829A01225D3F4FFA0153
:141A720001810E94120C002311F001E00AC02D843E844F8409
:141A86005888FA0122A633A644A655A6002729960E94BB4B5D
:141A9A00229608950E94C04BB801259780E090E0A0E0B0E0E1
:141AAE00A883B9839C018B0151DF402F002309F0C0C0FB015D
:141AC2008081833009F0ACC02580222009F4A8C0BA9680E0FB
:141AD600808381838283838380E092E099838883222733274E
:141AEA008B01025D1F4FF1DE85E5FB01E45DFD4F8083EC528C
:141AFE00F2408AEAE35DFD4F8083ED52F24082E586A787A76C
:141B120081E680AB81E481AB82E7EE5EFD4F8083E251F24033
:141B2600ED5EFD4F8083E351F24081E4EC5EFD4F8083E45178
:141B3A00F24081E6EB5EFD4F8083E551F240268437844088D1
:141B4E005188EA5EFD4F2082E651F24026843784232C332400
:141B6200E95EFD4F2082E751F24026843784408851881201B7
:141B760044245524E85EFD4F2082E851F24088E190E0068577
:141B8A001785208931898A930E944F4CFB01E75EFD4F0083DE
:141B9E00E951F2402284338444845584E65EFD4F2082EA515C
:141BB200F24022843384232C3324E55EFD4F2082EB51F2404B
:141BC6002284338444845584120144245524E45EFD4F2082E9
:141BDA00EC51F24088E190E002851385248535858A930E946E
:141BEE004F4CFB01E35EFD4F0083ED51F24081E08C832288B2
:141C0200338844885588288239824A825B829F01225D3F4FAF
:141C160001810E94320C2224FB01258222243324398228826D
:141C2A0022273327FB01018111270E944A0C0030010709F024
:141C3E0041E0042F25960C94C54B3A932A930E94CA4B580139
:141C520042E050E060E070E02E803F8048845984241A350A09
:141C6600460A570A2E823F824886598642E050E060E070E0B9
:141C7A00F50176962080318042805380241A350A460A570A40
:141C8E006E807F8088849984621473048404950428F000E026
:141CA20010E020E030E01DC0F50132962080332444245524BB
:141CB6000E811F81288539855A924A923A922A920E94574BEC
:141CCA0018012901F50166A077A080A491A4260C371C481C6E
:141CDE00591C810192010E94D14B229608953A932A930E9429
:141CF200AB4B6801229742E050E060E070E02C843D844E84A1
:141D06005F84241635064606570678F0F6017696208031800C
:141D1A00428053806C847D848E849F846214730484049504EC
:141D2E0028F001E010E020E030E024C1F601A080BB24C50107
:141D42008130E0E09E0759F08230E0E09E0709F46FC0833038
:141D5600E0E09E0709F4A6C00DC1AC84BD84150136942794D7
:141D6A00A20CB31C29E030E085010E94484C18014424552419
:141D7E00F601668C778C80A091A0620C731C841C951C8882BC
:141D9200998293018F01E0DD002309F0EDC0C6018E96F50197
:141DA600F170E80FF91FE080FF24C50101965C0129E030E063
:141DBA008C010E94484C180144245524F601668C778C80A04C
:141DCE0091A0620C731C841C951C8882998293018F01BCDDA0
:141DE200002309F0C9C0C6018E96F501F170E80FF91F208057
:141DF6003324322C2224E228F3282C843D844E845F84E22D84
:141E0A00E17051F05701B694A794B694A794B694A794B69401
:141E1E00A79403C0C7019F705C018501960122273327A8C056
:141E320088E090E00C851D852E853F858A930E944F4CF601C9
:141E4600268C378C40A051A0200E311E421E531E488259824F
:141E5A0091018F017DDDA02E002309F089C04FEF51E060E016
:141E6E0070E02C843D844E845F84220C331C441C551C242256
:141E82003522462257225101C6018E96A80EB91EF5012080B4
:141E9600332401811127102F002702291329222733276CC08B
:141EAA0087E090E00C851D852E853F858A930E944F4CF60152
:141EBE00268C378C40A051A0200E311E421E531E48825982D7
:141ED20091018F0141DDE02E002309F04DC082E090E00C8522
:141EE6001D852E853F858A930E94364C180129014FEF51E0DC
:141EFA0060E070E024223522462257225101C6018E96A80ED3
:141F0E00B91E88E190E0F50103811127222733278A930E94FB
:141F2200364C18012901F5016280772488249924430166243C
:141F36007724262837284828592861807724762C662488240A
:141F4A009924262837284828592860807724882499242628F6
:141F5E003728482859284FEF5FEF6FEF7FE0242235224622D1
:141F720057228101920104C00FEF1FEF2FEF3FEF22960E9457
:141F8600A04B229608950E94664A0E94AB4B239742E050E011
:141F9A0060E070E02F84388849885A8824163506460657065F
:141FAE0080F0ED85FE85769620803180428053806F847888D5
:141FC20089889A88621473048404950418F082E08A8394C1FE
:141FD600ED85FE85A080BB24C5018130E0E09E0759F082302C
:141FEA00E0E09E0709F4B0C08330E0E09E0709F4E7C07AC11A
:141FFE00CF84D888160136942794C20CD31C29E030E0860123
:142012000E94484C180144245524ED85FE85668C778C80A080
:1420260091A0620C731C841C951C8882998293018F0190DC72
:14203A000A83002E002309F059C18D859E858E96F601F170F0
:14204E007F01E80EF91E2F84388849885A88EF93E22DE170E9
:14206200EF91B1F02B883C884D885E883324220C331C220C15
:14207600331C220C331C220C331CF701808199278F70907055
:14208A005C01A228B32806C02B883C884D885E88A22CBB249B
:14209E00F701A082C60101966C0181E0ED85FE85848329E0E3
:1420B20030E086010E94484C180144245524ED85FE85668C6C
:1420C600778C80A091A0620C731C841C951C888299829301AB
:1420DA008F013EDC0A83002E002309F007C18D859E858E9650
:1420EE00F601F1707F01E80EF91E2F84388849885A88EF9351
:14210200E22DE170EF9161F084E090E00B891C892D893E890E
:142116008A930E944F4CC02EDD2415C088E090E00B891C8986
:14212A002D893E898A930E944F4C802F99278F709070F70164
:14213E00E081FF27E07FF0706F01C82AD92AF701C082D2C016
:1421520088E090E00F85188929893A898A930E944F4CED852B
:14216600FE85268C378C40A051A0200E311E421E531E488284
:14217A00598291018F01ECDBC02ECA820C2C002309F0B4C08B
:14218E004FEF51E060E070E02F84388849885A88220C331C9B
:1421A200441C551C242235224622572271018D859E858E960F
:1421B600E80EF91E2B883C88F7012082232C3324218296C058
:1421CA0087E090E00F85188929893A898A930E944F4CED85B4
:1421DE00FE85268C378C40A051A0200E311E421E531E48820C
:1421F200598291018F01B0DBC02ECA820C2C002309F078C08B
:1422060082E090E00F85188929893A898A930E94364C1801EE
:14221A0029014FEF51E060E070E02422352246225722710197
:14222E008D859E858E96E80EF91E88E190E0F70103811127A9
:14224200222733278A930E94364C18012901F70162807724EC
:14225600882499244301662477242628372848285928618023
:14226A007724762C66248824992426283728482859286080B2
:14227E00772488249924262837284828592840E050E060E01A
:1422920070EF24223522462257226B887C888D889E8862289F
:1422A6007328842895286B8A7C8A8D8A9E8A2B883C884D889A
:1422BA005E882082232C3324319620822B883C884D885E8847
:1422CE00120144245524F7013296208288E190E00B891C8994
:1422E2002D893E898A930E944F4CF701038302C082E08A8362
:1422F60081E0ED85FE8584830A8123960E94A04B249608954F
:14230A003A932A930E94E64B68012A9742E050E060E070E056
:14231E002A883B884C885D88241635064606570678F0F60100
:14233200769620803180428053806A887B888C889D88621401
:1423460073048404950418F082E0A82E88C0AA2476C02A88AD
:14235A003B884C885D884882598291018601C1DC0E831F8365
:14236E00288739872E803F80488459848894222032044204FC
:14238200520409F46EC041E050E060E070E02E803F804884AC
:142396005984241635064606570619F482E0A82E5EC04FEF97
:1423AA005FEF6FEF7FEF2E803F80488459842416350646062E
:1423BE00570619F4AA24A3944EC080E08A838B838C838D83F4
:1423D2002A883B884C885D884882598291018601D4DDA02E8C
:1423E600002309F03CC04FEF5FEF6FEF7FEFF6012684378417
:1423FA00408851882416350646065706B1F0CF010E9641E0DA
:14240E0050E060E070E0FC012080318042805380240E351E92
:14242200461E571E208231824282538281E0F60185832E80D1
:142436003F80488459842A8A3B8A4C8A5D8AF6017696208051
:14244A003180428053806A887B888C889D8862147304840495
:14245E00950408F47ACF0A2D2A960E94EF4B229608953A9397
:142472002A930E94AB4B6801669728A039A04AA05BA08894F9
:14248600222032044204520459F5F6013A9620803180428006
:14249A0053802E863F86488A598A2E843F84488859888894EB
:1424AE00222032044204520481F0F60176962080318042807F
:1424C20053806E847F8488889988621473048404950408F403
:1424D60040C081E08E8780E08F87888B898B39C028A039A045
:1424EA004AA05BA04882598291018601FADB0A871B872C8780
:1424FE003D8742E050E060E070E02A843B844C845D842416CC
:1425120035064606570628F401E010E020E030E019C1F60103
:14252600769620803180428053806A847B848C849D8462141B
:14253A0073048404950418F48301940107C128A039A04AA07D
:14254E005BA02E863F86488A598A2E843F84488859882E827A
:142562003F824886598641E050E060E070E02E803F804884DD
:142576005984240E351E461E571E2E823F8248865986F60101
:14258A00769620803180428053806E807F80888499846214BF
:14259E00730484049504C0F082E08E8380E08F8388878987DD
:1425B2002E843F84488859886E807F80888499842614370464
:1425C6004804590428F400E010E020E030E0C0C02E803F806F
:1425DA0048845984488259829101860182DB0A871B872C8743
:1425EE003D872A843B844C845D8488942220320442045204C7
:1426020009F42EC04FEF5FEF6FEF7FEF2A843B844C845D8463
:14261600241635064606570649F041E050E060E070E024163E
:14262A0035064606570629F40A851B852C853D858DC02E84FA
:14263E003F84488859886E807F808884998462147304840489
:14265200950409F088CF00E010E020E030E07AC08FEF8A83E6
:142666008B838C838FE08D832E803F80488459844882598209
:14267A009101860186DCA02E0023E1F428A039A04AA05BA085
:14268E008894222032044204520491F02E803F804884598471
:1426A2002A823B824C825D8228A039A04AA05BA048825982E3
:1426B6009101860168DCA02EAA2009F02EC02E803F804884FB
:1426CA005984F60122863386448655864FEF5FEF6FEF7FEFCA
:1426DE002684378440885188241635064606570679F1CF018A
:1426F2000E967C0141E050E060E070E0FC01208031804280C2
:142706005380241A350A460A570A208231824282538281E06F
:14271A00F601858317C08A2D813031F48FEF8A8B8B8B8C8B88
:14272E008D8B06C081E08A8B80E08B8B8C8B8D8B2A883B8829
:142742004C885D882E823F82488659860E811F812885398512
:1427560066960E94A04B229608953A932A930E94B14B680100
:14276A002897F601B0968081918104965C0189E090E00C85EB
:14277E001D852E853F858A930E944F4CF601AF93BF93A08128
:14279200B181FD01BF91AF91329620803324442455245A92E7
:1427A6004A923A922A920E94B14A0C831D832E833F83F50186
:1427BA0021903190419051905F01288239824A825B822880D1
:1427CE0039804A805B808894222032044204520429F400E06C
:1427E20010E020E030E02FC0288039804A805B806C807D8005
:1427F6008E809F80621473048404950408F414C02880398063
:14280A004A805B806C807D808E809F806218730884089508E1
:14281E006C827D828E829F82C50104965C01C5CFF5012080A1
:142832003180428053800C811D812E813F81020D131D241D32
:14284600351D28960E948B4B229608950E94AB4B6901580146
:14285A002697F501D582C482369620803180428053802A82BC
:14286E003B824C825D8241E050E060E070E02A803B804C80DA
:142882005D80241635064606570689F0F501A081B181569699
:142896002D903D904D905C906A807B808C809D8062147304E0
:1428AA008404950410F002E0D6C02A803B804C805D80889457
:1428BE00222032044204520479F4F501A081B1818C9183306C
:1428D20049F492962D903D904D905C902A823B824C825D8224
:1428E6002A803B804C805D808894222032044204520409F0A7
:1428FA002BC0F5012286338644865586A081B18118962D9025
:14290E003C90C214D30410F002E0A3C0160136942794369491
:142922002794369427943694279444245524F501A081B181B2
:1429360092966D907D908D909C90620C731C841C951C6686D8
:14294A007786808A918A76C0F501AF93BF93A081B181FD0146
:14295E00BF91AF91228080E1829D700140C02A803B804C8011
:142972005D80488259829101F50100811181B5D90A831B837B
:142986002C833D834FEF5FEF6FEF7FEF2A803B804C805D8068
:14299A00241635064606570611F401E05CC042E050E060E077
:1429AE0070E02A803B804C805D80241635064606570688F021
:1429C200F501A081B18156962D903D904D905C906A807B8094
:1429D6008C809D80621473048404950410F002E03CC0CE18F2
:1429EA00DF08CE14DF0408F0BCCF2A803B804C805D80F501A6
:1429FE002286338644865586488259829101008111811BD981
:142A120016013694279436942794369427943694279444241D
:142A2600552438014901620C731C841C951CF5016686778673
:142A3A00808A918A96012F70307000E210E00E94474B18016E
:142A4E00F501808191818E96280E391E338A228A002726966E
:142A62000C94A04B0E94664A0E94AB4B59012697E889F989E1
:142A76008481958101966C018030890759F03E96208031807F
:142A8A00428053808894222032044204520411F404E08DC13C
:142A9E00C6018F7090708030890709F070C1888999890E961D
:142AB20041E050E060E070E0FC012080318042805380240E1A
:142AC600351E461E571E2082318242825382E889F9893A961F
:142ADA0020803180428053808894222032044204520469F475
:142AEE00E889F989A081B18118962D903C90C214D30408F4AE
:142B020044C104E058C1E889F989AF93BF93A081B181FD01E5
:142B1600BF91AF91828199270197160136942794369427949F
:142B2A00369427943694279428223922222009F028C1332071
:142B3E0009F025C1E889F9892284338444845584488259820E
:142B5200910100811181C9D80A831B832C833D8341E050E03E
:142B660060E070E02A803B804C805D8042155305640575052B
:142B7A0010F002E01CC14FEF5FEF6FEF7FEF2A803B804C80FF
:142B8E005D80241635064606570611F401E00DC1E889F98991
:142BA200A081B18156962D903D904D905C906A807B808C809C
:142BB6009D80621473048404950408F4CDC0AA2021F4BB209D
:142BCA0011F404E0F4C0E889F989228433844484558448829F
:142BDE00598291010081118144DC0A831B832C833D832A80FF
:142BF2003B804C805D808894222032044204520411F407E04F
:142C0600D8C041E050E060E070E02A803B804C805D802416F9
:142C1A0035064606570611F402E0C9C04FEF5FEF6FEF7FEFFA
:142C2E002A803B804C805D80241635064606570611F401E080
:142C4200BAC040E050E060E070E0688379839A01E889F989AF
:142C5600008111810E94AD0C002311F001E0A9C080E092E0BC
:142C6A009983888322273327E889F98900811181025D1F4FB9
:142C7E000E946A0C2A803B804C805D80488259829101E88974
:142C9200F989A080B18085010E94240EF50102A713A724A7DD
:142CA60035A7AA2435C081E0E889F989AF93BF93A081B18140
:142CBA00FD01BF91AF91848340E050E060E070E068837983AA
:142CCE009A01E889F989008111810E94AD0CE02E002311F0C4
:142CE20001E069C0E889F989808191818A967C0141E050E0E0
:142CF60060E070E0FC012080318042805380240E351E461E6E
:142D0A00571E2082318242825382A394E889F989AF93BF9394
:142D1E00A081B181FD01BF91AF912280A21408F4BECFE8896E
:142D3200F989808191818A967C012A2C332444245524FC01D0
:142D46006080718082809380621873088408950860827182A0
:142D5A00828293822A803B804C805D80E889F98922863386EA
:142D6E0044865586488259829101008111810E94240EE8891D
:142D8200F98906871787208B318BE889F989D582C482960102
:142D96002F70307000E210E00E94474B1801E889F9898081D7
:142DAA0091818E96280E391E338A228A002726960E94A04B79
:142DBE00249608950E94E64BB8012297222733278B0140DD19
:142DD200402F002309F036C0FB0126843784408851884882A0
:142DE60059829101008111810E94AD0C402F002309F025C08E
:142DFA00FB01A288B388F501C080CC2011F444E01CC0F50147
:142E0E00238423FC0FC08BE090E099838883FB0124893589B2
:142E220085010E947C0C58010030010709F409C022273327F2
:142E36008B0116DEA02E4A2D442309F4CBCF042F22960C943A
:142E4A00EF4B0E94E64BB801229744E02BC0FB012684378485
:142E5E0040885188488259829101008111810E94AD0C402FAB
:142E7200002309F028C0FB01A288B388F501C080CC2011F4C0
:142E860044E01FC08C2D853E39F08E3229F0F501238423FCFB
:142E9A0001C015C0222733278B01E0DD402F002309F00DC04A
:142EAE00FB013E962080318042805380889422203204420480
:142EC200520409F0C8CF442339F0FB013E9680E0808381834F
:142ED60082838383042F22960C94EF4B0E94E64BA8012297E3
:142EEA00222733278A01B0DCA02E002309F5FA0126843784CB
:142EFE0040885188488259829101008111810E94AD0CA02EAC
:142F1200002309F011C0FA01A289B3896C91653E11F0662332
:142F260009F408C021E030E08A019ADDC02EAC2CAA20F9F244
:142F3A00AA2009F030C0FA012684378440885188488259822A
:142F4E009101008111810E94AD0CC02EAC2C002301F5FA0195
:142F6200C288D38880E290E0998388832227332786010E94F1
:142F76006A0C8BE090E099838883FA012489358986010E9440
:142F8A00540C81E0FA01AF93BF93A081B181FD01BF91AF9102
:142F9E0084830A2D22960C94EF4B3A932A930E94AB4BA80184
:142FB2002997EB89FC89208031803B822A8205C08A819B81AC
:142FC60001969B838A83EA81FB8120803324822D8F32A1F353
:142FDA008C3591F3FA01248835883F822E828BE090E09983D2
:142FEE00888320E230E081010E946A0C0024088622243324C9
:143002003D822C82B10188E090E06C01AB016F5F7F4FFA0113
:143016000A801B80E00DF11D408180E2841720F44F3211F032
:14302A004C3509F487C04E3229F00C801D800C141D04A0F03A
:14303E00C6018830E0E09E0711F44E3211F006E0AFC088E057
:1430520090E09D838C838BE06C010884000C000C0886D4CF1E
:14306600403818F0888583608887413808F439C08EEF841751
:14307A0008F435C05B016F5F7F4FF5010A801B80E00DF11D43
:14308E00A0808A2D803418F08EE78A1530F48A2D803850F0B4
:1430A2008EEF8A1538F0C60101970C801D800816190610F011
:1430B60006E07AC0EC80FD80C70101969D838C83F7010E80E9
:1430CA001F80E00DF11D40837C0101969D838C83F7010E80CC
:1430DE001F80E00DF11DA08293CF242F33270BE712E00E948D
:1430F2009D0C58010030010711F006E057C0413438F08AE586
:14310600841720F088858260888709C0413638F08AE7841798
:14311A0020F08885816088874052AC80BD80C50101969D831C
:14312E008C83F5010E801F80E00DF11D408368CF1B010A80C0
:143142001B80200C311CEB89FC893182208280E2841718F012
:1431560064E070E002C066277727462F0C801D80002021F411
:14316A00112011F406E01EC0EE81FF818081853E11F485E03A
:14317E008083C6018830E0E09E0721F40884000C000C08860F
:1431920088858370813009F4406188858C70843009F4486078
:1431A600EE81FF814387002729960E94A04B229608950E94F2
:1431BA00AB4BB9015801AB01475F5F4FF5013E9620803180DD
:1431CE00428053808894222032044204520409F48AC0F501EB
:1431E200A288B388CC24DD2414C0F601EA0DFB1DE0808E2D8E
:1431F600803209F411C08E2D853011F485EEE82E00C0FA018C
:14320A00E192AF01C60101966C01C6018830E0E09E0738F3B3
:14321E00F50180858032E1F08EE2FA018193AF0188E090E017
:143232006C010FC0F601EA0DFB1DE0808E2D803209F40CC0B0
:1432460000C0FA01E192AF01C60101966C01C6018B30E0E089
:14325A009E0760F3F5012384FB01208688E190E0F501078DC6
:14326E001127222733278A930E94364C18012901F501668C05
:1432820077248824992443016624772426283728482859282D
:14329600658C7724762C662488249924262837284828592865
:1432AA00648C7724882499242628372848285928FB012082E0
:1432BE00318242825382F501208C3324418C5524542C442489
:1432D20042285328FB0155824482F501268833244788552427
:1432E600542C442442285328FB01578246822224FA01208287
:1432FA000C94A04B3A932A930E94CA4BB801EE81FF812080AC
:14330E003324822D8F3211F08C3529F48E819F8101969F831D
:143322008E83FB01369680E08083818382838383EE81FF815D
:14333600808199278032E0E09E0758F4222733278B0184DAD2
:14334A00402F22243324FB01338A228A52C09E012A5F3F4F36
:14335E008B0123DEA02E4A2D002309F048C08B0129DDA02E05
:143372004A2DFB01AF93BF93A489B589FD01BF91AF91A38420
:14338600002349F0043009F036C001C0E2CFA2FC32C045E08D
:14339A0030C0A2FE01C02DC0FB01A288B388F501238424FCC3
:1433AE0002C045E024C0F501228C3324438C5524542C442415
:1433C200422853281201442455246488772485889924982C09
:1433D600882486289728340188249924430166247724622839
:1433EA00732884289528FB016682778280869186AECF042F21
:1433FE000E94D14B229608953A932A930E94CA4B5801259752
:1434120081E08C832B843C844D845E84288239824A825B8206
:143426009501225D3F4FF50101810E94120C002311F003E0B0
:14343A00A8C0F501E45DFD4F2080EC52F2403324E35DFD4FA0
:14344E0080819927982F8827822993298535EAEA9E0711F098
:1434620002E093C088E190E0F501E959FF4F008111272227C0
:1434760033278A930E94364C18012901F501EA59FF4F6080FD
:14348A00E656F04077248824992443016624772426283728A8
:14349E0048285928EB59FF4F6080E556F0407724762C662485
:1434B200882499242628372848285928EC59FF4F60807724F1
:1434C6008824992426283728482859284FEF5FEF6FEF70E0B1
:1434DA00242235224622572246E451E464E570E024163506F3
:1434EE004606570611F400274AC088E190E0F501ED57FF4F8A
:1435020000811127222733278A930E94364C18012901F501DF
:14351600EE57FF4F6080E258F04077248824992443016624F2
:14352A0077242628372848285928EF57FF4F6080E158F04077
:14353E007724762C6624882499242628372848285928E05873
:14355200FF4F608077248824992426283728482859284FEF57
:143566005FEF6FEF70E0242235224622572246E451E464E52F
:14357A0070E0241635064606570611F4002701C001E0259646
:14358E000E94D14B229608953A932A930E94AB4B6801A7974D
:1435A200F601A080B180F50180819927C0977C0189E090E069
:1435B6008E159F0550F081818A3339F4CF0102965C01F601D2
:1435CA00B182A08202C0EE24FF24C7018130E0E09E0710F0C3
:1435DE000BE0CFC485EF98E0F701EE0FFF1FE80FF91F2080AD
:1435F20031803EA22DA2E9A9FAA9318220820101222021F482
:14360600332011F40CE0B9C4EDA1FEA12080222079F00181F5
:14361A000E940C0CA02E00FD09C00BA8002021F002FF02C0A7
:14362E000AE0A7C40027A5C42224EDA1FEA12082E1820181A9
:143642000E94F60BE02EAE2C00FF02C003E097C40BA8002017
:1436560021F0A2FE02C00AE090C480E0898B8A8B8B8B8C8BF9
:14366A0040E050E060E070E0688379839A010DA11EA1C4DEDB
:14367E00A02ECA2C00C08C2D813009F04CC0AA2409F0AA9440
:1436920000E11A2D010350018DA19EA184519E4FA80EB91EEB
:1436A600F5012480222009F43AC088E190E00385112722275B
:1436BA0033278A930E94364C18012901F501628477248824FB
:1436CE009924430166247724262837284828592861847724A4
:1436E200762C662488249924262837284828592838966080F3
:1436F6007724882499242628372848285928298A3A8A4B8AD2
:14370A005C8A29883A884B885C884882598291010DA11EA1F7
:14371E0073DEA02ECA2C8C2D833011F401E029C4CC2011F056
:143732000DE025C4EDA1FEA121AC332482AD9927982F8827F7
:14374600822993298030E2E09E0711F00DE015C4EDA1FEA1FD
:14375A00EC5BFF4F2080E454F0403324EB5BFF4F408055249A
:14376E00542C4424422853281201442455242D823E824F8246
:1437820058862D803E804F805884889422203204420452040F
:1437960009F03CC088E190E0EDA1FEA1EB5AFF4F00811127D8
:1437AA00222733278A930E94364C18012901EDA1FEA1EC5A71
:1437BE00FF4F6080E455F040772488249924430166247724F3
:1437D2002628372848285928ED5AFF4F6080E355F0407724CD
:1437E600762C6624882499242628372848285928EE5AFF4F06
:1437FA00608077248824992426283728482859282D823E82CA
:14380E004F8258862D803E804F805884EDA1FEA1228E338E43
:14382200448E558EA6ACEA2CA3828E2D813021F0823011F020
:143836000DE0A3C32E2C3324442455240D811E812F813885FF
:14384A005A924A923A922A920E94574B0D831E832F83388734
:14385E00EDA1FEA1A3ACEA2CA282AA2029F08E2D81502E2CD7
:14387200282211F00DE083C3EDA1FEA127AC3324E05CFF4FE3
:143886004080E054F0405524542C4424422853285186408627
:14389A00808591858F7090708030890711F00DE06AC3EDA117
:1438AE00FEA1EF5BFF4F2080E154F0403324EE5BFF4F40801C
:1438C2005524542C4424422853281201442455242D863E8641
:1438D6004F86588A2D843E844F845888889422203204420427
:1438EA00520409F03CC088E190E0EDA1FEA1EF5AFF4F008161
:1438FE001127222733278A930E94364C18012901EDA1FEA12A
:14391200E05BFF4F6080E055F0407724882499244301662401
:1439260077242628372848285928E15BFF4F6080EF54F04077
:14393A007724762C6624882499242628372848285928E25B6E
:14394E00FF4F608077248824992426283728482859282D86E2
:143962003E864F86588AEDA1FEA124AC3324E5ACFF24FE2CA4
:14397600EE24E228F328EE2021F4FF2011F40DE0FCC22D8067
:14398A003E804F805884370188249924620C731C841C951CD1
:14399E00EDA1FEA138962080318036942794369427943694F5
:1439B20027943694279444245524620C731C841C951C6D8A9B
:1439C6007E8A8F8A988E2D883E884F88588C6D847E848F846A
:1439DA009888621473048404950410F40DE0CBC22D883E88B2
:1439EE004F88588C0D851E852F8538890219130924093509BE
:143A0200EDA1FEA1329620803324442455245A924A923A924F
:143A16002A920E94B14A09871A872B873C8729843A844B8463
:143A2A005C848894222032044204520411F40DE0A2C2CC2432
:143A3E00C39446EF5FE060E070E029843A844B845C842416C5
:143A520035064606570610F082E0C82E46EF5FEF60E070E011
:143A660029843A844B845C84241635064606570610F083E0B1
:143A7A00C82E42E050E060E070E029843A844B845C84240E14
:143A8E00351E461E571EEDA1FEA176962082318242825382D1
:143AA2002D883E884F88588C69887A888B889C88620C731CB3
:143AB600841C951CEDA1FEA1B696608271828282938217012C
:143ACA004424552469887A888B889C88620C731C841C951C8F
:143ADE00EDA1FEA1668E778E80A291A28C2D833009F055C0DF
:143AF20020843184222011F4332011F00DE03FC288E190E005
:143B0600EDA1FEA1E35AFF4F00811127222733278A930E94D8
:143B1A00364C18012901EDA1FEA1E45AFF4F6080EC55F040C8
:143B2E00772488249924430166247724262837284828592878
:143B4200E55AFF4F6080EB55F0407724762C66248824992462
:143B56002628372848285928E65AFF4F6080EA55F040772445
:143B6A0088249924262837284828592822A233A244A255A2CA
:143B7E0082E090E0769600811181228133818A930E94364CAA
:143B9200098F1A8F2B8F3C8F6AC0EDA1FEA120843184222067
:143BA60021F4332011F40DE0E8C12D803E804F805884EDA164
:143BBA00FEA1668C778C80A091A0620C731C841C951C62A2C0
:143BCE0073A284A295A28C2D823071F4769620803180428082
:143BE2005380220C331C441C551C2D8E3E8E4F8E58A235C05B
:143BF600EDA1FEA17696208031804280538029A23AA24BA208
:143C0A005CA241E050E060E070E029A03AA04BA05CA02422F7
:143C1E0035224622572269A07AA08BA09CA043E050E060E03D
:143C320070E09A928A927A926A928A019B010E94574B38013A
:143C460049019694879477946794620C731C841C951C6D8E8C
:143C5A007E8E8F8E98A22D8C3E8C4F8C58A0298E3A8E4B8E45
:143C6E005C8E4FEF51E060E070E0098D1A8D2B8D3C8D040F88
:143C8200151F261F371F89E090E08A930E944F4CEDA1FEA1FF
:143C9600228C338C448C558C201631064206530610F40DE0FD
:143CAA006AC1EDA1FEA13E968FEF8083818382838383EDA1BC
:143CBE00FEA13A9680E080838183828383838C2D833009F0AC
:143CD2003CC12224EDA1FEA12582E25AFF4F2080EE55F0402A
:143CE6003324E15AFF4F40805524542C4424422853281201D1
:143CFA004424552469887A888B889C88620C731C841C951C5D
:143D0E00EDA1FEA1628A738A848A958A81E08C832288338889
:143D220044885588288239824A825B829F01225D3F4F0181A7
:143D36000E94120CE02E002309F005C1EDA1FEA1E45DFD4F0F
:143D4A002080EC52F2403324E35DFD4F8081ED52F240992740
:143D5E00982F8827822993298535AAEA9A0709F0EEC088E175
:143D720090E001A91127222733278A930E94364C18012901C4
:143D8600EDA1FEA160A8772488249924430166247724262839
:143D9A0037284828592867A47724762C66248824992426283C
:143DAE0037284828592866A477248824992426283728482886
:143DC200592842E552E561E671E4241635064606570609F05B
:143DD600BAC088E190E0EB5EFD4F00811127222733278A9378
:143DEA000E94364C18012901EDA1FEA1EC5EFD4F6080E45186
:143DFE00F240772488249924430166247724262837284828F5
:143E12005928ED5EFD4F6080E351F2407724762C66248824CB
:143E260099242628372848285928EE5EFD4F6080E251F24050
:143E3A00772488249924262837284828592842E752E761E42B
:143E4E0071E6241635064606570609F078C088E190E0E35EA0
:143E6200FD4F00811127222733278A930E94364C1801290120
:143E7600EDA1FEA1E45EFD4F6080EC51F2407724882499242A
:143E8A004301662477242628372848285928E55EFD4F6080AE
:143E9E00EB51F2407724762C66248824992426283728482855
:143EB2005928E65EFD4F6080EA51F24077248824992426284C
:143EC600372848285928228633864486558688E190E0E75E74
:143EDA00FD4F00811127222733278A930E94364C18012901A8
:143EEE00EDA1FEA1E85EFD4F6080E851F240772488249924B2
:143F02004301662477242628372848285928E95EFD4F608031
:143F1600E751F2407724762C662488249924262837284828E0
:143F2A005928EA5EFD4F6080E651F2407724882499242628D3
:143F3E0037284828592826863786408A518AEDA1FEA1C082A2
:143F52008091F3089091F40801966C01D092F408C092F30883
:143F6600D782C682BA9680E080838183828383832224EDA110
:143F7A00FEA124820027A7960E94A04B229608950E94B64B05
:143F8E005901A8014030450749F0FA012080222029F026808B
:143FA20037802A143B0411F009E009C0FA0101810E940C0CED
:143FB60000FF02C003E001C000270C94BB4BAA92BA9201300C
:143FCA0010F00BE022C085EF98E0E02FFF27EE0FFF1FE80FE3
:143FDE00F91FA080B180AA2011F4BB2019F02224F5012082D5
:143FF2002030230719F02224F901208285EF98E0E02FFF2735
:14400600EE0FFF1FE80FF91F318320830027B990A9900895DF
:14401A000E94664A0E94AB4BAC9722243324EEA9FFA93182D6
:14402E0020828AAD8F718AAF99278E7F88839E012E5F3F4FDA
:144042008E01085C1F4FA6DAA02ECE0148969F8B8E8B0023A8
:1440560039F428AD39AD8E010E5F1F4F4DD9A02EEC88FD8817
:14406A00AA2031F4EE2021F4FF2011F486E0A82E8AAD8C719C
:14407E0009F4C0C0AA2081F08A2D843039F48E010E5F1F4F74
:144092000E947117C02EAC2C8AAD88608AAFEC88FD880CC00D
:1440A600F7018385817119F087E0A82E05C00AAC02FE02C091
:1440BA0088E0A82EAA2009F0B1C00AAC03FEAEC00E944F0C5E
:1440CE000CA31DA32EA33FA32CA03DA04EA05FA0F701268682
:1440E200232C33243F9620822CA03DA04EA05FA0120144249C
:1440F6005524F7017096208288E190E00CA11DA12EA13FA1AA
:14410A008A930E944F4CF701018B22242386248E258E268EBB
:14411E00278E228C3324438C5524542C4424422853281201AB
:144132004424552464887724759680809924982C882486282B
:144146009728340188249924430166247724622873288428CE
:14415A00952868A679A68AA69BA62224F701228E238E248AA9
:14416E00258A81E0EA81FB813496808328A439A44AA45BA4E3
:144182008894222032044204520409F44BC0EA81FB8122A444
:1441960033A444A455A42CA23DA24EA25FA228A439A44AA428
:1441AA005BA44882598291010A811B810E948511C02EAC2CA6
:1441BE00002391F541E050E060E070E028A439A44AA45BA4CD
:1441D200241A350A460A570AEA81FB812286338644865586BE
:1441E6002CA03DA04EA05FA04882598291010A811B810E942F
:1441FA00AD0CC02EAC2C12C0AA2081F4F701238424FE03C09D
:14420E0084E0A82E09C00AAC01FE06C0F701238420FE02C09F
:1442220087E0A82EAA20A1F40AAC03FE03C0802D80628AAFAA
:14423600EA81FB8122A433A444A455A4EEA9FFA9228E338E5F
:14424A00448E558EF78EE68EAA2009F077C0EEA9FFA90AACC3
:14425E000482F701228C3324438C5524542C442442285328B4
:144272001201442455246488772485889924982C88248628D5
:1442860097283401882499244301662477246228732884288D
:14429A009528EEA9FFA966867786808A918A88E190E0F70135
:1442AE00078D1127222733278A930E94364C18012901F70111
:1442C200668C7724882499244301662477242628372848286C
:1442D6005928658C7724762C66248824992426283728482815
:1442EA005928648C7724882499242628372848285928EEA916
:1442FE00FFA92286338644865586369680E0808381838283C6
:144312008383EEA9FFA9769680E0808381838283838322248E
:144326003324EEA9FFA931A220A22A803B8031822082F101AC
:14433A0026803780EEA9FFA9338222820A2DAC960E94A04B74
:14434E00249608950E94664A0E94AB4B59016197750180E0F2
:1443620092E0998388832227332785010E94424A22243324BA
:14437600E9A1FAA131822082EB8DFC8D22813381008111814E
:14438A00FFDDA02E002309F045C2EB8DFC8D248027FE02C0C6
:14439E0002E03EC2EB8DFC8D248020FC02C007E037C2EB8D4E
:1443B200FC8D26803780408451843A966080718082809380C2
:1443C60062187308840895086D867E868F86988A2D843E8424
:1443DA004F8458886F8C78A088249924261437044804590482
:1443EE0008F00DC238A22F8E0AC24FEF51E060E070E0EB8D1A
:14440200FC8D369620803180428053802422352246225722ED
:144416008894222032044204520409F080C189E090E0EB8DD7
:14442A00FC8D06811781208531858A930E944F4C18012901DE
:14443E00EB8DFC8DAF93BF93A081B181FD01BF91AF918281F1
:14445200992701973C01882477FC8094992487FC90942620E4
:14446600372048205920C22C222009F078C0EB8DFC8D3696DC
:14447A0020803180428053808894222032044204520461F4C3
:14448E00EB8DFC8D3E96208031804280538029863A864B861F
:1444A2005C8628C0EB8DFC8D20A031A0222011F4332079F0A7
:1444B60026803780408451844882598291018F010E94B013D0
:1444CA0009871A872B873C8711C0EB8DFC8D22883388448835
:1444DE005588488259829101008111810E94760E09871A874C
:1444F2002B873C8742E050E060E070E029843A844B845C8445
:14450600241635064606570648F48B8D9C8D0496FC0180816E
:14451A008068808302E07EC14FEF5FEF6FEF7FEF29843A84BE
:14452E004B845C84241635064606570651F48B8D9C8D04968C
:144542005C01FC0180818068808301E067C129843A844B84DC
:144556005C84EB8DFC8D228A338A448A558AEB8DFC8D2288AF
:14456A00338844885588488259829101008111810E94240EBB
:14457E000D831E832F8338872D803E804F8058848894222013
:1445920032044204520451F48B8D9C8D04965C01FC018081C8
:1445A6008068808302E038C12C2C3324442455246D807E80C0
:1445BA008F809884620C731C841C951C6D827E828F82988656
:1445CE0029E030E00F8D18A10E94484C58010030010709F4A7
:1445E20096C02C2C3324200E311EEB8DFC8DAF93BF93A0818D
:1445F600B181FD01BF91AF91428055244214530478F42C2C45
:14460A003324EB8DFC8DAF93BF93A081B181FD01BF91AF91CF
:14461E00A280BB24A218B308AC822D803E804F805884288224
:1446320039824A825B829701EB8DFC8DAF93BF93A081B18190
:14464600FD01BF91AF9101810E94120CC02E002351F08B8D26
:14465A009C8D04966C01FC0180818068808301E0D9C0EB8D41
:14466E00FC8DC080D180F60134962080222009F441C02D80D0
:144682003E804F805884F60162A473A484A495A46218730851
:1446960084089508150144245524621473048404950460F58D
:1446AA0080E092E099838883EB8DFC8DC080D1809601225D5B
:1446BE003F4F2D803E804F805884F60162A473A484A495A4CF
:1446D200621873088408950840E052E060E070E02F933F9340
:1446E6009A928A927A926A928A019B010E94574B3F912F9175
:1446FA000E0D1F1D0E94540C00E012E095010E94474B68014E
:14470E005AC02D803E804F805884EB8DFC8D268A378A408E27
:14472200518E4FEF51E060E070E0EB8DFC8D26803780408483
:144736005184242235224622572240E052E060E070E04219DF
:14474A005309640975096A010F8C18A00416150608F46001C4
:14475E00EB8DFC8D26883788408C518C488259829101008178
:1447720011810E94AD0CA02E002351F08B8D9C8D04965C01DC
:14478600FC0180818068808301E046C0D982C8824FEF51E03B
:14479A0060E070E0EB8DFC8D268037804084518424223522E7
:1447AE00462257229101808191818E96280F391F87010E9494
:1447C200540CEC0CFD1C8B8D9C8D06965C0116014424552440
:1447D600FC016080718082809380620C731C841C951C6082BC
:1447EA00718282829382E9A1FAA1208031802C0C3D1C3182F5
:1447FE0020820F8C18A00C181D0818A20F8E0F8C18A000209F
:1448120009F0F1CD112009F0EECD002761960E94A04B249691
:1448260008950E94664A0E94AB4B5901619775012224332492
:14483A00E9A1FAA131822082EB8DFC8D228133810081118185
:14484E009DDBA02E002309F0FCC2EB8DFC8D248027FE02C0AA
:1448620002E0F5C2EB8DFC8D248021FC02C007E0EEC2EB8D16
:14487600FC8D3A9620803180428053802D863E864F86588AC1
:14488A002F8C38A0442455246D847E848F849888620C731C83
:14489E00841C951C2D843E844F845888621473048404950481
:1448B20008F0A5C20024112418A20F8EA0C24FEF51E060E0D2
:1448C60070E0EB8DFC8D36962080318042805380242235223E
:1448DA00462257228894222032044204520409F00BC289E08A
:1448EE0090E0EB8DFC8D06811781208531858A930E944F4C71
:1449020018012901EB8DFC8DAF93BF93A081B181FD01BF9128
:14491600AF918281992701973C01882477FC8094992487FC42
:14492A0090942620372048205920C22C222009F0A5C0EB8DD1
:14493E00FC8D36962080318042805380889422203204420450
:14495200520471F5EB8DFC8D3E96208031804280538029862B
:144966003A864B865C8629843A844B845C848894222032041C
:14497A004204520409F040C040E050E060E070E068837983CD
:14498E009A01EB8DFC8D008111810E94381209871A872B8797
:1449A2003C87EB8DFC8D06871787208B318B28C0EB8DFC8DC2
:1449B60020A031A0222011F4332079F0268037804084518463
:1449CA004882598291018F010E94B01309871A872B873C8707
:1449DE0011C0EB8DFC8D2288338844885588488259829101AE
:1449F200008111810E94381209871A872B873C8729843A84A1
:144A06004B845C848894222032044204520409F4FCC141E0E2
:144A1A0050E060E070E029843A844B845C84241635064606ED
:144A2E00570649F48B8D9C8D0496FC0180818068808302E034
:144A420006C24FEF5FEF6FEF7FEF29843A844B845C842416EC
:144A560035064606570651F48B8D9C8D04965C01FC018081ED
:144A6A008068808301E0EFC129843A844B845C84EB8DFC8DA1
:144A7E00228A338A448A558AEB8DFC8DA080B180268837884F
:144A9200408C518CF50162A473A484A495A46214730484047E
:144AA6009504B9F440E050E060E070E0688379839A018F01C4
:144ABA000E94AD0CA02E002351F08B8D9C8D04965C01FC0126
:144ACE0080818068808301E0BCC1EB8DFC8D22883388448858
:144AE2005588488259829101008111810E94240E0D831E8394
:144AF6002F8338872D803E804F80588488942220320442044B
:144B0A00520451F48B8D9C8D04965C01FC01808180688083DB
:144B1E0002E097C12C2C3324442455246D807E808F809884A3
:144B3200620C731C841C951C6D827E828F82988629E030E0EA
:144B46000F8D18A10E94484C58010030010709F497C02C2C93
:144B5A003324200E311EEB8DFC8DAF93BF93A081B181FD018D
:144B6E00BF91AF91428055244214530478F42C2C3324EB8D28
:144B8200FC8DAF93BF93A081B181FD01BF91AF91A280BB2420
:144B9600A218B308AC822D803E804F805884288239824A8221
:144BAA005B829701EB8DFC8DAF93BF93A081B181FD01BF914C
:144BBE00AF9101810E94320CC02E002351F08B8D9C8D049614
:144BD2006C01FC0180818068808301E038C12D803E804F8065
:144BE6005884EB8DFC8DA081B1819A966D907D908D909C9008
:144BFA0062187308840895081501442455246214730484041D
:144C0E00950408F032C080E092E099838883C080D1802D80D8
:144C22003E804F805884F60162A473A484A495A462187308AB
:144C36008408950840E052E060E070E09A928A927A926A920F
:144C4A008A019B010E94574B98012E0D3F1D8601025D1F4F67
:144C5E000E94540C2224EB8DFC8DAF93BF93A081B181FD0114
:144C7200BF91AF91248200E012E095010E94474B680199C09A
:144C8600EB8DFC8D2284338444845584668077808084918425
:144C9A00621473048404950428F140E050E060E070E0688314
:144CAE0079839A01008111810E94AD0CA02E002351F08B8DA3
:144CC2009C8D04965C01FC0180818068808301E0BEC02D80C9
:144CD6003E804F805884EB8DFC8DA081B1819A962D923D924F
:144CEA004D925C922D803E804F805884EB8DFC8D268A378A61
:144CFE00408E518E4FEF51E060E070E0EB8DFC8D2680378098
:144D120040845184242235224622572240E052E060E070E094
:144D260042195309640975096A010F8C18A00416150608F4E8
:144D3A006001EB8DFC8D26883788408C518C488259829101B6
:144D4E00008111810E94AD0CA02E002351F08B8D9C8D0496D6
:144D62005C01FC0180818068808301E070C0D982C8829701A9
:144D76004FEF51E060E070E0EB8DFC8D268037804084518433
:144D8A0024223522462257228101808191818E96080F191F8F
:144D9E000E94540C81E0EB8DFC8DAF93BF93A081B181FD01B8
:144DB200BF91AF918483EC0CFD1C8B8D9C8D06965C011601F4
:144DC60044245524FC016080718082809380620C731C841C78
:144DDA00951C6082718282829382E9A1FAA1208031802C0C78
:144DEE003D1C318220820F8C18A00C181D0818A20F8E0F8C75
:144E020018A0002009F05BCD112009F058CDEB8DFC8D2284AD
:144E1600338444845584668077808084918426143704480479
:144E2A00590440F426803780408451842286338644865586E7
:144E3E008B8D9C8D04965C01FC018081806280830027619627
:144E52000E94A04B249608950E94E64BA8012697FA01228191
:144E66003381008111818ED8A02E002309F09FC0FA01248023
:144E7A0025FE9BC0228C338C448C558C4882598291010081D0
:144E8E0011810E94AD0CA02E002309F08CC0FA01668D778DFB
:144EA200CB010B96FC01808180628083FA012284338444848C
:144EB6005584FB01248EFA0122843384232C3324FB01258EB4
:144ECA00FA012284338444845584120144245524FB01268E37
:144EDE0088E190E0FA0102851385248535858A930E944F4C10
:144EF200FB01078FFA012684378440885188FB01228EFA0172
:144F060026843784232C3324FB01238EFA01268437844088B7
:144F1A005188120144245524FB01248AFA01268437844088E4
:144F2E0051881201232C3324FB01258A0E944F0C0A831B830A
:144F42002C833D832A803B804C805D80FB01268A232C33248C
:144F5600779620822A803B804C805D80120144245524FB019A
:144F6A007896208288E190E00A811B812C813D818A930E9459
:144F7E004F4CFB01018FBA016C5F7F4FFB0180818F7D808398
:144F920081E0FA01AF93BF93A081B181FD01BF91AF91848333
:144FA600FA01008111810E944F0DC02EAC2C0A2D26960C9492
:144FBA00EF4B0E94B14B680186014ADFA02E002329F422249E
:144FCE003324F601318220820A2D0C948B4B0E94664A0E948B
:144FE200AB4B6E97E8A5F9A522813381008111810E94C51FA5
:144FF600A02E002309F0A7C4E8A5F9A5248027FE02C002E0BA
:14500A00A0C4E8A5F9A5B09620803180222019F4332009F4CD
:14501E00E3C14FEF5FEF6FEF7FEF2AA43BA44CA45DA42416AA
:1450320035064606570609F009C1E8A5F9A5E0A0F1A0F7018F
:1450460021903190419051907F012E8A3F8A488E598E82E012
:14505A008E8780E08F87888B898BE8A5F9A53E962080318040
:14506E00428053802A823B824C825D822A803B804C805D8075
:145082008894222032044204520409F4BBC02A803B804C8041
:145096005D802A8A3B8A4C8A5D8A80E08A878B878C878D8749
:1450AA0042E050E060E070E02E843F8448885988240E351E65
:1450BE00461E571E2E863F86488A598A2A803B804C805D80C9
:1450D2002E823F824886598641E050E060E070E02A843B845E
:1450E6004C845D84240E351E461E571E2A863B864C865D8681
:1450FA002A803B804C805D80488259829101E8A5F9A50081B1
:14510E0011810E94760E0A831B832C833D8341E050E060E0AA
:1451220070E02A803B804C805D80421553056405750548F051
:1451360088A599A50496FC0180818068808302E002C44FEF91
:14514A005FEF6FEF7FEF2A803B804C805D8024163506460668
:14515E00570651F488A599A504966C01FC0180818068808340
:1451720001E0EBC341E050E060E070E02E803F8048845984A3
:14518600240E351E461E571E6A807B808C809D8062147304BC
:14519A008404950409F494CF2E883F88488C598C6E847F8455
:1451AE0088889988261437044804590490F02A843B844C84E1
:1451C2005D84F70121923192419251922A883B884C885D88A6
:1451D60021923192419251927F01E8A5F9A5A081B1815696AF
:1451EA002D903D904D905C906A807B808C809D806214730463
:1451FE008404950408F445CF2E843F8448885988E8A5F9A51B
:14521200B096A081B1812D923D924D925C922E883F88488C43
:14522600598C6E847F8488889988261437044804590438F023
:14523A00F70180E0808381838283838381C381E1A82E7EC339
:14524E00E8A5F9A53A9620803180428053806AA47BA48CA40E
:145262009DA4261437044804590458F4E8A5F9A53A962080F2
:145276003180428053802AA63BA64CA65DA62AA43BA44CA49B
:14528A005DA4E8A5F9A53696208231824282538288942220CC
:14529E0032044204520409F451C341E050E060E070E0241AFA
:1452B200350A460A570A48825982910108A519A50E94B013F1
:1452C600E8A5F9A5028B138B248B358B228833884488558801
:1452DA00488259829101008111810E94240E0A8F1B8F2C8FA4
:1452EE003D8F2A8C3B8C4C8C5D8C8894222032044204520472
:1453020051F488A599A504967C01FC0180818068808302E005
:145316001AC341E050E060E070E00AA51BA52CA53DA5041B84
:14532A00150B260B370B89E090E08A930E944F4C1801290166
:14533E00E8A5F9A5AF93BF93A081B181FD01BF91AF913296F3
:145352008081992701973C01882477FC8094992487FC90941A
:1453660026203720482059206A8C7B8C8C8C9D8C620C731C7A
:14537A00841C951C6A8E7B8E8C8E9D8E4FEF51E060E070E089
:14538E00E8A5F9A53696208031804280538024223522462229
:1453A20057228894222032044204520409F4CCC2E8A5F9A598
:1453B600769620803180428053806A8C7B8C8C8C9D8C62143D
:1453CA0073048404950409F4BBC213012401E8A5F9A5268AA9
:1453DE00378A408E518EB2C2E8A5F9A53A96208031804280CB
:1453F20053806AA47BA48CA49DA4261437044804590470F4B4
:14540600E8A5F9A5248021FC09C03A96208031804280538027
:14541A002AA63BA64CA65DA6E8A5F9A53696208031804280CE
:14542E0053802E863F86488A598A80E08A878B878C878D87BF
:14544200E8A5F9A5369680E080838183828383832AA43BA440
:145456004CA45DA48894222032044204520409F426C2E8A5AF
:14546A00F9A5AF93BF93A081B181FD01BF91AF9132962080B3
:14547E0033244424552440E052E060E070E05A924A923A926C
:145492002A928A019B010E94574B0E831F83288739872E848B
:1454A6003F84488859888894222032044204520409F475C01C
:1454BA0041E050E060E070E081019201041B150B260B370B36
:1454CE002E803F80488459845A924A923A922A920E94B14AC7
:1454E2001801290141E050E060E070E00AA51BA52CA53DA570
:1454F600041B150B260B370B6E807F80888499849A928A9292
:14550A007A926A920E94B14A021513052405350508F443C057
:14551E0041E050E060E070E02E803F8048845984241A350A05
:14553200460A570A209430944094509441E050E060E070E0A3
:145546006E847F8488889988641A750A860A970A62207320E8
:14555A0084209520E8A5F9A56682778280869186369620804F
:14556E003180428053806AA47BA48CA49DA4621873088408C4
:1455820095086AA67BA68CA69DA6E8A5F9A57296208031804E
:14559600428053802A823B824C825D8269C0E8A5F9A53E962E
:1455AA0020803180428053802A823B824C825D822A803B808C
:1455BE004C805D808894222032044204520409F049C040E0DE
:1455D20050E060E070E0688379839A01E8A5F9A50081118145
:1455E6000E9438120A831B832C833D8341E050E060E070E04A
:1455FA002A803B804C805D80241635064606570651F488A5FF
:14560E0099A504967C01FC0180818068808302E096C14FEFD3
:145622005FEF6FEF7FEF2A803B804C805D802416350646068B
:14563600570651F488A599A504967C01FC0180818068808353
:14564A0001E07FC12A803B804C805D80E8A5F9A52686378689
:14565E00408A518A2A803B804C805D80E8A5F9A5228A338AF1
:14567200448A558A2A803B804C805D8088942220320442048F
:14568600520409F414C1A7C0E8A5F9A53496208021FE24C0E9
:14569A002A803B804C805D80488259829101E8A5F9A500810B
:1456AE0011810E9438120A831B832C833D832A803B804C809F
:1456C2005D8088942220320442045204D1F42E803F804884C9
:1456D60059842AA63BA64CA65DA68BC02A803B804C805D80E4
:1456EA00488259829101E8A5F9A5008111810E94760E0A8384
:1456FE001B832C833D834FEF5FEF6FEF7FEF2A803B804C8002
:145712005D80241635064606570651F488A599A504967C01C1
:14572600FC0180818068808301E00DC141E050E060E070E0F6
:14573A002A803B804C805D80421553056405750590F4E8A5AA
:14574E00F9A5A081B18156962D903D904D905C906A807B8032
:145762008C809D80621473048404950450F088A599A50496B7
:145776007C01FC0180818068808302E0E4C02A803B804C8002
:14578A005D80E8A5F9A57296208231824282538288A599A5A2
:14579E0006967C012E803F8048845984FC01608071808280F8
:1457B2009380620C731C841C951C60827182828293826AA486
:1457C6007BA48CA49DA462187308840895086AA67BA68CA6BE
:1457DA009DA62E803F80488459846AA47BA48CA49DA426148A
:1457EE0037044804590408F44BCF88A599A506967C012AA45B
:145802003BA44CA45DA4FC016080718082809380620C731CE2
:14581600841C951C60827182828293824FEF51E060E070E040
:14582A0024223522462257228894222032044204520409F4BF
:14583E003AC02A803B804C805D80488259829101E8A5F9A5EC
:14585200008111810E94240E0A871B872C873D872A843B8444
:145866004C845D848894222032044204520451F488A599A59D
:14587A0004967C01FC0180818068808302E061C089E090E03E
:14588E000AA51BA52CA53DA58A930E944F4C2A843B844C844D
:1458A2005D84200E311E421E531E2A863B864C865D864FEF5F
:1458B60051E060E070E0E8A5F9A53696208031804280538040
:1458CA00242235224622572288942220320442045204C1F06B
:1458DE00E8A5F9A5769620803180428053806A847B848C849C
:1458F2009D84621473048404950441F013012401E8A5F9A5DE
:14590600268A378A408E518EE8A5F9A5228433844484558446
:14591A006680778080849184261437044804590478F4268053
:14592E003780408451842286338644865586CF0104966C0138
:14594200FC018081806280830A2D6E960E94A04B249608954F
:145956003A932A930E94CA4BB8012D97222428829B018E0164
:14596A000D5E1F4F0E94CB1A402F002309F05CC0CE010196BC
:14597E00FB01958B848B2B893C898F010E947F19402F002315
:1459920009F04BC0FB0122883388222019F4332009F432C00B
:1459A600AF93BF93A289B389FD01BF91AF91238424FE27C0B4
:1459BA00FB01A288B388F501228C3324438C5524542C44244D
:1459CE00422853281201442455246488772485889924982CD7
:1459E200882486289728340188249924430166247724622807
:1459F600732884289528FB01668277828086918601C045E0B9
:145A0A00442379F4FB01A081B18116962D903C9033822282D7
:145A1E00222733278F010E942914A02E4A2D443009F445E087
:145A3200042F2D960E94D14B229608950E94E64B5901B80171
:145A46002C97FB0122813381008111810E94C51F402F00230B
:145A5A0009F035C0AA2049F4BB2039F4222733278B010E946A
:145A6E002914402F2AC0CE01FB01958B848B8F010E94261725
:145A8200C02E4C2D043041F4FB013E9680E080838183828304
:145A9600838344274423A9F495018B010E94DC18222733272C
:145AAA008B010E943315A02E4A2D043041F4FB013E9680E094
:145ABE0080838183828383834427042F2C960C94EF4B015037
:145AD200104081E090E080179107C8F308954A935A930AC084
:145AE60041E050E002C04F5F5F4F8BEC94E084179507C8F75C
:145AFA00180101501040222089F7332079F7599149910895F8
:145B0E000E94C04BA80166277727C09A0E944C3FC098FA0128
:145B220000810E94483FFA0101810E94483FFA0102810E94FF
:145B3600483FFA0103810E94483FFA0104810E94483FFA0188
:145B4A0005810E94483F0E944C3F402F55276F5F7F4F4F3F56
:145B5E00E0E05E0721F46431E0E07E0790F3042F0C94C54BB9
:145B72000E94CA4B2697442766278AE892E0FE0106E010E0FA
:145B8600FA93EA939A938A930E945B4C81B1869586958695EB
:145B9A0086958695817021F481E090E05C0102C0AA24BB241E
:145BAE00AA2021F4BB2011F402E039C0C09AB89A0E943E3F7E
:145BC20082E58DB98EB18F7F8EB9C09A442703C00E944C3FD9
:145BD60043954A30D8F3C09844278E0195DF602F43954431FC
:145BEA0019F4C09A01E01DC06130A9F7C09A0E944C3FC09872
:145BFE0081E488838FEF8D8344278E0181DF602F439544315F
:145C120019F4C09A02E009C06623A9F780E58DB9709AC09A34
:145C26000E944C3F002726960C94D14B0E94664A0E94E64B79
:145C3A002697AA88BB884427CC246627772780E992E0FE01C4
:145C4E0006E010E0FA93EA939A938A930E945B4C89E090E0F6
:145C62000E851F85288939898A930E94364C0E871F87288B55
:145C7600398B88E190E00E851F85288939898A930E944F4C79
:145C8A0009832E843F84488859881201442455242A8288E04C
:145C9E0090E00E851F85288939898A930E944F4C0B83C09898
:145CB2008E012CDF402FC3948C2D843119F4C09A112737C07A
:145CC6004423A1F76627772704C00E944C3F6F5F7F4F643679
:145CDA00E0E07E07C0F30EEF0E94483F6627772707C0F501B0
:145CEE0001915F010E94483F6F5F7F4F6030E2E07E07A8F379
:145D02000E944C3F0E944C3F0E944C3F402F842F8F7185302F
:145D160021F0C09A03E010E00AC00E944C3F402F0F3FD9F7B7
:145D2A00C09A0E944C3F0027112726960E94EF4B2496089590
:145D3E000E94664A0E94E64B2697AA88BB8844275527662786
:145D5200CC2486E992E0FE0106E010E0FA93EA939A938A9343
:145D66000E945B4C89E090E00E851F85288939898A930E949E
:145D7A00364C0E871F87288B398B88E190E00E851F85288920
:145D8E0039898A930E944F4C09832E843F8448885988120120
:145DA200442455242A8288E090E00E851F85288939898A93C1
:145DB6000E944F4C0B83C0988E01A6DEC02E6395643121F413
:145DCA00C09A04E010E01FC0CC20A1F70E944C3F0E3FE1F7E2
:145DDE004427552709C00E944C3FC02EFA01EA0DFB1DC0829A
:145DF2004F5F5F4F4030E2E05E0798F30E944C3F0E944C3FC5
:145E0600C09A0E944C3F0027112726960E94EF4B24960895B3
:145E1A000E94664A0E94AB4B2697AE88BF88E88CF98C4427EC
:145E2E0055276627CC248CE992E0FE0106E010E0FA93EA93A1
:145E42009A938A930E945B4C89E090E0088919892A893B8936
:145E56008A930E94364C088B198B2A8B3B8B88E190E00889DB
:145E6A0019892A893B898A930E944F4C0983288839884A88E2
:145E7E005B881201442455242A8288E090E0088919892A89CF
:145E92003B898A930E944F4C0B83C0988E0136DEC02E63956F
:145EA600643121F4C09A04E010E034C0CC20A1F70E944C3F6B
:145EBA000E3FE1F74427552704C00E944C3F4F5F5F4F4A151C
:145ECE005B05C8F30BC00E944C3F602FFA010C881D88E00DFD
:145EE200F11D60834F5F5F4F15012E0C3F1C4215530578F39A
:145EF60004C00E944C3F4F5F5F4F4030E2E05E07C0F30E945F
:145F0A004C3F0E944C3FC09A0E944C3F0027112726960E9487
:145F1E00A04B249608950E94CA4B2397662743E00E942C40FE
:145F320081E08A8388E0888321E001E00E94B64081E08A8392
:145F460088E0888322E001E00E94B64081E08A8388E0888378
:145F5A0023E001E00E94B64081E08A8388E0888324E001E0F1
:145F6E000E94B64001E00E94E739DFD51983088321E001E027
:145F82000E94863F85ED95E09983888321E002E00E94863F4C
:145F960084EC95E09983888321E003E00E94863F8BEB95E0B5
:145FAA009983888321E004E00E94863F81E08A8388E088838F
:145FBE0021E001E00E94B64081E08A8388E0888322E001E091
:145FD2000E94B64081E08A8388E0888323E001E00E94B640C6
:145FE60081E08A8388E0888324E001E00E94B6402227042FCD
:145FFA000E9448418091F208813019F0823009F07FC003E0D6
:14600E0084C00E948C45602F01E00E94E7398DD55801B9829F
:14602200A88221E001E00E94863F83E08417F8F46E31E9F491
:1460360081E08A8388E0888322E001E00E94B64081E08A838C
:14604A0088E0888323E001E00E94B64081E08A8388E0888372
:14605E0024E001E00E94B6404A952227042F0E9448414730B4
:1460720038F56D3129F581E08A8388E0888321E001E00E94CC
:14608600B64081E08A8388E0888322E001E00E94B64081E053
